:020000040800F2
:1000000078B5002045030008DD4400083D3E0008A7
:10001000D9440008E30D0008417800080000000002
:100020000000000000000000000000008502000841
:100030004915000800000000E1020008E96B000813
:100040005F0300085F0300085F0300085F03000808
:100050005F0300085F0300085F0300085F030008F8
:100060005F0300085F0300085F0300085F030008E8
:100070005F030008291300085F0300083913000814
:100080005F030008491300085F030008090E000819
:10009000E90D0008F90D00085F0300085F03000880
:1000A0005F0300085F0300085F0300085F030008A8
:1000B0005F0300085F0300085F0300085F03000898
:1000C0005F0300085F0300085F0300085F03000888
:1000D0005F0300085F030008C57600085F0300089F
:1000E0005F0300085F0300085F0300085F03000868
:1000F0005F0300085F0300085F0300085F03000858
:100100005F0300085F0300085F0300085F03000847
:10011000D96D00085F030008E96C00085F03000860
:100120005F0300085F0300085F0300085F03000827
:100130005F0300080000000000000000390E000806
:10014000190E0008290E00085F0300085F0300086D
:100150005F0300085F0300085F0300085F030008F7
:100160005F0300085F0300085F0300085F030008E7
:100170005F0300085F0300080000000000000000AB
:100180005F0300085F03000800F002F800F06BF85E
:100190000AA090E8000C82448344AAF10107DA45E2
:1001A00001D100F060F8AFF2090EBAE80F0013F0C9
:1001B000010F18BFFB1A43F001031847F8CC0000E9
:1001C00018CD00000A444FF0000C10F8013B13F06A
:1001D000070408BF10F8014B1D1108BF10F8015BA0
:1001E000641E05D010F8016B641E01F8016BF9D193
:1001F00013F0080F1EBF10F8014BAD1C0C1B09D1EA
:100200006D1E58BF01F801CBFAD505E014F8016B5B
:1002100001F8016B6D1EF9D59142D6D370470000ED
:100220000023002400250026103A28BF78C1FBD8FF
:10023000520728BF30C148BF0B607047642900F0E7
:10024000D981752900F0D681732900F082840020BD
:1002500070471FB50BF07BFF9DE8030000F0A8FB83
:100260001FBD10B510BD00F0A3FC1146FFF7F1FF54
:1002700008F074FC00F0C1FC03B4FFF7F2FF03BC0C
:1002800000F0F2FC2C4B19680868B0E8F04F80F3DE
:100290000988BFF36F8F4FF0000080F3118870471B
:1002A0000000000008480068006880F308884FF0EC
:1002B000000080F3148862B661B6BFF34F8FBFF3BE
:1002C0006F8F00DF00BF00BF08ED00E0DFF80C001B
:1002D000016841F470010160704700BF88ED00E0E3
:1002E000EFF30980BFF36F8F134B1A681EF0100FE6
:1002F00008BF20ED108A20E9F04F106009B44FF0DC
:10030000500080F31188BFF34F8FBFF36F8F0AF057
:1003100013FB4FF0000080F3118809BC19680868CE
:10032000B0E8F04F1EF0100F08BFB0EC108A80F359
:100330000988BFF36F8F704738000020EFF3058006
:10034000704700000948804709480047FEE7FEE77C
:10035000FEE7FEE7FEE7FEE7FEE7FEE7FEE7FEE775
:1003600004480549054A064B70470000D56C000853
:100370008901000878AF002078B5002078B100200E
:1003800078B1002070B5064600F0F6FA056806F16F
:100390000B0020F00704B4429CBF002070BD2B4628
:1003A0006A68BAB11068A04210D304F1080188420B
:1003B0003CBF5068586007D35168101941601168FC
:1003C000091B016058601460101D70BD134652680F
:1003D000002AE7D12146284600F0D6FA0028DED1CF
:1003E00070BD70B50446051F00F0C6FA0068002C09
:1003F00014BF446870BD002C18BFAC423CBF2046FF
:100400006468F8D301680A18AA4218BF456003D18E
:100410002A6805461144016028684119A1421CBFA1
:100420006C6070BD6168696021680844286070BDB7
:1004300053EA020C00F069802DE9F04B4FF0000602
:10044000002B1FBFB3FA83F503FA05F424FA05F66F
:100450005E4012BF1643B2FA82F502FA05F4C5F106
:1004600020051EBF22FA05FC44EA0C04203556EA9A
:10047000044C4FEA144418BF641C4FF000084FF0BE
:100480000009904271EB030C39D3002919BFB1FA6E
:1004900081F701FA07F6B0FA80F700FA07F6C7F11C
:1004A00020071EBF20FA07FC46EA0C062037B6FBE1
:1004B000F4FCA7EB0507103F07F01F0BCBF120065C
:1004C0000CFA0BFB2CFA06F644BFB3460026202F8D
:1004D000A4BF5E464FF0000B5BEA060C08BF4FF06E
:1004E000010B19EB0B09ABFB027C48EB0608C01BA8
:1004F00006FB02CC0BFB03CC71EB0C01C1E70B46F6
:10050000024641464846BDE8F08B13B54FF0000067
:100510004FF00001AFF30080BDE81C4070470000C1
:100520000FB41CB50C0007AA009001D02044401E57
:10053000074B7B4469460190069800F0D8FA002CDE
:1005400003D06946002000F0E5FA1CBC5DF814FBFE
:10055000E905000070B5044685690068C10601D54B
:10056000302600E02026C00707D070BDD4E9012165
:1005700030469047206A401C20626D1EF6D570BD43
:1005800070B5044685690078C00707D170BDD4E90D
:10059000012120209047206A401C20626D1EF6D564
:1005A00070BD70B50C460546012A05D02878800636
:1005B00000D5EA69002302E0012305E05B1C9342B9
:1005C00002D2E05C0028F9D1A869E618C01AA86137
:1005D000286A184428622846FFF7BCFF04E0D5E9E2
:1005E000012114F8010B9047B442F8D32846FFF7D5
:1005F000C7FF70BD2DE9F04106460024106875293B
:10060000314616A510D0AFF30080002802DA404230
:1006100013A507E031688A0701D512A502E0490752
:1006200004D511A5012401E0AFF3008000210A22C6
:1006300006F1240709E0B0FBF2FCB0FBF2F302FB89
:100640001C00303078541846491C0028F3D123464A
:100650002A463046BDE8F04100F0EBB9000000004A
:100660002D0000002B000000200000002DE9F05FAD
:10067000894604464FF0000ADFF824B1FB44C0F875
:1006800020A02046E168884700287DD0252806D094
:10069000D4E901219047206A401C2062F1E700253F
:1006A0005F462046E16888472028064607DB312E52
:1006B00005D2B81910F8200C08B10543F1E7A807D6
:1006C00001D525F00405C4F81CA00027C4F818A023
:1006D0002A2E09D0304607F0DCF938B304EB87083E
:1006E000303EC8F8186019E059F8041B204604EBA6
:1006F00087029161E1688847012F064618D1E069B9
:10070000002820DA25F020051DE0D8F8180000EBBD
:10071000800006EB40003038C8F818002046E16839
:100720008847064607F0B5F90028EED1012F0AD018
:100730002E2E08D12046E16888477F1C0646022FEE
:1007400045F02005C4DBA069002803DA404245F0EB
:100750000105A061E80701D025F01005A6B1A6F1BA
:100760004100192802D8203645F400654A46314632
:10077000204625604D46FFF761FD60B1012807D096
:10078000ED1D25F0070000E007E000F1080978E71B
:1007900005F1040975E730467AE7206ABDE8F09F65
:1007A000BCBF000010B5431C02E010F8011B71B182
:1007B0008107FAD14FF0013202C88C1A8C4314EA37
:1007C000C211F9D0C01A0A0603D0C01E10BDC01A4B
:1007D00010BD0A0401D0801E10BD0902FCD0401ECD
:1007E00010BD032A40F2308010F0030C00F0158099
:1007F00011F8013BBCF1020F624498BF11F801CB24
:1008000000F8013B38BF11F8013BA2F1040298BF88
:1008100000F801CB38BF00F8013B11F0030300F0F2
:100820002580083AC0F0088051F8043B083A51F896
:1008300004CBA0E80810F5E7121D5CBF51F8043B9B
:1008400040F8043BAFF30080D20724BF11F8013B0E
:1008500011F801CB48BF11F8012B24BF00F8013B70
:1008600000F801CB48BF00F8012B704710B5203AC3
:10087000C0F00B80B1E81850203AA0E81850B1E859
:100880001850A0E81850BFF4F5AF5FEA027C24BF0F
:10089000B1E81850A0E8185044BF18C918C0BDE806
:1008A00010405FEA827C24BF51F8043B40F8043BCF
:1008B00008BF7047D20728BF31F8023B48BF11F884
:1008C000012B28BF20F8023B48BF00F8012B7047DE
:1008D00002F0FF0343EA032242EA024200F002B8B8
:1008E0004FF000020429C0F0128010F0030C00F059
:1008F0001B80CCF1040CBCF1020F18BF00F8012BD7
:10090000A8BF20F8022BA1EB0C0100F00DB85FEAA4
:10091000C17C24BF00F8012B00F8012B48BF00F870
:10092000012B70474FF0000200B5134694469646DF
:10093000203922BFA0E80C50A0E80C50B1F12001F2
:10094000BFF4F7AF090728BFA0E80C5048BF0CC0A0
:100950005DF804EB890028BF40F8042B08BF7047FE
:1009600048BF20F8022B11F0804F18BF00F8012B70
:100970007047704770477047004870471CAF0020B1
:10098000704770477047704738B504460A460020E4
:100990006946AFF30080002808BF38BD02460099C1
:1009A000204600F0E3F8012038BD012000F0F8B83F
:1009B000F8B5AFF30080054600200C46102000BFBC
:1009C0000646A819A0420DD9324669460020AFF369
:1009D0000080070008BF00F0E3F80098A04218BFAD
:1009E0000546C419FFF7C8FF05600746F01D20F053
:1009F00007004619284600F00AF8B44208BFF8BDBF
:100A0000A21B31463868BDE8F84000F0AFB80021BD
:100A10000160C0E9011070471020704710B500F068
:100A2000A1F8006810BD10B5044600F09BF8046002
:100A300010BD2DE9F0470D4699469246044600F157
:100A400024080168880604D5E06921F010012160BE
:100A500000E00120A84201DD471B00E00027A1695A
:100A60007A1902EB0900081AA0612078C00602D4A6
:100A70002046FFF76FFD002608E0D4E901211AF8AF
:100A800006009047206A401C761C20624E45F4DB2D
:100A90002078C0060AD52046FFF75CFD06E0D4E9C1
:100AA000012130209047206A401C2062381EA7F1A7
:100AB0000107F4DC07E0D4E9012118F805009047AC
:100AC000206A401C2062281EA5F10105F3DC2046A7
:100AD000FFF756FD2078000602D50220BDE8F0871A
:100AE0000120FBE701694A1C02610878704700B5E4
:100AF0008FB0CDE901310021059105497944CDE957
:100B0000031011466846FFF7B1FD0FB000BD0000AD
:100B1000E5FFFFFF0A6802F8010B0A607047D1E9A0
:100B200000239A4202D2531C0B601070704710B51C
:100B3000436913B1AFF3008001E0FFF732FD0120FC
:100B400010BD127800F124010A7000224A700122BF
:100B5000EDE711684FF0FF32E9E700000048704709
:100B600014AF00200048704714AF002003464068CF
:100B70008C46002818BF88423CBF03464068F8D323
:100B800018681844884207D00CF1030020F00700D1
:100B9000001D411A521A0146081D0A60FFF721BCC8
:100BA00010B500F039F8BDE8104000F02FB87047DC
:100BB0007546FFF7D3FFAE4605006946534620F061
:100BC0000700854618B020B5FFF7CAFBBDE82040F6
:100BD0004FF000064FF000074FF000084FF0000BF9
:100BE00021F00701AC46ACE8C009ACE8C009ACE8AC
:100BF000C009ACE8C0098D46704710B50446AFF394
:100C000000802046BDE81040FFF736BB002801D029
:100C100000F02AB87047000010B5012805D0002167
:100C200003A000F027F8012010BD09A1F8E700009B
:100C300053494752544D454D3A204F7574206F66C5
:100C40002068656170206D656D6F7279000000002D
:100C50003A2048656170206D656D6F727920636F11
:100C6000727275707465640001491820ABBEFEE7AE
:100C70002600020070B505460C460A2000E06D1CF7
:100C800000F011F835B128780028F8D102E0641C92
:100C900000F009F814B120780028F8D1BDE87040C0
:100CA0000A20AFF3008008B569468DF800000320E4
:100CB000ABBE08BD80B59FED441A9FED443A20EECF
:100CC000011AB0EEC11ABDEEC12AB8EEC22A31EE49
:100CD000421A21EE031ABDEEC12A12EE102A02F1C9
:100CE000800E6FF35F224CF2B06CC0F6000C02EE87
:100CF000102A6FF35F2E0CEB8203B8EE422A0CEB46
:100D00008E0231EE421A92ED002A92ED013A93EDF5
:100D1000004A93ED015A9FED2E7A33EE426A74EE4B
:100D2000050A20EE877A76EE060A74EE041ADFEDE5
:100D3000292A37EE607AF0EE080A75EE211A26EEBF
:100D4000206A61EEA21A21EE077A36EE216A36EEAB
:100D5000076A21EE066A24EE227A36EE476A21EE11
:100D6000066A32EE066A81ED006A35EE445A32EECA
:100D7000036A26EE226A35EE057A36EE476A32EECF
:100D8000027A33EE073A25EE205A23EE223A21EE7C
:100D9000066A35EE433A33EE063A21EE033A22EE86
:100DA000222A32EE032A21EE021A34EE011AB5EE9F
:100DB000400AB1EE412AF1EE10FAB8BFB0EE421A85
:100DC00080ED001A80BD00BF610B363B000000447F
:100DD000DB0F49BCDB0F493C00BF012008F0EAF9FA
:100DE000FBE700BFFEE7000010B5024800F047FF38
:100DF00010BD0000C40A002010B5024800F03FFFFB
:100E000010BD0000C40A002010B5024800F037FFF2
:100E100010BD0000C40A002010B5024800F02FFFEA
:100E200010BD0000EC0A002010B5024800F027FFBA
:100E300010BD0000EC0A002010B5024800F01FFFB2
:100E400010BD0000EC0A002010B50246FF2004E0AF
:100E500012F8013B4340034CE05C0B1EA1F1010181
:100E6000F6D110BD3CC3000830B505460C460DB1A7
:100E7000022C01D8002030BD611E2846FFF7E4FF98
:100E8000611E695C884201D10120F4E70020F2E78D
:100E900010B502460B464FF6FF710AB9084610BD61
:100EA00008E012F8010B4840C0B2054C34F81000BD
:100EB00080EA2121181EA3F10103F2D10846EEE7D2
:100EC0003CC4000870B505460C460DB1022C01D893
:100ED000002070BDA11E2846FFF7DAFF0646F1B2DA
:100EE000A01E285C814206D1601E285CB0EB162F44
:100EF00001D10120EDE70020EBE7000070B50546C9
:100F00000E461446B448854275D13068A0F20120DF
:100F100030B1012827D0022849D003286CD16CE0D9
:100F20006078217840EA012000B2AC49A1F8A00025
:100F3000E078A17840EA012001B2A848A0F8A21008
:100F40006079217940EA012001B2A448A0F8A410F8
:100F5000A07941B2A14880F8A6109FEDA10AA1484E
:100F600002F0B7FF6EE06078217840EA012001B21C
:100F70009A48A0F8A810E078A17840EA012001B2D0
:100F80009648A0F8AA106079217940EA012001B2C0
:100F90009248A0F8AC10A07941B2904880F8AE1009
:100FA0009FED8F0A8F48183002F093FF4AE0607877
:100FB000217840EA012001B28848A0F8B010E0781A
:100FC000A17840EA012001B28448A0F8B21060790B
:100FD000217940EA012001B28048A0F8B410A0793C
:100FE00041B27E4880F8B6109FED7D0A7D483030D2
:100FF00002F06FFF26E026E023E06078217840EAE7
:10100000012001B27548A0F8B810E078A17840EA54
:10101000012001B27148A0F8BA106079217940EA44
:10102000012001B26D48A0F8BC10A07941B26B4814
:1010300080F8BE109FED6A0A6A48483002F049FF06
:1010400000E000BF00BF644885427DD13068A0F257
:10105000052030B1012823D0022841D0032874D1C3
:101060005EE06078217840EA012000B25B490880A8
:10107000E078A17840EA012000B2584948806079C0
:10108000217940EA012000B254498880A07940B219
:1010900088719FED530A5348603802F01AFF63E0ED
:1010A0006078217840EA012000B24C490881E0785C
:1010B000A17840EA012001B2484841816079217954
:1010C00040EA012001B245488181A07941B24348FC
:1010D00081739FED430A4348483802F0FAFE43E02B
:1010E0006078217840EA012000B23C490882E0782B
:1010F000A17840EA012001B2384841826079217923
:1011000040EA012001B235488182A07941B23348DA
:1011100081759FED330A3348303802F0DAFE23E060
:101120006078217840EA012000B22C490883E078F9
:10113000A17840EA012001B22848418360792179F1
:1011400040EA012001B201E00FE00CE02348818376
:10115000A07941B2214881779FED210A21481838B2
:1011600002F0B7FE00E000BF00BF1F48854221D15A
:101170003068B0F5A87F03D0A0F25110C0B90BE0E1
:101180001A4821680160616841609FED190A15489D
:10119000903802F09EFE0CE01648216801606168FC
:1011A00041609FED130A0F48783802F092FE00E08C
:1011B00000BF00BF084885420CD13068512809D1D2
:1011C0000D49204604F03CFA9FED090A05486030BD
:1011D00002F07FFE70BD0000C40A0020189D0020B0
:1011E000BC74933BBCAB0020EC0A0020F300002051
:1011F0005839B43BFB00002024010020F0B589B031
:1012000006460F4615461C4600200590069007949A
:1012100003952246394601A8FFF7E3FA6B4601AA77
:1012200003A9304600F02BFB09B0F0BD10B50E4805
:101230000021016041600D480160416024210C489B
:10124000FFF770FB00200B4908609FED0B0A084870
:1012500080ED040A9FED090A80ED030A002004498D
:1012600081F8200010BD00001C0100202401002096
:10127000D0AA00202C01002000006344C275DE4487
:1012800008B5144802F010FE4FF4FA7009F00AFA9B
:101290000AF01CF900901BE00F4800F0FBF80D4825
:1012A00080ED900A07F0DAFB0A4808F02DFE0948A5
:1012B00009F088FB074807F075FC064809F09CFB1D
:1012C00005487C3807F07AF80121684609F018FAD9
:1012D000E2E70000189D0020549F00209FED0D0ABA
:1012E0000D4880ED000A9FED0D0A80ED010A9FED8B
:1012F0000C0A80ED020A9FED0B0A80ED030A90EDC7
:10130000030A80ED040A00200349087548758875B2
:10131000704700000000704214AB00200000000085
:10132000FEFF0FC100004C4210B5024801F048F822
:1013300010BD0000F80B002010B5024801F040F885
:1013400010BD0000580C002010B5024801F038F81C
:1013500010BD0000B80C0020014608781038182392
:10136000B0FBF3F20848805CC865032A05D9086819
:101370006FF30900001D886503E008686FF309003A
:101380008865886D704700001CC300080146002076
:101390008A6A8B69CBB932B1012A0DD0022A03D0F7
:1013A000032A10D10EE000BFCB6A03F08073B3F1C3
:1013B000807F00D1012007E0CB6AB3F1C07F00D16C
:1013C000012001E000E000BF34E08B69B3F5005F6D
:1013D0001AD132B1012A07D0022A03D0032A11D12F
:1013E0000AE000BF01200EE0CB6A03F08073B3F186
:1013F000807F00D1012006E0CB6AB3F1C07F00D12D
:10140000012000E000BF15E032B1012A05D0022A18
:1014100004D0032A0CD103E000BF00BF012008E084
:10142000CB6A03F08073B3F1807F00D1012000E02C
:1014300000BF00BF704730B50468246824F48024DE
:1014400005682C60046863608468402C04D10468DB
:10145000A2600468E16003E00468A1600468E260DF
:1014600030BD000008B50848406800900749009862
:101470000968884204D206480068401C0449086094
:1014800002490098086008BD001000E0C800002074
:10149000C400002010B52DED028B82B004460E482A
:1014A0004068019020680199081A00EE100AF8EED1
:1014B000400A0A4890ED000AB8EE400A80EE801A11
:1014C000B0EE418A01982060FFF7CCFFB0EE480AE9
:1014D00002B0BDEC028B10BD001000E0B80000208F
:1014E0001249096841F08071104A11600021104AC8
:1014F00051601146096841F0010111600D494143F5
:101500000D4A1160114609684FF47A72B1FBF2F18D
:101510000A4A116008490968064AB1FBF2F1084A13
:1015200011600021074A116070470000FCED00E0E7
:10153000001000E040420F00B8000020BC00002076
:10154000C0000020C4000020704772B600BFFEE754
:1015500010B52DED028B044615488475A4B190EDAD
:10156000000ADFED140A70EE200A90ED020AB5EED3
:10157000C00AF1EE10FA02D290ED020A01E09FEDEE
:101580000E0A30EE808A02E0094890ED038A9FED52
:101590000B1ADFED0B0AB0EE480A06F0A3FE044872
:1015A00080ED040A90ED040ABDEC028B10BD000032
:1015B00014AB00200000704200000000000039431E
:1015C0000000D2411D48408830B91D48007820F005
:1015D00001001B49087006E01948007820F001005E
:1015E000401C17490870154800780A2801DA0120C4
:1015F00000E000201249097860F3410110480170B1
:101600000E4841780E48007861F387000C49087055
:101610000C48007F40B248710A48807F28B10A48D0
:10162000D0F80300C1F8010006E09FED080A10EEB3
:10163000100A0349C1F80100704700009FAC002068
:101640000B010020F4AA0020E403002000000000A9
:1016500008B54FF47A7009F025F809F037FF0090CB
:1016600019E002F0EDFB05F03FF908234FF4B072EA
:1016700009490A48FFF7C2FD082340F261120849F0
:101680000648FFF7BBFD00F00DF800F0B9F80421A3
:10169000684609F035F8E4E731010020EC0A002043
:1016A000390100202DE9F0414D48007C022875D118
:1016B0004C48007800F001044A480078C0F38205E5
:1016C00048480078460947484078C0F341174548E4
:1016D00040784FEAD018204608F0E6FB284608F08C
:1016E000C5FB304608F0D0FB404608F007FC384602
:1016F00008F0D4FB3C4890F84702012822D1DFEDE6
:101700003B0AB0EE600A3748408800EE900AB8EE17
:10171000601AC1EE000A9FED361A60EE810A324867
:10172000C0ED920A2F48408800EE900AB8EE601A89
:10173000C1EE000A9FED2F1A60EE810A2A48C0ED23
:10174000930A00BF274890F9060000EE100AB8EE91
:10175000C00ADFED290A80EE201A234880ED811AA5
:10176000204890F9040000EE100AB8EEC00ADFED40
:10177000220A80EE201A1C4880ED801A194890F940
:10178000050000EE100AB8EEC00ADFED1B0A80EE7D
:10179000201A154880ED7F1A20E0FFE7002008F0AE
:1017A00083FB002008F062FB002008F06DFB0020A6
:1017B00008F0A4FB002008F071FB9FED100A0A4816
:1017C00080ED810A9FED0D0A80ED800A9FED0B0AE6
:1017D00080ED7F0A9FED090A80ED950ABDE8F08152
:1017E0002CAB0020F3000020189D00200000804753
:1017F000DB0FC9400000B4430000C84200000000F5
:101800000E4890F82800022812D10D48B0F90200C5
:1018100000EE100AB8EEC00ADFED0A0A20EE200A38
:10182000DFED090A20EE200A084880ED950A04E061
:101830009FED070A054880ED950A70472CAB002004
:10184000FB0000200AD7233C35FA8E3C189D00206F
:101850000000000010B5024692F82030012B01D0A4
:10186000022B06D1106840690843146860610020AB
:1018700010BD506A40F4802050620120F8E7F0B5B6
:1018800004460D461E4694F8207020688368A868B8
:1018900000B900E000BF012F01D0022F7DD103F07D
:1018A000806030B903F0006018B903F08050002860
:1018B0007ED0C3F30161012088403060A86860B920
:1018C000B5F800C0E86840EA4C5C206800F5C070DC
:1018D00000EB0110C0F800C00FE0D5E901C040EAFC
:1018E000CC00D5F80CC040EA0C00D4F800C00CF5D0
:1018F000C07C0CEB011CCCF80000D5F810C02068AF
:1019000000F5C07000EB0110C0F804C0287D01286C
:101910000ED1206800F5C07000EB0110406840F463
:10192000807C206800F5C07000EB0110C0F804C096
:10193000D079000692F806C040EA0C4092F805C043
:1019400040EA0C2092F804C040EA0C00D4F800C031
:101950000CF5C07C0CEB011CCCF80C00D078000618
:1019600092F802C040EA0C4092F801C040EA0C2014
:1019700092F800C040EA0C00D4F800C00CF5C07C1E
:101980000CEB011CCCF80800206800F5C07000EBDF
:101990000110006840F0010C01E00FE008E0206851
:1019A00000F5C07000EB0110C0F800C00020F0BDD1
:1019B000606A40F4001060620120F8E7606A40F459
:1019C000802060620120F2E7F0B504460A4694F8F0
:1019D0002050012D01D0022D7ED1424901F5007128
:1019E000086840F001000860086820F47C50086036
:1019F0000868566A40EA06200860107D00F01F065D
:101A0000012000FA06F3C8699843C861A1F5007186
:101A1000D069C8B9D1F80C029843C1F80C0290887B
:101A200080B2968940EA064601F51070576940F881
:101A30003760108880B2168940EA064601F51070BA
:101A4000576900EBC7004660D069012819D1D1F869
:101A50000C021843C1F80C02908880B2168840EA44
:101A6000064601F51070576940F83760908980B2DA
:101A7000168940EA064601F51070576900EBC70069
:101A80004660906928B9D1F804029843C1F804026D
:101A900004E0D1F804021843C1F80402106928B91F
:101AA000D1F814029843C1F8140204E0D1F81402EA
:101AB0001843C1F81402106A012804D1D1F81C029D
:101AC0001843C1F81C02D1F8000220F00100C1F84F
:101AD00000020020F0BDFFE7606A40F480206062F1
:101AE0000120F7E700640040704770B5044694F8A1
:101AF0002050012D01D0022D7DD151B92068C06840
:101B000000F0030080B9606A40F4001060620120B8
:101B100070BD2068006900F0030028B9606A40F4D5
:101B2000001060620120F3E7206800F5D87000EB38
:101B30000110006800F004009060906840B92068CF
:101B400000F5D87000EB01100068400D106007E050
:101B5000206800F5D87000EB01100068C0085060E4
:101B6000206800F5D87000EB0110006800F002005A
:101B7000D060206800F5D87000EB0110406800F0DC
:101B80000F00082802D30820106108E0206800F543
:101B9000D87000EB0110406800F00F001061206861
:101BA00000F5D87000EB0110406800F47F40000A97
:101BB0009061206800F5D87000EB01104068000CBF
:101BC0005061206800F5D87000EB01108068187033
:101BD000206800F5D87000EB0110806800F47F40A9
:101BE000000A5870206800F5D87000EB011080687A
:101BF00000F47F0000E03CE0000C9870206800F5E5
:101C0000D87000EB01108068000ED870206800F5D5
:101C1000D87000EB0110C0681871206800F5D8700A
:101C200000EB0110C06800F47F40000A5871206882
:101C300000F5D87000EB0110C06800F47F00000CC4
:101C40009871206800F5D87000EB0110C068000E94
:101C5000D87131B92068C06840F020002668F06073
:101C600005E02068006940F020002668306100200F
:101C70004EE7606A40F480206062012048E72DE969
:101C8000F05F04460025206846692068D0F804907B
:101C9000206887682068D0F80CA02068D0F810B0C1
:101CA0002068D0F8188006F00100002855D007F011
:101CB0000100C0B101202168886007F0020018B15E
:101CC000204600F0E2FA0EE007F0040010B145F4FF
:101CD000006508E007F0080010B145F4805502E007
:101CE000204600F0D1FA07F48070C8B14FF480703C
:101CF0002168886007F4007018B1204600F0C7FA28
:101D00000EE007F4806010B145F4005508E007F4D8
:101D1000006010B145F4804502E0204600F0B6FABC
:101D200007F48030C8B14FF480302168886007F430
:101D3000003018B1204600F0ACFA0EE007F4802025
:101D400010B145F4004508E007F4002010B145F457
:101D5000803502E0204600F09BFA06F0080038B11A
:101D60000AF0100020B145F4007510202168C86009
:101D700006F0040040B10AF0080028B108202168EC
:101D8000C860204600F02EFA06F0020038B1206844
:101D9000C06800F0030010B1204600F024FA06F0FD
:101DA000400038B10BF0100020B145F480651020E0
:101DB0002168086106F0200040B10BF0080028B14E
:101DC000082021680861204600F01DFA06F0100086
:101DD00038B12068006900F0030010B1204600F01F
:101DE00013FA06F4003040B109F0100028B11020B9
:101DF00021684860204600F017FA06F4803040B1B0
:101E000009F0080028B1082021684860204600F049
:101E100041FA06F4004088B309F0040078B306F4F0
:101E2000807020B108F0010008B145F0010506F40A
:101E3000007020B108F0020008B145F0020506F478
:101E4000806020B108F0040008B145F0040506F4F4
:101E50000060A0B108F0700088B108F07000402860
:101E600017D006DC10280BD020280CD0302819D130
:101E70000CE0502810D0602814D110E01DE019E0CB
:101E800045F008050FE045F010050CE045F0200591
:101E900009E045F0400506E045F0800503E045F423
:101EA000807500E000BF00BF2068806920F07000EE
:101EB000216888610420216848602DB1606A284348
:101EC00060622046FFF710FEBDE8F09F70B5044643
:101ED0000CB9012070BD94F8200010B9204600F024
:101EE000AFF82068006840F001002168086000F049
:101EF00041FD05460DE000F03DFD401B0A2808D9D4
:101F0000606A40F400306062052084F820000120FF
:101F1000E0E72068406800F001000028EBD020686E
:101F2000006820F002002168086000F023FD0546EB
:101F30000DE000F01FFD401B0A2808D9606A40F43C
:101F400000306062052084F820000120C2E720688C
:101F5000406800F002000028EBD1207E012806D165
:101F60002068006840F080002168086005E0206873
:101F7000006820F0800021680860607E012806D19A
:101F80002068006840F040002168086005E0206893
:101F9000006820F0400021680860A07E012806D17A
:101FA0002068006840F020002168086005E0206893
:101FB000006820F0200021680860E07E012806D13A
:101FC0002068006820F010002168086005E02068A3
:101FD000006840F0100021680860207F012806D1C9
:101FE0002068006840F008002168086005E020686B
:101FF000006820F0080021680860607F012806D191
:102000002068006840F004002168086005E020684E
:10201000006820F0040021680860D4E90201084348
:1020200021690843616908436168491E08432168C2
:10203000C86100206062012084F82000002049E788
:1020400010B586B00446142101A8FEF76BFC5F4969
:102050002068884252D15E480068401C5C49086094
:102060000846006801280FD100BF002000905948A1
:10207000006840F00070574908600846006800F0AA
:102080000070009000BF00BF00BF002000905148CA
:102090001038006840F001004E49103908600846C9
:1020A000006800F00100009000BF00BF4FF4C05076
:1020B0000190022002900020039003200490092048
:1020C000059001A9444800F05BFB00220521132084
:1020D00000F052FE132000F03BFE002205211420E8
:1020E00000F04AFE142000F033FE002205211520E6
:1020F00000F042FE152000F02BFE65E03749206815
:10210000884261D100BF002000903248006840F052
:102110008060304908600846006800F080600090E8
:1021200000BF00BF2A480068401C294908600846D3
:10213000006801280FD100BF0020009025480068EA
:1021400040F00070234908600846006800F0007005
:10215000009000BF00BF00BF002000901D48103855
:10216000006840F002001B4910390860084600680A
:1021700000F00200009000BF00BF4FF440500190FB
:102180000220029000200390032004900920059073
:1021900001A9134800F0F4FA002205213F2000F0C5
:1021A000EBFD3F2000F0D4FD00220521402000F08F
:1021B000E3FD402000F0CCFD00220521412000F08D
:1021C000DBFD412000F0C4FD06B010BD00640040FE
:1021D0001C0000204038024000000240006800401F
:1021E00000040240704710B58AB0044601AB03AA50
:1021F00000212046FFF779FC01AA03A92046FEF73B
:102200007DFE0AB010BD704710B58AB0044601AB20
:1022100003AA01212046FFF768FC01AA03A9204672
:10222000FEF76CFE0AB010BD704770B5044694F816
:102230002000012822D1022084F8200020680068B4
:1022400020F001002168086000F094FB05460DE0D5
:1022500000F090FB401B0A2808D9606A40F4003067
:102260006062052084F82000012070BD206840686D
:1022700000F001000028EBD16062F6E7606A40F4EC
:10228000002060620120F0E7704770477047704798
:1022900070477047704710B504460CB9012010BD57
:1022A000607920B900202071204600F005F8012057
:1022B00060710020F3E7000008B50A4A0168914206
:1022C0000FD100BF002100910749096841F48051F6
:1022D000054A11601146096801F48051009100BF60
:1022E00000BF08BD003002403038024070B50446DF
:1022F000A56D00F03FFB064694F83500022808D093
:102300008020606500BF002084F8340000BF0120F9
:1023100070BD2068006820F0160021680860206801
:10232000406920F0800021684861206C08B9A06CE9
:1023300028B12068006820F0080021680860206843
:10234000006820F001002168086010E000F012FB36
:10235000801B05280BD920206065032084F83500F8
:1023600000BF002084F8340000BF0320D0E72068BD
:10237000006800F001000028E8D194F85C103F20CC
:102380008840A860012084F8350000BF002084F850
:10239000340000BF00BFBBE7014691F835000228BA
:1023A00003D08020486501207047052081F8350062
:1023B0000868006820F001000A6810600020F3E758
:1023C000F8B50446002000908C4800684FF4165180
:1023D000B0FBF1F7A56D2E6894F85C1008208840DA
:1023E000304098B12068006800F0040070B12068A7
:1023F000006820F004002168086094F85C10082050
:102400008840A860606D40F00100606594F85C1041
:1024100001208840304068B12068406900F08000A9
:1024200040B194F85C1001208840A860606D40F0D5
:102430000200606594F85C1004208840304068B168
:102440002068006800F0020040B194F85C1004209D
:102450008840A860606D40F00400606594F85C10EE
:1024600010208840304078B32068006800F00800F1
:1024700050B394F85C1010208840A8602068006871
:1024800000F4802080B12068006800F4002028B9A2
:10249000206CC8B12046216C884715E0A06C98B12B
:1024A0002046A16C88470FE02068006800F4807027
:1024B00028B92068006820F0080021680860206CB6
:1024C00010B12046216C884794F85C102020884089
:1024D0003040002865D02068006800F01000002817
:1024E0005FD094F85C1020208840A86094F83500F4
:1024F000052828D12068006820F0160021680860AF
:102500002068406920F0800021684861206C08B98B
:10251000A06C28B12068006820F0080021680860DD
:1025200094F85C103F208840A860012084F83500B2
:1025300000BF002084F8340000BF206D10B1204699
:10254000216D8847F8BD2068006800F4802080B1C4
:102550002068006800F4002028B9606C10B12046A3
:10256000616C88471DE0E06BD8B12046E16B88477D
:1025700017E02068006800F4807068B9206800687F
:1025800020F0100021680860012084F8350000BFA9
:10259000002084F8340000BFE06B10B12046E16BEE
:1025A0008847606D38B3606D00F00100F0B1052020
:1025B00084F835002068006820F001002168086078
:1025C00000BF0098401C0090B84200D905E0206888
:1025D000006800F001000028F3D100BF012084F85A
:1025E000350000BF002084F8340000BFE06C10B15B
:1025F0002046E16C884700BFA4E7000034000020BB
:102600002DE9F0410446002500F0B4F9074614B95D
:102610000120BDE8F081606A00B100BF022084F8AB
:10262000350000BF002084F8340000BF2068006837
:1026300020F00100216808600AE000F09BF9C01B4F
:10264000052805D920206065032084F83500E0E7DF
:102650002068006800F001000028EED120680568BD
:1026600021480540D4E901010843E1680843216994
:10267000084361690843A1690843E1690843216A85
:1026800008430543606A042803D1D4E90B010843D9
:102690000543206805602068456925F00705606AE4
:1026A0000543606A04280DD1A06A0543E06A48B179
:1026B0002046FEF76BFE28B140206065012084F8BB
:1026C0003500A6E7206845612046FEF745FE064630
:1026D00094F85C103F208840B060002060650120C5
:1026E00084F83500002094E73F8010F02DE9F04792
:1026F00004460D4616461F464FF00008D4F8589081
:1027000000BF94F83400012802D10220BDE8F08710
:10271000012084F8340000BF94F83500012825D149
:10272000022084F83500002060653B463246294689
:102730002046FEF780FE94F85C103F208840C9F8E0
:1027400008002068006840F0160021680860206CCE
:1027500028B12068006840F00800216808602068FF
:10276000006840F001002168086006E000BF00201A
:1027700084F8340000BF4FF002084046C6E700006E
:10278000F8B502460B460025002400200021D6E0C3
:10279000012606FA01F51E6806EA0504AC4274D16A
:1027A0001E7906F00306012E04D01E7906F00306FA
:1027B000022E13D190684F000326BE40B0434F0055
:1027C000DE68BE4030439060506801268E40B043C2
:1027D0001E79C6F300168E40304350601E7906F015
:1027E0000306032E09D0D0684F000326BE40B04335
:1027F0004F009E68BE403043D0601E7906F003064D
:10280000022E13D1CF0802F1200656F827004E07FA
:10281000F70E0F26BE40B0434F07FF0E1E69BE40A5
:102820003043CF0802F1200646F8270010684F0019
:102830000326BE40B0431E7906F003064F00BE409B
:10284000304310605E6806F44036002E76D000BF3C
:10285000002600963C4E366846F480463A4F3E606D
:102860003E46366806F48046009600BF00BF374EED
:102870008F0856F827008E07370F0F26BE40B0434B
:10288000334EB24202D1002624E057E0314EB2422C
:1028900001D101261EE0304EB24201D1022619E0DC
:1028A0002E4EB24201D1032614E02D4EB24201D188
:1028B00004260FE02B4EB24201D105260AE02A4E33
:1028C000B24201D1062605E0284EB24201D10726C8
:1028D00000E008268F073F0FBE4030431B4E8F0895
:1028E00046F82700224E3068A0435E6806F4801642
:1028F00006B120431E4E3060361D3068A0435E682E
:1029000006F4001606B12043194E361D3060184EED
:10291000361F3068A0435E6806F4003606B12043D7
:10292000134E361F3060361F3068A0435E6806F4D1
:10293000803606B120430E4E083E3060491C1029F7
:10294000FFF426AFF8BD00004438024008380140CB
:10295000000002400004024000080240000C024057
:10296000001002400014024000180240001C024007
:10297000083C014001480068704700002800002022
:1029800070B504460CB9012070BD94F83D0028B91B
:10299000002084F83C00204600F0DAF8242084F877
:1029A0003D002068006820F0010021680860206870
:1029B000006840F40040216808602068006820F446
:1029C00000402168086000F013FB05465C49606820
:1029D000884206D85B48854201D2012007E00020EA
:1029E00005E05948854201D2012000E0002001287D
:1029F00000D1C9E75548B5FBF0F62068406820F0E3
:102A00003F003043216848604D496068884201D8E2
:102A1000701C07E04FF4967070434FF47A71B0FB6E
:102A2000F1F0401C2168096A21F03F010843216848
:102A3000086243496068884214D8681E616849008A
:102A4000B0FBF1F0401CC0F30B00042801D20420BD
:102A50003DE0681E61684900B0FBF1F0401CC0F326
:102A60000B0034E0A06838B9681E616801EB4101D1
:102A7000B0FBF1F0401C0AE0681E616801EBC10286
:102A800002EB0111B0FBF1F0401C40F48040C0F3B8
:102A90000B0008B901201AE0A06848B9681E6168F7
:102AA00001EB4101B0FBF1F0401CC0F30B000CE066
:102AB000681E616801EBC10202EB0111B0FBF1F08D
:102AC000401CC0F30B0040F4804040F400402168FB
:102AD000C9694CF6FF72914308432168C861D4E983
:102AE000070108432168096821F0C00108432168F3
:102AF0000860D4E9031008432168896848F2FF326E
:102B00009143084321688860D4E90501084321689E
:102B1000C96821F0FF0108432168C8602068006887
:102B200040F001002168086000202064202084F823
:102B30003D000020206384F83E0000BF24E7000031
:102B4000A086010080841E0000093D0040420F0065
:102B500010B586B00446142101A8FDF7E3FE224912
:102B6000206888423ED100BF002000901F480068C6
:102B700040F002001D4908600846006800F00200AD
:102B8000009000BF00BF08150190122002900120A4
:102B90000390032004900420059001A91448FFF736
:102BA000EFFD4FF40060019012200290002003908E
:102BB000032004900420059001A90D48FFF7E0FDD3
:102BC00000BF0020009009481030006840F48000E9
:102BD0000649103108600846006800F48000009043
:102BE00000BF00BF06B010BD0058004030380240A2
:102BF0000004024003480068034909780844014979
:102C000008607047280000203000002010B50D48F3
:102C1000006840F400700B4908600846006840F402
:102C2000806008600846006840F4807008600320F7
:102C300000F0E0F80F2000F007F800F05FF8002047
:102C400010BD0000003C02402DE9F04188B0044670
:102C50000027B84600BF002001902348006840F0DC
:102C60001000214908600846006800F0100001903B
:102C700000BF00BF02A903A800F092F9069F1FB988
:102C800000F0B6F9054602E000F0B2F94500174839
:102C9000B5FBF0F0A0F1010815481649086040F2B4
:102CA000E7311448C160C0F80480002101618160EF
:102CB000816100F065FC064696B90E4800F094FC70
:102CC00006466EB9362000F043F8102C07D20022D9
:102CD0002146362000F050F80748046000E0012645
:102CE000304608B0BDE8F0814038024040420F0055
:102CF00000100040180D00202C00002008B500BF77
:102D0000002000901148006840F480400F4908609E
:102D10000846006800F48040009000BF00BF00BF7C
:102D200000200090081F006840F08050091F0860D4
:102D30000846006800F08050009000BF00BF0022ED
:102D40000F21901E00F018F808BD00004438024022
:102D50000146084600280DDB00BF00BF00F01F033E
:102D600001229A4043099B0003F1E023C3F80021AC
:102D700000BF00BF00BF70472DE9F05F80460D46E1
:102D80001646002704F0B8FD074639462A46334662
:102D900001F00700C0F1070ABAF1040F02D94FF0A1
:102DA000040A01E0C0F1070AD14600F1040ABAF1B1
:102DB000070F02D24FF0000A01E0A0F1030AD44647
:102DC0004FF0010A0AFA09FAAAF1010A0AEA020A0C
:102DD0000AFA0CFA4FF0010B0BFA0CFBABF1010BEA
:102DE0000BEA030B4AEA0B042146404604F08CFD33
:102DF000BDE8F09F00BF00F00702064B19684FF6D0
:102E0000FF031940044B0B4343EA0221014B1960B5
:102E100000BF70470CED00E00000FA0570B50446F5
:102E20000D460CB9012070BD5848006800F007003D
:102E3000A84209D255490D700846006800F0070005
:102E4000A84201D00120EEE7207800F0020002281D
:102E50001DD1207800F00400042805D14C480068FA
:102E600040F4E0504A490860207800F00800082843
:102E700005D14748006840F460404549086044482F
:102E8000006820F0F000A1680843414908602078FC
:102E900000F00100A8B36068012807D13C48083859
:102EA0000068C0F34040B8B90120BCE76068022860
:102EB00002D06068032807D1354808380068C0F39D
:102EC000406048B90120AEE7314808380068C0F3D7
:102ED000400008B90120A6E72D48006820F0030053
:102EE000616808432A490860FFF744FD064609E087
:102EF000FFF740FD801B41F28831884202D9032050
:102F000091E707E02248006800F00C006168B0EB30
:102F1000810FEDD11D48006800F00700A84209D9D3
:102F20001A490D700846006800F00700A84201D059
:102F3000012078E7207800F00400042807D1144825
:102F4000006820F4E050E1680843114908602078E7
:102F500000F00800082808D10D48006820F46040FF
:102F6000216940EAC1000A49086000F061F8084997
:102F70000968C1F30311074A515CC840064908605B
:102F800006480068FFF760FE00204CE7003C024066
:102F90000838024024C30008340000202C00002020
:102FA0000F2202600D4A126802F0030242600B4ACF
:102FB000126802F0F0028260084A126802F4E052DD
:102FC000C260064A126802F46042D2080261044AF2
:102FD000126802F007020A607047000008380240D9
:102FE000003C0240014800687047000034000020A7
:102FF00000B5FFF7F7FF04490968C1F38221034ACE
:10300000515CC84000BD00000838024034C30008CD
:1030100000B5FFF7E7FF04490968C1F34231034AED
:10302000515CC84000BD00000838024034C30008AD
:103030002DE9F047002400250026A1462548006818
:1030400000F00C0020B1042805D008283AD105E092
:10305000DFF8849039E0DFF8849036E01D48001FE7
:10306000006800F03F041B48001F006800F4800067
:1030700078B11A481749091F0968C1F38811A0FBE4
:1030800001700146224600233846FDF7D1F9054676
:103090000EE011480F49091F0968C1F38811A0FB10
:1030A00001700146224600233846FDF7C1F9054666
:1030B0000848001F0068C0F30140401C4600B5FBF3
:1030C000F6F902E0DFF8109000BF00BF4846BDE807
:1030D000F0870000083802400024F40040787D01A9
:1030E000F8B504460CB90120F8BD207800F00100C5
:1030F000002874D0F948006800F00C0004280DD0B6
:10310000F648006800F00C00082813D1F348001FAF
:10311000006800F48000B0F5800F0BD1EF4808384C
:103120000068C0F34040002859D06068002856D19C
:103130000120D9E700BF6068B0F5803F08D1E748BB
:103140000838006840F48030E449083908601EE01F
:103150006068B0F5A02F0DD1E0480838006840F451
:103160008020DE49083908600846006840F4803055
:1031700008600CE0D9480838006820F48030D7494E
:10318000083908600846006820F48020086000BF05
:10319000606890B1FFF7EEFB054606E0FFF7EAFB3B
:1031A000401B642801D903209EE7CC4808380068FA
:1031B000C0F340400028F1D011E0FFF7DBFB0546EB
:1031C00006E0FFF7D7FB401B642801D903208BE7FB
:1031D000C24808380068C0F340400028F1D1207888
:1031E00000F0020002285FD1BC48006800F00C002B
:1031F00058B1BA48006800F00C0008281CD1B74844
:10320000001F006800F48000B0B9B44808380068B6
:10321000C0F3400020B1E068012801D0012063E73D
:10322000AE480838006820F0F800216940EAC10083
:10323000AA490839086037E0E06800B30120A849CE
:103240000860FFF797FB054606E0FFF793FB401B7E
:10325000022801D9032047E7A04808380068C0F3D6
:1032600040000028F1D09D480838006820F0F800A0
:10327000216940EAC10099490839086014E000203A
:1032800097490860FFF776FB054606E0FFF772FBFB
:10329000401B022801D9032026E79048083800681F
:1032A000C0F340000028F1D1207800F00800082881
:1032B0002CD16069A8B101208A490860FFF75AFB48
:1032C000054606E0FFF756FB401B022801D9032004
:1032D0000AE782486C300068C0F340000028F1D053
:1032E00014E000207F490860FFF744FB054606E034
:1032F000FFF740FB401B022801D90320F4E6774882
:103300006C300068C0F340000028F1D1207800F054
:103310000400042870D1002770483830006800F09D
:10332000805090B900BF002000906C483830006891
:1033300040F080506949383108600846006800F064
:103340008050009000BF00BF01276748006800F46C
:103350008070B0B96448006840F4807062490860C9
:10336000FFF708FB054606E0FFF704FB401B0228B9
:1033700001D90320B8E65C48006800F4807000289A
:10338000F2D000BFA068012808D154486830006816
:1033900040F001005149683108601DE0A06805282F
:1033A0000DD14E486830006840F004004B49683148
:1033B00008600846006840F0010008600CE04748DB
:1033C0006830006820F00100444968310860084610
:1033D000006820F00400086000BFA068A8B1FFF7F3
:1033E000C9FA054609E0FFF7C5FA401B41F28831EA
:1033F000884202D9032077E626E038486830006822
:10340000C0F340000028EED013E0FFF7B3FA054602
:1034100008E0FFF7AFFA401B41F28831884201D93A
:10342000032061E62D4868300068C0F340000028A2
:10343000EFD1012F07D129483830006820F08050A3
:1034400026493831086000BFA069002845D02348CC
:10345000006800F00C0008285DD0A069022845D162
:1034600000201F490866FFF785FA054606E0FFF7CA
:1034700081FA401B022801D9032035E61748083895
:103480000068C0F340600028F1D1D4E90701084387
:10349000616A40EA81110122A06AC2EB500041EA50
:1034A00000412C20005D41EA00600C49091F0860C2
:1034B00001200B490866FFF75DFA054606E0FFF7B5
:1034C00059FA401B022801D903200DE603480838A9
:1034D0000068C0F340600028F1D049E0083802409D
:1034E00000004742800E4742007000400020214902
:1034F0000866FFF73FFA054606E0FFF73BFA401B78
:10350000022801D90320EFE51B480068C0F34060A2
:103510000028F2D12CE0A069012800D1E4E516488A
:10352000001D0668A069012820D006F48001E0692A
:1035300081421BD106F03F01206A814216D147F635
:10354000C0703040616AB0EB811F0FD106F440318A
:103550000122A06AC2EB5000B1EB004F06D106F089
:1035600070612C20005DB1EB006F01D00120BBE544
:103570000020B9E50000474200380240704770471C
:1035800010B504460CB9012010BD94F83D0028B9CF
:10359000002084F83C00204600F025F8022084F842
:1035A0003D00211D206803F0A7FB012084F84600A0
:1035B00000BF84F83E0001213F2001554020015505
:1035C0004120015500BF00BF012084F84200432084
:1035D0000155442001554520015500BF012084F8C4
:1035E0003D000020D0E77047014691F83D000128DA
:1035F00001D001207047022081F83D000868C068B2
:1036000040F001000B68D8601A4B086898421BD044
:103610000868B0F1804F17D0174B0868984213D054
:10362000164B086898420FD0154B086898420BD08B
:10363000144B0868984207D0134B0868984203D08F
:10364000124B086898420CD10868806800F00702A5
:10365000062A0CD00868006840F001000B6818606A
:1036600005E00868006840F001000B681860002061
:10367000C0E70000000001400004004000080040D6
:10368000000C0040000401400040014000180040D0
:10369000704770B504462068C5682068066906F062
:1036A0000200022819D105F00200022815D1401F9E
:1036B00021680861012020772068806900F00300FC
:1036C00018B12046FFF7E4FF05E0204600F097F828
:1036D000204600F095F80020207706F0040004282A
:1036E00019D105F00400042815D1C04321680861F0
:1036F000022020772068806900F4407018B12046CD
:10370000FFF7C6FF05E0204600F079F8204600F0FC
:1037100077F80020207706F00800082819D105F076
:103720000800082815D1C0432168086104202077CB
:103730002068C06900F0030018B12046FFF7A8FF19
:1037400005E0204600F05BF8204600F059F8002024
:10375000207706F01000102819D105F0100010286D
:1037600015D1C04321680861082020772068C0690E
:1037700000F4407018B12046FFF78AFF05E02046AC
:1037800000F03DF8204600F03BF80020207706F0DE
:10379000010048B105F0010030B16FF0010021686F
:1037A0000861204600F02EF806F08000802809D13C
:1037B00005F08000802805D1C043216808612046BB
:1037C000FFF7DCFE06F04000402809D105F040007C
:1037D000402805D1C04321680861204600F01EF84A
:1037E00006F02000202809D105F02000202805D16E
:1037F000C043216808612046FFF7C1FE70BD7047D5
:103800007047000010B5044603492068884201D182
:10381000FFF7F0F910BD000000100040704770473E
:10382000704700002DE9F84F0446206805682068BD
:10383000C668206847694FF00009CA4605F00F09BD
:10384000B9F1000F0AD105F0200038B106F02000D0
:1038500020B1204603F087FBBDE8F88FB9F1000FD7
:103860007CD007F0010018B906F49070002875D0DC
:1038700005F0010030B106F4807018B1606C40F0C2
:103880000100606405F0040030B107F0010018B1D8
:10389000606C40F00200606405F0020030B107F097
:1038A000010018B1606C40F00400606405F008008D
:1038B00048B106F0200010B907F0010018B1606CA3
:1038C00040F008006064606C002846D005F02000DD
:1038D00028B106F0200010B1204603F044FB206818
:1038E0004069C0F3801A606C00F0080010B9BAF1AA
:1038F000000F2DD0204603F0DDFA2068406900F06B
:103900004000402820D100BF00BF2168143151E899
:10391000001F21F040002168143141E80002002A14
:10392000F3D100BFE06B50B17F48E16B0865E06BFD
:10393000FEF732FD88B1E06B016D88470DE020464F
:10394000FFF76EFF09E009E02046FFF769FF04E09A
:103950002046FFF765FF002060647DE7206B0128AB
:1039600078D105F01000002874D006F0100000286F
:10397000FAD000BF00200090206800680090206806
:103980004068009000BF00BF2068406900F0400020
:10399000402870D1E06B006840681FFA80F8B8F1E9
:1039A000000F58D0A08D404555DDA4F82E80E06B67
:1039B000C069B0F5807F43D000BF00BF21680C31E3
:1039C00051E8001F21F4807021680C3141E80002A9
:1039D000002AF3D100BF00BF00BF2168143151E8B5
:1039E000001F21F001002168143141E80002002A83
:1039F000F3D100BF00BF00BF2168143151E8001FA0
:103A000021F040002168143141E80002002AF3D17E
:103A100000BF202084F842000020206300BF00BFC8
:103A200021680C3151E8001F21F0100021680C3191
:103A300041E80002002AF3D100BFE06BFEF756FC1C
:103A400002206063A08DE28D801A81B22046FFF7CC
:103A5000E6FE0EE052E0A08D40450AD1E06BC06961
:103A6000B0F5807F05D102206063A18D2046FFF76D
:103A7000D6FEF1E6FFE7A08DE18D401A1FFA80F82F
:103A8000E08DD0B3B8F1000F37D000BF00BF216880
:103A90000C3151E8001F21F4907021680C3141E88D
:103AA0000002002AF3D100BF00BF00BF216814311B
:103AB00051E8001F21F001002168143141E80002A3
:103AC000002AF3D100BF202084F8420000202063A8
:103AD00000BF00BF21680C3151E8001F21F0100029
:103AE00021680C3141E80002002AF3D100BF022016
:103AF000606341462046FFF792FEADE605F0800088
:103B000030B106F0800018B1204603F0C1FBA3E6F7
:103B100005F0400030B106F0400018B1204603F037
:103B2000FFF999E600BF97E6ED6D000810B5044671
:103B30000CB9012010BDA06900B100E000BF94F8ED
:103B4000410028B9002084F84000204600F02AF8FF
:103B5000242084F841002068C06820F400502168C7
:103B6000C860204603F07EFA2068006920F4904087
:103B7000216808612068406920F02A0021684861B6
:103B80002068C06840F400502168C860002060646C
:103B9000202084F8410084F842000020606300BFC8
:103BA000C8E7000010B586B00446142101A8FCF750
:103BB000B9FE7049206888427BD100BF0020009088
:103BC0006D48006840F400206B49086008460068B2
:103BD00000F40020009000BF00BF00BF0020009054
:103BE00065481038006840F00400634910390860E7
:103BF0000846006800F00400009000BF00BF4FF4CA
:103C00004060019002200290002003900320049065
:103C10000820059001A95948FEF7B2FD58485949B6
:103C2000086040054860002156488160C1604FF43B
:103C300080610161002141618161C1614FF4003106
:103C4000016200214162FEF7DBFC08B1FDF77DFC5B
:103C500000BF4C48E063846300BF494830304A49A4
:103C600008604FF0006048604021474881600021B3
:103C7000C1604FF480610161002141618161C161D6
:103C80004FF44031016200214162FEF7B9FC08B1F6
:103C9000FDF75BFC00BF3C48A063846300BF0022CB
:103CA00005213420FFF768F83420FFF751F85EE073
:103CB000FFE736492068884259D100BF00200090B4
:103CC0002D48006840F400302B4908600846006821
:103CD00000F40030009000BF00BF00BF0020009043
:103CE00025481038006840F0010023491039086069
:103CF0000846006800F00100009000BF00BF0C20E3
:103D000001900220029000200390032004900720DD
:103D1000059001A91E48FEF733FD194860301D4982
:103D200008604FF00060486040211A48816000211F
:103D3000C1604FF480610161002141618161C16115
:103D40004FF44031016200214162FEF759FC08B195
:103D5000FDF7FBFB00BF0F48A063846300BF002298
:103D600005212620FFF708F82620FEF7F1FF06B010
:103D700010BD0000004C00404038024000080240E6
:103D800040600240F80B0020580C00200044004026
:103D900000000240B80C002070470000F7B5044650
:103DA000154694F8410020283ED1019800B10DB984
:103DB0000120FEBD01982062A584E5840020606496
:103DC000212084F841001948A16BC8631848A16BF1
:103DD00008641848A16BC8640020A16B086501AE97
:103DE00023681A1D31682B46A06BFEF77FFC30B1AB
:103DF00010206064202084F841000120D9E76FF092
:103E000040002168086000BF00BF2168143151E8FC
:103E1000001F41F080002168143141E80002002AAF
:103E2000F3D100BF0020C4E70220C2E74F6E0008B4
:103E3000A76E0008FF6D00087047704700BFFEE7DF
:103E4000154890F83001022814D11448008900B2B6
:103E5000134988821348408900B208830846B0F9A4
:103E60001400B1F91810401A0A2190FBF1F000B2C9
:103E70000B4988830A48806809490969884206DD38
:103E800001200749887708468068086102E0002021
:103E900003498877704700002CAB00209FAC0020BE
:103EA000F4AA0020ACAC002010B5044694F8943D70
:103EB0000122042104F6AC4001F020F910BDD0E944
:103EC0000112914202D10021017401E08168416038
:103ED000704710B52DED028B0446B0EE408A04F118
:103EE0000800FDF7D7FA84ED030A94ED030AB4EE57
:103EF000C80AF1EE10FA05DD608A401C60820120DC
:103F0000207404E02088401C208002202074BDEC36
:103F1000028B10BD70B52DED048B05460C46164680
:103F2000B0EE408A06BBB5F9020000EE100AB8EE0A
:103F3000C00AF1EE080A20EE200AF0EE408AF0EE08
:103F4000480AB0EE680A04F1180004F0C1FDB5F9A2
:103F5000040000EE100AB8EEC00ADFED630A80EE3E
:103F6000201A84ED071ABCE0012E24D1B5F9020015
:103F700000EE100AB8EEC00AF1EE080A20EE200AA0
:103F8000F2EE0E0A80EE201AF0EE418AF0EE480AB8
:103F9000B0EE680A04F1180004F09AFDB5F90400C7
:103FA00000EE100AB8EEC00ADFED4F0A80EE201ACC
:103FB00084ED071A95E0032E35D1B5F9000000EE27
:103FC000100AB8EEC00ADFED490A20EE200AF0EE32
:103FD000408AB5F9020000EE100AB8EEC00AF1EE10
:103FE000080A20EE200AB0EE409AF0EE480AB0EE41
:103FF000490A04F1180004F06BFDDFED3D0AB0EE54
:10400000680A204603F01EFC84ED050AB5F9040099
:1040100000EE100AB8EEC00ADFED330A80EE201A77
:1040200084ED071A5DE0022E3DD1B5F9000000EEE7
:10403000100AB8EEC00ADFED2D0A20EE200AF0EEDD
:10404000408AB5F9020000EE100AB8EEC00AF1EE9F
:10405000080A20EE200AF2EE0E0A80EE201AB0EED8
:10406000419AF0EE480AB0EE490A04F1180004F053
:104070002FFDDFED1F0AB0EE680A204603F0E2FBD9
:10408000F2EE0E0A80EE201A84ED051AB5F904004E
:1040900000EE100AB8EEC00ADFED130A80EE201A17
:1040A00084ED071A1DE0042E1BD1B5F9020000EEC5
:1040B000100AB8EEC00AF1EE080A20EE200AF2EE6D
:1040C0000E0A80EE201A84ED061AB5F9040000EEFF
:1040D000100AB8EEC00ADFED040A80EE201A84ED63
:1040E000071ABDEC048B70BDCDCC4C44FFFF333DB3
:1040F0000000B443F0B50446012B1BD1DFED2F0ABD
:10410000B4EEE00AF1EE10FA02D8DFED2C0A0BE073
:10411000DFED2B0AB4EEE00AF1EE10FA02DBDFED80
:10412000280A01E0F0EE400AFDEEE00A10EE905A97
:1041300028B223E00BBBBBEE021AB4EEC10AF1EECB
:1041400010FA02D8BBEE021A0BE0B3EE021AB4EE7C
:10415000C10AF1EE10FA02DBB3EE021A01E0B0EE92
:10416000401AF0EE410A9FED171A20EE811ABDEEBB
:10417000C11A11EE105A28B200E00020B1F5007FFC
:104180000BD1012A19DB042A17DC561E7500C0F377
:10419000072666556E1CA0550FE040F2FF15A94298
:1041A0000BD1052A09DB082A07DC561F7500C0F36E
:1041B000072666556E1CA05500BFF0BD00007AC6EC
:1041C00000007A46CDCC4C4410B510481049086028
:1041D0000320486000210E488160C1604FF4202117
:1041E00001614FF480114161002101760121417686
:1041F000002181760121C176002101774177FDF709
:1042000065FE08B1FDF7A1F910BD00000064004093
:10421000C40A002010B51048104908600620486004
:1042200000210E488160C1604FF4403101614FF4BC
:1042300080114161002101760121417600218176C2
:104240000121C176002101774177FDF73FFE08B1DA
:10425000FDF77BF910BD000000680040EC0A00206B
:1042600010B50548054908600846FEF714F808B17E
:10427000FDF76BF910BD0000003002402000002067
:1042800008B500BF002000901248006840F40010FC
:10429000104908600846006800F40010009000BF54
:1042A00000BF002205210D20FEF766FD0D20FEF760
:1042B0004FFD002205210F20FEF75EFD0F20FEF7C7
:1042C00047FD002205211120FEF756FD1120FEF7C3
:1042D0003FFD08BD3038024000B5B1B01C222A496C
:1042E0002AA8FCF7C3FA00212AA804F074FF274982
:1042F00008601C2224491C3123A8FCF7B7FA0021CE
:1043000023A804F068FF224908601C221E493831A6
:104310001CA8FCF7ABFA00211CA804F05CFF1D49A7
:1043200008601C221849543115A8FCF79FFA002197
:1043300015A804F050FF184908601C22124970317A
:104340000EA8FCF793FA00210EA804F044FF1349CD
:1043500008601C220C498C3107A8FCF787FA002161
:1043600007A804F038FF0E4908601C220649A8314E
:104370006846FCF77BFA0021684604F02CFF0949E7
:10438000086031B000BD000058C2000800000020E5
:1043900004000020080000200C0000201000002075
:1043A000140000201800002008B500BF0020009075
:1043B0001D48006840F080001B49086008460068FE
:1043C00000F08000009000BF00BF00BF0020009000
:1043D0000846006840F0010008600846006800F0E8
:1043E0000100009000BF00BF00BF00200090084601
:1043F000006840F0020008600846006800F0020013
:10440000009000BF00BF00BF002000900846006879
:1044100040F0040008600846006800F004000090C6
:1044200000BF00BF08BD00003038024010B50B4887
:104430000B4908600B484860002109488160C16051
:104440004FF480410161002141618161C1610162DC
:10445000FEF796FA08B1FDF778F810BD0058004055
:10446000140B0020A086010010B50B480B49086012
:104470004FF4E1304860002108488160C16001616B
:104480000C21416100218161C161FFF74FFB08B13F
:10449000FDF75BF810BD0000004C0040680B0020E9
:1044A00010B50B480B4908604FF4E130486000211B
:1044B00008488160C16001610C2141610021816176
:1044C000C161FFF733FB08B1FDF73FF810BD0000F5
:1044D00000440040B00B002000BFFEE700BFFEE735
:1044E000014890F821007047D0AA002010B52DEDAA
:1044F000028B0446FCB99FED9A0A9A4880ED000AA7
:104500009FED970A80ED010A9FED950A80ED020A62
:104510009FED930A80ED050A9FED910A80ED060A52
:104520000020904981F8200081F8210081F82200C4
:10453000BDEC028B10BD8C48008800EE100AB8EE6E
:10454000400ADFED8A0A80EE201A864880ED001AC4
:104550008548B0F9020000EE100AB8EEC00ADFED9F
:10456000830A80EE201A7F4880ED051A7E488088F5
:1045700000EE100AB8EE400ADFED7C0A80EE201A49
:10458000784880ED061A7A4800687649C8610120AB
:1045900081F82200084690ED000ADFED760AB4EEBD
:1045A000E00AF1EE10FA17DD9FED6D0A80ED010AC9
:1045B0009FED6B0A80ED020A9FED690A80ED050A06
:1045C0009FED670A80ED060A002081F8200081F83F
:1045D000210081F82200ABE7624890ED000AF6EE78
:1045E000000A20EE200AD0ED000A20EE200ADFEDBE
:1045F000620A20EE200A80ED010A90ED030AD0ED58
:10460000040A30EE608AB5EEC08AF1EE10FA15DDCC
:1046100090ED010AD0ED040A30EE600AC0EE080AFF
:10462000F0EE608AB7EE001ADFED4D0AB0EE680AD0
:1046300003F043FE4B4880ED020A04E09FED480A78
:10464000484880ED020A474890F8210070B145487B
:1046500090ED000AF3EE040AB4EEE00AF1EE10FA6F
:1046600012D200203F4981F821000DE03D4890ED35
:10467000000AF3EE060AB4EEE00AF1EE10FA03DDEA
:104680000120384981F82100364890F8200020B1F7
:10469000012820D002285AD13BE0324890ED000A90
:1046A000F3EE0A0AB4EEE00AF1EE10FA04DD02209D
:1046B0002C4981F820000DE02A4890ED000AF3EE25
:1046C000070AB4EEE00AF1EE10FA03DD01202549F5
:1046D00081F8200040E0234890ED000AF3EE0A0A3A
:1046E000B4EEE00AF1EE10FA04DD02201D4981F873
:1046F00020000DE01B4890ED000AF3EE040AB4EE32
:10470000E00AF1EE10FA03D20020164981F82000E9
:1047100022E0144890ED000AF3EE040AB4EEE00A39
:10472000F1EE10FA04D200200E4981F820000DE0CD
:104730000C4890ED000AF3EE070AB4EEE00AF1EE41
:1047400010FA03D20120074981F8200004E000207C
:10475000044981F8200000BF00BF00BFE8E6000068
:1047600000000000D0AA0020240100200000C84260
:104770002C01002000000442AE479140B0EE401AE8
:10478000816891ED010A6E4981ED000A00211AE06D
:104790004A1C836803EB820292ED000A684AD2ED5C
:1047A000001A30EE610A03EB810282ED000A4A1C16
:1047B000C36803EB820292ED000A03EB810282EDF3
:1047C000000A4A1C91B20288521E8A42E0DC01882B
:1047D000891E826802EB810191ED000A30EE010A28
:1047E0000188491E02EB810181ED000A0188491E02
:1047F000C26802EB8101C1ED000A02884168914262
:1048000002D24168491C41600021C16101624162DC
:10481000816202888388D21A91B237E0826802EB03
:104820008102D2ED001A826802EB810292ED002A29
:1048300090ED070A01EE820A80ED070A826802EB1A
:10484000810292ED000AD0ED081A30EE210A80EDC7
:10485000080A826802EB8102D2ED001AC26802EBFC
:10486000810292ED002A90ED090A01EE820A80EDA4
:10487000090AC26802EB810292ED000AD0ED0A1A21
:1048800030EE210A80ED0A0A4A1C91B202888A425F
:10489000C4DCD0ED091A018800EE101AB8EE400A07
:1048A00021EE800AD0ED081A90ED0A2A01EEC20A24
:1048B00090ED072A01EE901AF8EE611A62EE211AC5
:1048C00090ED082AD0ED082A42EE621A80EE212AE5
:1048D00080ED042A9FED1B0A80ED060A028883887A
:1048E000D21A91B21BE0826802EB8102D2ED001A6B
:1048F00090ED050A90ED042A02EE210AC26802EB4F
:104900008102D2ED001A30EE610AB0EEC00AD0ED9D
:10491000061A30EE210A80ED060A4A1C91B202887E
:104920008A42E0DCD0ED061A018800EE101AB8EEDB
:10493000400A81EE802A80ED062A90ED040A704735
:10494000C40300200000000070B504460D46258019
:1049500000206060A800FBF715FDA060A800FBF731
:1049600011FDE0609FED0A0A84ED040A9FED080A3C
:1049700084ED050AA900A068FBF7D4FFA900E06850
:10498000FBF7D0FF0020E06120626062A06270BD92
:104990000000000008B54FF47A7005F083FE06F0C1
:1049A00095FD009031E0002407E004EB4402174934
:1049B00001EBC200FFF783FA641C042CF5DB002432
:1049C00008E004EB44021149603101EBC200FFF73B
:1049D00076FA641C042CF4DB002408E004EB4401A8
:1049E0000A4A303A02EBC100FFF769FA641C022C54
:1049F000F4DB0648C030FFF762FA0448F030FFF7F6
:104A00005EFAC821684605F07BFECCE75CAB00206F
:104A100010B52DED028B0446B0EE408AF0EE608AB0
:104A200094F89C0000F0800010B1204603F09AFE3C
:104A300004F19000FCF72EFD84ED250A84ED048A34
:104A4000C4ED008A94ED000AD4ED040A30EE600A49
:104A500084ED060AD4F8B00018B12046D4F8B0109E
:104A6000884794ED060AB5EEC00AF1EE10FA02DDB1
:104A700094ED060A03E094ED060AB1EE400AD4ED87
:104A8000120AB4EEE00AF1EE10FA7BDDD4F89800D9
:104A9000D8BB94ED010AD4ED060A20EE200A84ED7D
:104AA000090A94ED020AD4ED060A20EE200AD4ED9C
:104AB000250A20EE200A84ED0C0AB4F860000228D2
:104AC00012DD94ED061AF0EE410A94ED251AB0EECF
:104AD000410A04F16400FFF751FED4ED030A20EE11
:104AE000200A84ED0B0A64E094ED060AD4ED070A6F
:104AF00030EE600AD4ED030A20EE200AD4ED250A38
:104B000080EE201A84ED0B1A53E0FFE7243414EDF5
:104B1000080A606FD0ED000A30EE200A54ED030A57
:104B200020EE200A84ED000A14ED070A606FD0ED34
:104B3000010A30EE200A54ED030A20EE200AD4EDDB
:104B40001C0A20EE200A84ED030AA08F243C0228D0
:104B500019DD94ED061AF0EE410A94ED251AB0EE37
:104B6000410A04F16400FFF709FED4ED030AD4F80A
:104B7000980090ED021A70EE810A20EE200A84ED72
:104B80000B0A16E066E094ED030AD4F89800D0ED25
:104B9000020A30EE200AD4ED060A94ED071A70EEF0
:104BA000C10A20EE200AD4ED250A80EE201A84EDF9
:104BB0000B1AD4F8B40018B12046D4F8B4108847C2
:104BC00094F89C0000F0040010B1204603F03BFE76
:104BD00094F89C0000F0200010B1204603F02EFC59
:104BE00094F89C0000F0020010B1204603F0ABFCEA
:104BF00094F89C0000F0400010B1204603F082FCC5
:104C000094F89C0000F0010010B1204603F000FD74
:104C100094ED0A0AD4ED0C0A30EE200A84ED0A0A5B
:104C200094ED090AD4ED0A0A30EE200AD4ED0B0AFD
:104C300030EE200A84ED0D0A94F89C0000F010007C
:104C400010B1204603F04EFD204603F06CFD2046D7
:104C500003F0DAFD94ED040A84ED050A94ED0D0AE3
:104C600084ED0E0A94ED0B0A84ED0F0A94ED060A0A
:104C700084ED070A94ED0C0A84ED080A94ED0D0A00
:104C8000BDEC028B10BD000070B52DED0A8B044603
:104C9000B0EE408AF0EE608AB0EE419AF0EE619A92
:104CA000B0EE42AAF0EE62AAB0EE43BAF0EE63BAFA
:104CB000B0EE44CAF0EE64CA0D46164684ED129A70
:104CC000C4ED118A84ED108A9FED170A84ED000A65
:104CD000C4ED019A84ED02AAC4ED03AA9FED120A65
:104CE00084ED0C0A84ED14BAC4ED15BA84ED16CA2D
:104CF000C4ED17CAA4F86050294604F16400FFF718
:104D000023FE04F19000FCF7C5FB04F89C6F002122
:104D10006160A1609C3CA82001559FED030A84EDD1
:104D20000D0ABDEC0A8B70BD0000000008B5002420
:104D3000FCF77CFAFCF7D2FA06F0C8FB00902EE0F4
:104D4000174890F83001022801D1012000E000202E
:104D50000646134890F80001022801D1012000E026
:104D600000200546304602F0B5FC2846FFF7BEFBA2
:104D70000C48457564B9D0ED000AB0EE600A0A48E7
:104D800001F084FD0823502207490848FCF736FA51
:104D9000601C00F003040121684605F0B1FCCFE778
:104DA0002CAB002014AB00201C010020C40A002002
:104DB00070B52DED088B0446B0EE408A9FEDCC0A0D
:104DC000F0EE409A9FEDCA0AB0EE409A9FEDC80AF5
:104DD000B0EE40AA14B9BDEC088B70BDB0EE480A25
:104DE00003F0FCFD20B1B5EEC08AF1EE10FA03D25B
:104DF0009FEDBF0AB0EE408A84ED208A9FEDBC0A89
:104E000084ED1E0AF0EE488A00258EE09FEDB80A78
:104E100004F1540000EB850080ED000A9FEDB40A18
:104E200004F1640000EB850080ED000A002104F12C
:104E3000740041553438405D40B99FEDAD0A04F12E
:104E4000440000EB850080ED000A6CE004F11000E6
:104E500000EB8500D0ED000AB0EE600A294620463E
:104E600004F0E8F904F1440000EB850080ED000A4D
:104E700004F1440000EB8500D0ED000AB0EE600ABA
:104E800003F0ACFD60B99FED9A0A04F1440000EB19
:104E9000850080ED000A042104F17400415542E0D0
:104EA00094ED1E0A04F1440000EB8500D0ED000AE9
:104EB00030EE200A84ED1E0A04F1440000EB850068
:104EC00090ED000ADFED8B0AB4EEE00AF1EE10FA85
:104ED0000ED804F1440000EB850090ED000A38EE96
:104EE000C00AF0EE408A012104F17400415519E036
:104EF00004F1440000EB850090ED000A30EE290A31
:104F0000F0EE409A04F1300000EB850090ED000ACD
:104F1000B0EEC00A30EE090AB0EE409A022104F168
:104F20007400415500BF681CC5B294F8E000A84267
:104F30003FF76CAF94ED1E0AB4EEC80AF1EE10FA1A
:104F40002CD8002522E004F14000405DE0B104F1DE
:104F50007400405D042817D0B7EE000A04F1640025
:104F600000EB850080ED000A04F1440000EB8500B1
:104F700090ED000A04F1540000EB850080ED000A7A
:104F8000032104F174004155681CC5B294F8E00097
:104F9000A842D8DC204605F097F91CE79FED561A89
:104FA000DFED530AB0EE680A03F072F9F0EE408AC2
:104FB00094F8E200012813D1B2EE0E0A39EE400A4D
:104FC000F1EE040A80EE201AF0EE41AAB7EE001AC4
:104FD000DFED470AB0EE6A0A03F05AF9B0EE40AAD4
:104FE00000257BE004F14000405D00B974E004F16D
:104FF0007400405D012814D104F1440000EB8500E9
:1050000090ED000A04F1540000EB850080ED000AE9
:10501000B7EE000A04F1640000EB850080ED000AA1
:105020005AE004F17400405D022806D19FED310A78
:10503000F4EEC09AF1EE10FA0BD8042104F17400DA
:1050400041559FED2B0A103800EB850080ED000ADA
:1050500042E004F1440000EB850090ED000AC0EE50
:1050600029AA9FED240AB4EEC09AF1EE10FA0ADDE7
:1050700004F1300000EB850090ED000AF0EEC00A6C
:1050800080EE890A01E0B0EE6A0AF0EE40BA2AEE3C
:105090002B0AF7EE000A70EECA0AB0EE40BA00EE34
:1050A000AABA2BEE280A04F1540000EB850080ED2B
:1050B000000A04F1540000EB8500D0ED000AB0EEC8
:1050C000600A2946204604F0AFFF04F1640000EBBB
:1050D000850080ED000A00BF681CC5B294F8E000AE
:1050E000A8423FF77FAF204605F0EEF800BF72E61A
:1050F00000000000BD378635FFFF7F7F2DE9F041BE
:1051000004460D4616461F460CB9BDE8F081E42161
:105110002046FBF707FCB1EE001AF7EE000A00EE9E
:10512000105AB8EE400A03F0B3F8BCEEC00A10EE15
:10513000100A04F8E00F6670A7709FED0B0A04EDEB
:10514000170AE03C9FED090A84ED220A9FED080A48
:1051500084ED230A9FED070A84ED240A204604F01B
:1051600069FE00BFD1E7000018E6FE3DBCA6CD3DBC
:105170009A99993E9A99193F2DE9F0412DED108B9E
:105180008CB00446B0EE408A0E4690469FEDFD0A74
:10519000F0EE408A9FEDFB0AB0EE409A9FEDF90ACF
:1051A000B0EE40AA002714B194F8DE0020B90CB08C
:1051B000BDEC108BBDE8F081B8F1000F03D10021E8
:1051C00084F8DD10F3E7D0200059B04200D1EEE7BB
:1051D000002184F8DD10D020065100254AE004F1BA
:1051E000200000EB850090ED000AF0EE409A04EB01
:1051F000850090ED000AB0EE40BA04F14000405D39
:1052000048B1B0EE690A03F0E9FB20B1B0EE4B0AF9
:1052100003F0E4FB28B9D8200059401CD8210851DC
:10522000C5E794ED230A20EE0B0A60EE29BAB8EE2A
:10523000000AF4EEC0BAF1EE10FA05D2D8200059F7
:10524000401CD8210851B2E7B0EE680A09EEA90A5D
:10525000F0EE408AB0EECB0A30EE090AB0EE409A8A
:10526000B0EE4A0A0BEE290AB0EE40AA781CC7B28B
:10527000681CC5B294F8E000A842B0DCD4ED240A62
:1052800000EE107AB8EE400A20EE80DA94ED250A9E
:1052900020EE280AD4ED230A00EE8A0AD4ED260A6D
:1052A00000EE890A70EE0DDA84ED278AC4ED28DA63
:1052B00038EE6D0A84ED290AC4ED2A8A84ED2BAA02
:1052C00084ED2C9AB0EE480A03F088FB30B1B1EEC1
:1052D000040AB4EEC08AF1EE10FA05D2D8200059C3
:1052E000401CD821085162E7D4ED230AB0EE480AE9
:1052F00000EECA0A70EE4DAAB0EE6A0A03F06EFB29
:1053000090B1F5EEC0AAF1EE10FA0DD99FED9E0A0C
:10531000F4EEC08AF1EE10FA0CD89FED9B0AB4EEC1
:10532000C09AF1EE10FA05D8D8200059401CD821B7
:1053300008513CE7B6EE000A28EE000AF0EE400AFB
:10534000B3EE040A02F001FBB0EE40EAD4200059AB
:105350000A280ED394ED290AB0EEC00AB4EECE0AA4
:10536000F1EE10FA05DDD8200059401CD821085173
:105370001DE7012184F8DD1094ED310A30EE280A92
:1053800084ED310A94ED320A30EE090A84ED320AD6
:1053900094ED330A30EE2A0A84ED330A94F8DC00E7
:1053A000401C84F8DC0094F8DC0008287DD394F8D5
:1053B000DC0000EE100AB8EE400AF0EE40EAD4ED50
:1053C000310A80EEAE0ADFED710A80EE201AF0EEAF
:1053D000419AD4ED320A80EEAE0ADFED6C0A80EE1F
:1053E000201AB0EE41BA94ED330AC0EE2E0ACDED8C
:1053F0000B0A94ED2D0A20EE290AD4ED2E0A00EEB8
:105400008B0AF0EE40BA94ED2F0A20EE290AD4ED73
:10541000300A00EE8B0AB0EE40CA9FED5D0A09EE3D
:10542000AB0A0BEE0C0AF0EE40CAB0EE6C0A03F0C9
:10543000D5FA00287ED09FED540AF4EEC0CAF1EEF2
:1054400010FA77DD8BEEAC0AB0EE40FA8CEE2C0A47
:10545000F0EE40FA94ED250ADFED4C0A20EE200A2A
:105460008DED0A0A94ED260ADFED480A20EE200AA7
:105470008DED090A9DED0B0ADDED0A0A00EEE90A41
:10548000DDED090A00EECB0A8DED080A9DED0A0A52
:10549000DDED080A0FEE200A8DED070A9DED090AE1
:1054A000DDED080A0FEEA00A00E0C4E08DED060A6B
:1054B00094ED2D0A0FEE6B0ADFED350A80EE201A0F
:1054C0008DED051A94ED2E0A0FEE4C0ADFED300A31
:1054D00080EE201A8DED041A94ED2F0A0FEEEB0AE0
:1054E000DFED2B0A80EE201A8DED031A94ED300AC1
:1054F0000FEECC0ADFED260A80EE201A8DED021A9F
:105500009DED070A03F06AFAD8B39DED060A03F091
:1055100065FAB0B39DED050A03F060FA88B39DED1E
:10552000040A03F05BFA60B39DED030A03F056FA38
:1055300038B300E06AE09DED020A03F04FFA00B3D1
:105540009DED070ADFED110A80EE201A8DED001A9D
:10555000B0EE001ADFED0F0A9DED000A02F098FE92
:1055600084ED250A9DED060ADFED080A80EE201A7B
:105570008DED001AB7EE001ADFED070A9DED000A67
:105580000CE03DE000000000BD3786350000C84259
:105590003BDF7F3F17B7D138ACC5273702F078FE25
:1055A00084ED260A9DED040ADDED030A30EE200AA3
:1055B000F6EE000A20EE200A8DED010A9FED1F1A7B
:1055C0005FED0F0A9DED050A02F062FE84ED2D0AE3
:1055D0009DED010A84ED2E0A9DED010A84ED2F0A4E
:1055E0009FED161A5FED180A9DED020A02F050FEBB
:1055F00084ED300AD4200059401CD421085104E025
:10560000D8200059401CD821085104E0D820005966
:10561000401CD82108511FED250A84ED310A1FEDE9
:10562000270A84ED320A1FED290A84ED330A00218E
:1056300084F8DC1000BF00BFB9E50000FFFF7F7FEA
:1056400000B101B9704702680A6042684A60034AC3
:105650001268521C014B1A6000BFF3E72C010020B6
:1056600010B500F06BFE4FF480620749074803F065
:105670003AF94FF400720649A1F5007000F000FFFE
:10568000642003F097FD10BD8894002070940020E2
:10569000119B00202DE9F04186B007460C4690464C
:1056A0001D46284600F0C0F8064640F2A2306421AC
:1056B0004FF4E672CDE90406CDE902210320022170
:1056C00001234246CDE900100CA1384601F010FE3E
:1056D00040F2DE30642140F2B452CDE90406CDE957
:1056E00002210320022101234246CDE9001004A13A
:1056F000204601F0FDFD06B0BDE8F0814C4C4C00A9
:10570000524C4C00014631B1012906D0022906D085
:10571000032908D105E005A0704708A0FCE70BA00D
:10572000FAE70EA0F8E701A0F6E700004E4F5F4150
:10573000494D202020202020000000005354414EDD
:10574000444152442041494D00000000534D414C1A
:105750004C20425546462020000000004249472088
:10576000425546462020202000000000014631B16D
:10577000012906D0022906D0032908D105E005A099
:10578000704707A0FCE709A0FAE70BA0F8E701A023
:10579000F6E70000444F574E202020200000000074
:1057A0004E4F545F464F4C4C00000000464F4C4C4F
:1057B0004F57202000000000524F544154452020F4
:1057C00000000000014605290ED2DFE801F00305C4
:1057D00007090B0005A0704707A0FCE709A0FAE73E
:1057E0000BA0F8E70DA0F6E700A0F4E7444F574EF2
:1057F00020202020000000004143542020202020B1
:10580000000000004155544F41494D200000000068
:10581000534D415F42554646000000004249475FF4
:105820004255464600000000024602F23B6000EB93
:1058300080004000642390FBF3F0C0F51671C82986
:1058400000DAC821B1F5617F01DD4FF4617188B2E2
:105850007047000030B5014609B9002030BD002076
:1058600008704548007800F0020028B143480079EC
:10587000434D2D78A84202D001200870EEE73E4843
:10588000007800F0040038B13E48407800F0010094
:105890003D4D2D78A84203D0022008700120DDE79D
:1058A0003548008800F4807030B1384890F84502DF
:1058B000374D2D78A84203D0082008700120CDE78D
:1058C0002D48007800F0080038B12E484078C0F329
:1058D0004300304D2D78A84203D0032008700120EA
:1058E000BCE72548007800F0100028B12548C079B1
:1058F000294D2D78A84203D0042008700120ADE77F
:10590000264890F83001022805D1254800880A2849
:1059100001D8012000E0002004461748007800F07C
:10592000800018B11F480078A04203D007200870FB
:10593000012093E71C48D0ED000AB2EE041AB6EE3F
:10594000000A00EE810ABCEEC00A10EE100A83B213
:10595000164800881A1A002A00DA524206480078CF
:1059600000F0200008B1052A03DB052008700120A3
:1059700074E7002072E700005001002003010020BE
:1059800052010020F300002053010020189D002048
:105990005901002054010020550100202CAB0020AB
:1059A000EB03002058010020D0AA0020560100205F
:1059B00010B504461548007800B910BD14480078A9
:1059C00014490978884208D11348007828B113484F
:1059D000B0F90000844200D1EFE70E4800780C498E
:1059E0000870234602220E49A1F10F00FFF752FE74
:1059F000064802780A491C39022001F09BFD07483D
:105A0000048001200449087000BFD6E79FAC002045
:105A1000660100204901002062010020640100208D
:105A2000E2AD00202DE9F04F8DB004460F46D54879
:105A3000007808B1092C02D30DB0BDE8F08F00F05A
:105A400065FA0120A040D0490988084008B1022029
:105A500000E001208146202105A8FAF763FF092C08
:105A60007BD2DFE804F0053A618FB3E4FDFCFB0074
:105A70003E46002E01DA704200E030468246642045
:105A80009AFBF0F100FB11AB9AFBF0F0BF490490D8
:105A90008878FFF797FE03900498002E01DABCA1E6
:105AA00000E0BCA1CDE9010B0091BBA21E2105A81D
:105AB000039BFAF735FD05A840F2EE213C220323B3
:105AC000CDE90132CDE90310182011230222494605
:105AD0000090B7A000F0C8F948E1AC490879FFF799
