:020000040800F2
:10000000C0CE00202903000875AB0008D57B00088E
:1000100071AB0008A714000839F4000800000000C4
:10002000000000000000000000000000690200085D
:10003000B131000800000000C50200087DBC0008C6
:100040004303000843030008430300084303000878
:100050004303000843030008430300084303000868
:100060004303000843030008430300084303000858
:10007000E521000843030008430300084303000888
:100080004303000843030008430300084303000838
:10009000AD140008BD140008430300084303000822
:1000A00043030008DDBD00084303000843030008C4
:1000B000EDBD0008430300084303000843030008A4
:1000C00043030008430300084303000843030008F8
:1000D0004303000841CB00084303000855CB000848
:1000E00043030008430300084303000843030008D8
:1000F00043030008430300084303000843030008C8
:1001000043030008430300084303000843030008B7
:1001100043030008430300084303000843030008A7
:10012000F5210008052200081522000825220008F4
:100130004303000843030008430300084303000887
:10014000CD140008DD1400084303000891AD000839
:1001500043030008430300084303000869CB000879
:100160004303000843030008430300084303000857
:100170004303000843030008430300080000000095
:10018000430300084303000800F002F800F05CF8A5
:100190000AA090E8000C82448344AAF10107DA45E2
:1001A00001D100F051F8AFF2090EBAE80F0013F0D8
:1001B000010F18BFFB1A43F001031847704F0100ED
:1001C000904F01000A444FF0000C10F8013B13F06F
:1001D000070408BF10F8014B1D1108BF10F8015BA0
:1001E000641E05D010F8016B641E01F8016BF9D193
:1001F00013F0080F1EBF10F8014BAD1C0C1B09D1EA
:100200006D1E58BF01F801CBFAD505E014F8016B5B
:1002100001F8016B6D1EF9D59142D6D370470000ED
:100220000023002400250026103A28BF78C1FBD8FF
:10023000520728BF30C148BF0B6070471FB513F08D
:10024000BCFF1FBD10B510BD00F0E5F91146FFF76A
:10025000F5FF10F0DFFF00F003FA03B4FFF7F2FF41
:1002600003BC00F007FA00002C4B19680868B0E8DE
:10027000F04F80F30988BFF36F8F4FF0000080F3D9
:10028000118870470000000008480068006880F38B
:1002900008884FF0000080F3148862B661B6BFF39F
:1002A0004F8FBFF36F8F00DF00BF00BF08ED00E08E
:1002B000DFF80C00016841F470010160704700BF75
:1002C00088ED00E0EFF30980BFF36F8F134B1A68DE
:1002D0001EF0100F08BF20ED108A20E9F04F1060CB
:1002E00009B44FF0500080F31188BFF34F8FBFF374
:1002F0006F8F12F0EFFA4FF0000080F3118809BC05
:1003000019680868B0E8F04F1EF0100F08BFB0EC95
:10031000108A80F30988BFF36F8F70478C0000202C
:10032000EFF30580704700000948804709480047FF
:10033000FEE7FEE7FEE7FEE7FEE7FEE7FEE7FEE795
:10034000FEE7FEE704480549054A064B70470000F2
:1003500065BD000889010008C0C80020C0CE00208B
:10036000C0CA0020C0CA002053EA020C00F0698015
:100370002DE9F04B4FF00006002B1FBFB3FA83F5B9
:1003800003FA05F424FA05F65E4012BF1643B2FAEA
:1003900082F502FA05F4C5F120051EBF22FA05FC1C
:1003A00044EA0C04203556EA044C4FEA144418BFC2
:1003B000641C4FF000084FF00009904271EB030CF1
:1003C00039D3002919BFB1FA81F701FA07F6B0FA5B
:1003D00080F700FA07F6C7F120071EBF20FA07FCD6
:1003E00046EA0C062037B6FBF4FCA7EB0507103FE6
:1003F00007F01F0BCBF120060CFA0BFB2CFA06F6CC
:1004000044BFB3460026202FA4BF5E464FF0000B2A
:100410005BEA060C08BF4FF0010B19EB0B09ABFBB5
:10042000027C48EB0608C01B06FB02CC0BFB03CC8E
:1004300071EB0C01C1E70B46024641464846BDE858
:10044000F08B13B54FF000004FF00001AFF30080C8
:10045000BDE81C407047032A40F2308010F0030CC6
:1004600000F0158011F8013BBCF1020F624498BF07
:1004700011F801CB00F8013B38BF11F8013BA2F1A4
:10048000040298BF00F801CB38BF00F8013B11F01F
:10049000030300F02580083AC0F0088051F8043BBF
:1004A000083A51F804CBA0E80810F5E7121D5CBF2C
:1004B00051F8043B40F8043BAFF30080D20724BF5F
:1004C00011F8013B11F801CB48BF11F8012B24BFF3
:1004D00000F8013B00F801CB48BF00F8012B704742
:1004E00010B5203AC0F00B80B1E81850203AA0E8CF
:1004F0001850B1E81850A0E81850BFF4F5AF5FEA03
:10050000027C24BFB1E81850A0E8185044BF18C9B5
:1005100018C0BDE810405FEA827C24BF51F8043B5C
:1005200040F8043B08BF7047D20728BF31F8023BB0
:1005300048BF11F8012B28BF20F8023B48BF00F844
:10054000012B704702F0FF0343EA032242EA024212
:1005500000F002B84FF000020429C0F0128010F041
:10056000030C00F01B80CCF1040CBCF1020F18BF8F
:1005700000F8012BA8BF20F8022BA1EB0C0100F022
:100580000DB85FEAC17C24BF00F8012B00F8012BF5
:1005900048BF00F8012B70474FF0000200B513462A
:1005A00094469646203922BFA0E80C50A0E80C5093
:1005B000B1F12001BFF4F7AF090728BFA0E80C5044
:1005C00048BF0CC05DF804EB890028BF40F8042B3D
:1005D00008BF704748BF20F8022B11F0804F18BFAA
:1005E00000F8012B704770477047704710B500F056
:1005F0000DF8006810BD10B5044600F007F804605F
:1006000010BD0000004870475CC8002000487047DB
:100610005CC8002070477546FFF7F4FFAE46050042
:100620006946534620F00700854618B020B5FFF70D
:1006300089FEBDE820404FF000064FF000074FF064
:1006400000084FF0000B21F00701AC46ACE8C009F0
:10065000ACE8C009ACE8C009ACE8C0098D467047F9
:1006600010B50446AFF300802046BDE81040FFF708
:10067000F4BD000001491820ABBEFEE726000200D1
:100680009FED221A9FED222A20EE010AB5EE001AF4
:1006900030EE010ABDEEC01A11EE100AB5EE400AA6
:1006A000F1EE10FAB8BF013801EE100AB8EEC11A27
:1006B00030EE410A20EE020ABDEEC01A9FED152A67
:1006C00011EE100A002130EE021AB1EB502F44F661
:1006D00028111CBF0020B0EE410AC0F6010101EE56
:1006E000100A01EB8001B8EE411A30EE410A91ED9B
:1006F000001A91ED012AB7EE003A33EE403A23EEAC
:10070000011A20EE020A31EE000A704783F9223EF8
:1007100000000044000000C4B0B5B0F800C00B8871
:100720009C4553D145884B889D424FD113889C45A9
:100730004CD153889D4249D143684968506805FBB4
:100740000CFC0022B2EB9C0F30D04FEA9C0200BFA1
:1007500093ED000A91ED001A03F1100E30EE010A3C
:1007600080ED000A93ED010A91ED011A01F11004E8
:1007700030EE010A80ED010A93ED020A91ED021AB2
:1007800000F1100530EE010A80ED020A93ED030A34
:1007900091ED031A013A30EE010A80ED030A734627
:1007A00028462146D4D12146284673461CF0030230
:1007B0000AD000BFB3EC010AB1EC011A013A30EEE5
:1007C000010AA0EC010AF5D1002000E0FD2040B2B2
:1007D000B0BD018042804360704700002DE9F04FBA
:1007E00081B02DED028B8EB0B0F800C0B0F802A041
:1007F000D44540F03A810B88FD229C4540F036817B
:100800004F88BB4240F0328140689FEDB08ABCF116
:10081000000F009000F031814C686FF0030000EB96
:100820008C09002700266546CDF828C0204609948B
:100830000A98401B08D0B1002046FFF7ADFE3846AD
:10084000013004F10404FBD304F1040BB5F10108F9
:100850004FF07E50206012D0A9EB86015846FFF77A
:100860009BFE01205C4600BF0130854204F1040478
:10087000FAD10136013FB8F1000F4546D8D1DDF875
:1008800028C0BCF1000F00F0F8804FEACA00043025
:1008900002900998009900EB8A00C0F10009042039
:1008A00000EB8A00ACF1010801EB8A054FEA8A03EC
:1008B000019001F1040B4FF0000E0F465646002048
:1008C0000A460490039300BF0EFB0AF002EB80017E
:1008D00091ED000A0C910999B5EE400AF1EE10FA7B
:1008E00001EB80000D90CDF82080CDE906950B92AC
:1008F0002ED10EF1010060450DD20020414600BF0F
:100900002A1892ED000AB5EE400AF1EE10FA06D16F
:1009100001391844F4D10498012817D0D4E0A0EB91
:100920000900002157F82130146842F8043B47F8C9
:10093000214001318E42F5D10D9A51461368046869
:1009400040F8043B013942F8044BF7D101200490F0
:100950000C99AAEB0E0991ED008AB9F1010F4FF045
:100960007E5008600DD00120594600BF91ED000A6D
:10097000013080EE080A864281ED000A01F104018F
:10098000F4D10D995046CDF814B000BF91ED000A96
:10099000013880EE080AA1EC010AF7D1DDF82C80BD
:1009A0000998A9F1010B0022654600BF724505D1E7
:1009B00008EB890300EB8A0036E000BF0C9998ED44
:1009C000008A91ED000ABBF1000F28EE000A38EE14
:1009D000400A88ED000A17D00123042107EB010C1F
:1009E00008EB01049CED000A94ED001A28EE000AC1
:1009F000013331EE400A9E4201F1040184ED000A08
:100A0000ECD108EB010301E008F104030D9C514611
:100A1000B4EC011A90ED000A28EE011A30EE410AFA
:100A2000A0EC010A0139F3D103EB8E08013D02F17C
:100A30000102BBD1079D02980B9ADDF82080054486
:100A4000039BDDF818900198DDF814B0DDF828C09C
:100A50000432013E0EF1010EA8F10108A9EB0309D1
:100A6000074483447FF430AF09E0FD2250B20EB05A
:100A7000BDEC028B01B0BDE8F08F00200490B5EE14
:100A8000408AF1EE10FA4FF00002EFD104980128ED
:100A9000ECD00AFB0CF14FF000004FF0000271B1F6
:100AA000009B00BF93ED000AB5EE400AF1EE10FA8C
:100AB00005D10132914203F10403F3D10A468A427F
:100AC00008BF6FF00400D2E7FB22CFE70000000070
:100AD0002DE9F04F85B047880B889F4240F0848015
:100AE000B0F800B013889B4540F07E80B1F802E07A
:100AF00053889E4578D1D0F80480506849680190A9
:100B0000BC0827F0030008EB800604FB0EF09FED05
:100B1000390A07F0030C029101EB00104FEA8E0234
:100B200000210090CDE903E70198DDF808A0009BC3
:100B300000EB8109B0EE401A5746404674B3554663
:100B400027464046B0EE401A95ED002A90ED003A57
:100B5000154490ED014A23EE022A95ED003A154422
:100B600090ED025A31EE021A24EE032A95ED003A76
:100B7000154490ED036A31EE021A25EE032A95ED35
:100B8000003A31EE021A26EE032A31EE021A013F34
:100B900000F110001544D7D11F463046BCF1000FBC
:100BA0000CD0654690ED002A97ED003A043022EE15
:100BB000032A31EE021A013D1744F3D1A9EC011AC0
:100BC000BEF1010E0AF1040A03F10403B2D1DDF80B
:100BD0000CE0049F714408EB8708BBF1010B06EBA6
:100BE0008706A1D1002000E0FD2040B205B0BDE89D
:100BF000F08F00BF00000000B0B5B0F800C00B8857
:100C00009C4553D145884B889D424FD113889C45C4
:100C10004CD153889D4249D143684968506805FBCF
:100C20000CFC0022B2EB9C0F30D04FEA9C0200BFBC
:100C300093ED000A91ED001A03F1100E30EE410A17
:100C400080ED000A93ED010A91ED011A01F1100403
:100C500030EE410A80ED010A93ED020A91ED021A8D
:100C600000F1100530EE410A80ED020A93ED030A0F
:100C700091ED031A013A30EE410A80ED030A734602
:100C800028462146D4D12146284673461CF003024B
:100C90000AD000BFB3EC010AB1EC011A013A30EE00
:100CA000410AA0EC010AF5D1002000E0FD2040B28D
:100CB000B0BD00002DE9F04FB0F800A04A88924581
:100CC00045D142880B889A4241D1D1F804C0466888
:100CD0004FEA920802F003094FEA0A1E4FEA8A011E
:100CE0004FF0000B624600BFB8F1000F1AD0154656
:100CF000474600BF336828462B6073680D44435055
:100D0000B3686C186B50F56806F1100366186550EF
:100D1000013F06EB01051E46ECD100EB0E071E4617
:100D200002E000BF0CEB8B07B9F1000F06D048467C
:100D300056F8043B01383B600F44F9D10BF1010B2D
:100D4000BAF1010A02F10402CED1002000E0FD2038
:100D500040B2BDE8F08F00009FED201A9FED202AE1
:100D600020EE010ABDEEC01A11EE100AB5EE400ADF
:100D7000F1EE10FAB8BF013801EE100AB8EEC11A50
:100D800030EE410A20EE020ABDEEC01A9FED152A90
:100D900011EE100A002130EE021AB1EB502F44F68A
:100DA00028111CBF0020B0EE410AC0F6010101EE7F
:100DB000100A01EB8001B8EE411A30EE410A91EDC4
:100DC000001A91ED012AB7EE003A33EE403A23EED5
:100DD000011A20EE020A31EE000A704783F9223E22
:100DE00000000044000000C408B500BF642011F0FA
:100DF00027FC0F4801F0D8FF012011F021FC16E07C
:100E000012F018FA00900A4801F0CEFF08480C389A
:100E100080ED040A0AF042FC05480C3810F016F97F
:100E2000044808F023F90421684611F037FCE7E78D
:100E3000E4B800203A05002070B505460C460026AF
:100E40000DB1022C00D870BDA11E064802882846AC
:100E500002F0DAFB0646A01E2E54310A601E295409
:100E600000BFF0E7A001002010B500220121DFED56
:100E7000324A9FED324ADFED313A9FED303ADFEDF5
:100E80002F2A9FED2E2AF2EE081A9FED2C1ADFED85
:100E90002B0A9FED2B0A2B480AF0A9FA01221146D2
:100EA000DFED264A9FED284ADFED243A9FED233AF5
:100EB000DFED222A9FED252AF2EE041A9FED1F1A7C
:100EC000DFED230A9FED230A1E48B8380AF08FFA97
:100ED00040220121DFED184A9FED184ADFED173A55
:100EE0009FED163ADFED1C2A9FED142AF3EE041A4B
:100EF0009FED121ADFED110A9FED110A17480AF053
:100F000076FA05220121DFED0D4A9FED0F4ADFED54
:100F10000B3A9FED0A3ADFED092A9FED082ADFED33
:100F2000101A9FED061ADFED0F0A9FED0F0A0B480E
:100F3000B8380AF05CFA10BD0AD7A33C00000000E4
:100F40000000FA43E0BA0020FAEDEB3A0000C84393
:100F500000007A4500409C45CDCCCC3D58BE0020D9
:100F60000000B4420000C84400C0DA4510B50122B8
:100F70001021024804F046F810BD000000000240B5
:100F800010B500221021024804F03CF810BD00000A
:100F90000000024010B501221146024804F032F868
:100FA00010BD00000004024010B5002201210248DB
:100FB00004F028F810BD00000004024010B50446FB
:100FC000FFF7DEFF922000F0A5F9062295491220D6
:100FD00000F080F9FFF7CAFF92484078000200B2A3
:100FE000904909780843904908800846B0F9000004
:100FF00000EE100AB8EEC00A8C48D0ED000A20EED0
:10100000200AD4ED080A20EE200A84ED000A854863
:10101000C078000200B28349897808438249088079
:101020000846B0F9000000EE100AB8EEC00A7F488A
:10103000D0ED000A20EE200AD4ED080A20EE200AA6
:1010400084ED010A77484079000200B275490979B8
:101050000843754908800846B0F9000000EE100A00
:10106000B8EEC00A7148D0ED000A20EE200AD4ED97
:10107000080A20EE200A84ED020AFFF795FF0822F5
:101080006849002000F026F9FFF784FF65480078E2
:101090000F284FD166480078F0B36248C07800024C
:1010A00000B26049897808435F49088094ED090AD5
:1010B0000846B0F9000000EE900AF8EEE00A5D483C
:1010C00090ED001A10EE810A84ED030A554840792C
:1010D000000200B25349097908435349088094ED4E
:1010E0000A0A0846B0F9000000EE900AF8EEE00A9D
:1010F000504890ED001A10EE810A84ED040A494828
:10110000C079000200B247498979084346490880FE
:1011100094ED0B0A084600E00DE0B0F9000000EE87
:10112000900AF8EEE00A434890ED001A10EE810AAA
:1011300084ED050A44E03B48C078000200B239491A
:1011400089780843384908800846B0F9000000EE65
:10115000100AB8EEC00A3748D0ED000A20EE200A87
:1011600084ED030A2F484079000200B22D49097925
:1011700008432D4908800846B0F9000000EE100A27
:10118000B8EEC00A2B48D0ED000A20EE200A84ED0C
:10119000040A2448C079000200B222498979084330
:1011A000214908800846B0F9000000EE100AB8EEA8
:1011B000C00A2048D0ED000A20EE200A84ED050A7E
:1011C000FFF7DEFEA22000F0A5F80222154922203A
:1011D00000F080F8FFF7CAFE12480078C0001149FD
:1011E000497840EA6110104908800846B0F90000CB
:1011F000B0F5806F05DB08460088A0F5006000B2FE
:1012000008800948B0F9000000EE100AF8EEC00AA4
:10121000B4EE001AB3EE070A00EE810A84ED070A65
:1012200010BD0000FE05002006060020C0050020BD
:10123000D0050020C405002070B504460D461C48AA
:10124000046000201B4908700FF074F919490978EF
:101250000843184908700FF023FA16490978084323
:10126000144908701DB1144800F0B0F91CE09FED5E
:10127000130A114880ED090A9FED110A80ED0A0A50
:101280009FED100A80ED0B0A9FED0F0A80ED0C0A0E
:1012900090ED0C0ADFED0D0A80EE801A80ED081A41
:1012A0009FED0B0A80ED060A0248007870BD000031
:1012B000BC050020CA05002054C60020322FB6B954
:1012C000326D0CBCCE356FBB8D2C1D41C3F51C415E
:1012D0000000204270B506460C46154646F08000D8
:1012E00000F018F806E0552000F014F82070641C97
:1012F000681EC5B2002DF6D170BD70B504460D460E
:1013000044F0800000F006F8552000F003F8287043
:1013100070BD000001B582B04FF47A70012301AABC
:1013200002A900900348006805F01EFB9DF8040028
:101330000EBD0000BC05002070B505460C462846D1
:10134000FFF7E8FF2046FFF7E5FF70BDD2ED020A88
:1013500092ED021AB6EE000A00EEC10AD2ED030ABF
:1013600092ED031A00EEC10AD0ED000A20EE200A29
:10137000D2ED010A92ED021A60EE810A92ED001A96
:10138000D2ED031A41EE610A90ED011A00EE810AD6
:10139000D2ED010A92ED031A60EE810A92ED001A75
:1013A000D2ED021A41EE210A90ED021A00EE810AF6
:1013B000F0EE000A20EE200A81ED000A92ED010A0B
:1013C000D2ED020A20EE200AD2ED000A92ED031AB5
:1013D00000EE810AD0ED000A60EE200A92ED011ABB
:1013E000D2ED011AB6EE000A01EE610AD2ED031A3F
:1013F00092ED032AB0EE401A01EEC21AD0ED011AA6
:10140000B0EE600A01EE210AD2ED020A92ED031A53
:1014100060EE810A92ED001AD2ED011A41EE610AE6
:1014200090ED021A00EE810AF0EE000A20EE200A8A
:1014300081ED010A92ED010AD2ED030A20EE200AA5
:10144000D2ED000A92ED021A00EEC10AD0ED000AB8
:1014500020EE200AD2ED020A92ED031A60EE810A14
:1014600092ED001AD2ED011A41EE210A90ED011A17
:1014700000EE810A92ED011AD2ED011AF6EE000A91
:1014800041EE610A92ED021AD2ED021A41EE610AB2
:1014900090ED021A00EE810AF0EE000A20EE200A1A
:1014A00081ED020A704700BFFEE7000010B5024858
:1014B00002F09FFF10BD0000EC0C002010B50248A8
:1014C00002F097FF10BD0000EC0C002010B50248A0
:1014D00002F08FFF10BD0000140D002010B502486F
:1014E00002F087FF10BD0000140D00200346042BFE
:1014F00015D007DC7BB1012B0ED0022B0DD0032BB6
:1015000012D10BE0202B0BD0212B0AD0222B09D09B
:10151000232B09D107E008E007E006E005E004E03E
:1015200003E002E001E000E000BF00BF00207047E0
:101530000020704710B50022044905480BF0B7FDA4
:10154000044903480BF0A4FD002010BD001E00203C
:10155000241100200016002070B504460D462146D7
:1015600007482A68FEF777FF054809F0B7FD2146CE
:1015700004480BF08DFD03480BF056FD002070BDB4
:1015800028C200202411002010B503460C4600217B
:10159000084610BD2DE9F04104460D4600260A48D4
:1015A000D0F8BC72D7F8140210B10120BDE8F08168
:1015B0002A46214604480BF07AFD03480BF02AFE28
:1015C00006463046F2E700002411002070B52DEDEC
:1015D000048B88B0044600200690079001F00AFCB6
:1015E000FE4880ED000A00BF01F004FCFB48D0ED8E
:1015F000000A30EE600AF2EE040AB4EEE00AF1EE00
:1016000010FA14DD9FEDF60A84ED090A9FEDF50A44
:1016100084ED0A0A9FEDF40A84ED0B0A9FEDF30AAC
:1016200084ED0C0A9FEDF20A84ED060A57E29FED65
:10163000F10A01F09BFB9FEDF00A84ED0C0A9FED8F
:10164000EE0A84ED090A9FEDEC0A84ED0A0A9FED8B
:10165000EA0A84ED0B0A002673E1FFF791FC922061
:10166000FFF758FE062206A91220FFF733FEFFF708
:101670007DFC9DF81900000200B29DF8181040EAA8
:10168000010500EE105AB8EEC00ADC48D0ED000AA1
:1016900020EE200A84ED000A9DF81B00000200B233
:1016A0009DF81A1040EA010500EE105AB8EEC00A83
:1016B000D248D0ED000A20EE200A84ED010A9DF800
:1016C0001D00000200B29DF81C1040EA010500EE6A
:1016D000105AB8EEC00AC948D0ED000A20EE200A20
:1016E00084ED020AD4ED000A60EEA00A94ED011A1E
:1016F000D4ED011A41EE210A94ED021AD4ED021A3A
:1017000041EE210AB0EE600A0EF048FEB0EE408ACB
:1017100094ED0C0A30EE080A84ED0C0AFFF744FC45
:10172000082206A90020FFF7D5FDFFF733FC9DF83E
:1017300018000F2850D19DF81B00000200B29DF840
:101740001A1040EA010500EE105AB8EEC00AAC4883
:10175000D0ED000A20EE200A84ED030A94ED090A78
:10176000D4ED030A30EE200A84ED090A9DF81D002D
:10177000000200B29DF81C1040EA010500EE105A6C
:10178000B8EEC00A9E48D0ED000A20EE200A84ED93
:10179000040A94ED0A0AD4ED040A30EE200A84ED1E
:1017A0000A0A9DF81F00000200B29DF81E1040EAD0
:1017B000010500EE105AB8EEC00A9148D0ED000ABB
:1017C00020EE200A84ED050A94ED0B0AD4ED050AFB
:1017D00030EE200A84ED0B0A06BBF0EE488AB0EE2C
:1017E000489A002017E004F10C0101EB800191ED13
:1017F000000A03A901EB800181ED000A04F10C014C
:1018000001EB800191ED000A694601EB800181ED59
:10181000000A411CC8B20328E5DB49E0B4EEE88ABF
:10182000F1EE10FA01DDF0EE488AB4EEC98AF1EE6D
:1018300010FA01D2B0EE489A002037E004F10C0112
:1018400001EB800191ED000A03A901EB8001D1EDCC
:10185000000AB4EEE00AF1EE10FA0ADD04F10C0120
:1018600001EB800191ED000A03A901EB800181EDFC
:10187000000A04F10C0101EB800191ED000A6946B8
:1018800001EB8001D1ED000AB4EEE00AF1EE10FAAE
:101890000AD204F10C0101EB800191ED000A6946C6
:1018A00001EB800181ED000A411CC8B20328C5DBB1
:1018B00038EEC90A534880ED000A002012E003A95F
:1018C00001EB800191ED000A694601EB8001D1ED49
:1018D000000A30EE600A4C4901EB800181ED000AFC
:1018E000411CC8B20328EADB464890ED000AF6EE38
:1018F000000AB4EEE00AF1EE10FA1BDC424890ED6B
:10190000000ADFED420AB4EEE00AF1EE10FA11DC53
:1019100090ED010ADFED3D0AB4EEE00AF1EE10FAB7
:1019200008DC90ED020ADFED390AB4EEE00AF1EED0
:1019300010FA00DD0AE09FED360A01F017FA701C7C
:1019400086B2344800888642FFF687AE00BFD4EDE9
:101950000C0A3048008800EE100AB8EE400A80EE0B
:10196000801A84ED0C1A002015E004F1240101EB2B
:101970008001D1ED000A2749098800EE101AB8EE5F
:10198000400A80EE801A04F1240101EB800181ED10
:10199000001A411CC8B20328E7DBFFF7F1FAA220C6
:1019A000FFF7B8FC022206A92220FFF793FCFFF7FD
:1019B000DDFA9DF81800C0009DF8191040EA611585
:1019C000B5F5806F02DBA5F5006005B200EE105A98
:1019D000F8EEC00AB4EE001A1EE00000F805002080
:1019E000322FB6B9326D0CBCCE356FBB8D2C1D417C
:1019F000000020420AD7A33B00000000C0050020E1
:101A0000C4050020CC05002048C600209A99193E44
:101A10006F12033AFC050020B3EE070A00EE810ABC
:101A200084ED060A34480088401C00B23249088020
:101A3000324890ED000AF6EE000AB4EEE00AF1EE4C
:101A400010FA3FF7D1AD94ED0C0ADFED2D0A30EE20
:101A5000600AB0EEC00AF6EE000AB4EEE00AF1EE5B
:101A600010FAEEDC274890ED000A5FED180AB4EE9C
:101A7000E00AF1EE10FAE4DC90ED010A5FED1D0AD8
:101A8000B4EEE00AF1EE10FADBDC90ED020A5FED55
:101A9000210AB4EEE00AF1EE10FAD2DC94ED090A64
:101AA000B0EEC00ADFED180AB4EEE00AF1EE10FA6B
:101AB000C7DC94ED0A0AB0EEC00ADFED130AB4EEFB
:101AC000E00AF1EE10FABCDC94ED0B0AB0EEC00AAD
:101AD000DFED0D0AB4EEE00AF1EE10FAB1DC00BF62
:101AE00094ED0C0ADFED090A80EE801A84ED081AE5
:101AF00008B0BDEC048B70BDD2050020CC050020E1
:101B0000CDCC1C4148C600200AD7233CC3F51C415C
:101B100070B58AB006460C4615460495002006901E
:101B2000079008200890206802906068039001AB3D
:101B300002AA04A9304602F05CFA0AB070BD0000A7
:101B400008B500BF002440F2DC5010F079FD2CE015
:101B500011F070FB0090E11704EB91718910A4EB78
:101B6000810101291BD109F001FD104810490A68C3
:101B70000260496841604FF4A87201460D48FFF7C2
:101B8000C7FF09F0F1FC0C480C490A68026049687B
:101B9000416040F2511201460648FFF7B9FF601C50
:101BA00084B20121684610F079FDD1E721060020BA
:101BB0004A050020EC0C00202906002052050020D8
:101BC000F0B52DED0A8B83B0064611F033FB0746C6
:101BD000FE480068381AFE490860FC480760FD4866
:101BE00090F8280002280BD0FA4890F8400002280C
:101BF00006D0002010F0CCFA03B0BDEC0A8BF0BD8B
:101C0000F44890F82800022833D1F34800890328CB
:101C100005D000200FF03DFA0AF026F85DE0EE480E
:101C20004089022808D1002010F0F6FA012010F0B7
:101C3000AFFA0AF04FFD50E0E7484089032806D18B
:101C4000002010F0E9FA022010F0A2FA45E0E24884
:101C50004089012805D110F0DFFA022010F098FA2F
:101C60003BE0002010F094FA9FEDDC0A86ED020ABA
:101C700033E0D84890F8400002282ED1D848007AA6
:101C8000012807D000200FF004FA0DF0C5FD09F07F
:101C9000EBFF22E0D348007800F0010020B90DF0FE
:101CA000BBFD09F0E1FF18E0CD4890F820000128C5
:101CB00002D109F0D9FF10E0C948807F012805D181
:101CC000022010F065FA0DF069FC06E00AF002FD52
:101CD000012010F05DFA0DF061FC0020C24948754A
:101CE000C248B0F81F000290C048B0F82100BF49B8
:101CF000B1F81F104840BD49B1F81F100840BB495A
:101D0000A1F823000846B0F82100B1F81F104840A0
:101D1000B649B1F821100840B449A1F82500BDF832
:101D20000810B248A0F821109FEDAC8ADFEDAB8A15
:101D3000012435E1BDF8080000EA0405B5F5807F0F
:101D400033D012DC102D29D008DC012D42D0022D19
:101D50003BD0042D34D0082D41D12CE0202D21D0B2
:101D6000402D20D0802D3AD11EE0B5F5805F20D0E7
:101D700009DCB5F5007F19D0B5F5806F17D0B5F542
:101D8000006F2CD114E0B5F5005F13D0B5F5804F8E
:101D900003D0B5F5004F22D122E021E00120924985
:101DA00048751DE01CE01BE01AE019E018E017E0A0
:101DB00016E015E014E0B6EE000AF0EE408A0FE0FF
:101DC000BEEE000AF0EE408A0AE0BEEE000AB0EE77
:101DD000408A05E0B6EE000AB0EE408A00E000BF9F
:101DE00000BF8248B0F8230000EA0405B5F5807F03
:101DF0003DD012DC102D29D008DC012D79D0022D28
:101E000076D0042D73D0082D74D16FE0202D1ED014
:101E1000402D1DD0802D6DD121E0B5F5805F3CD0E7
:101E200009DCB5F5007F23D0B5F5806F2AD0B5F574
:101E3000006F5FD130E0B5F5005F42D0B5F5804F5F
:101E400003D0B5F5004F55D155E054E053E052E0D2
:101E500066488078022801D110F0C8F94BE0634849
:101E60008078022802D1012010F0C0F943E042E05E
:101E70005F4890ED740AF6EE000A30EE200A80ED1D
:101E8000740A38E05A4890ED740AF6EE000A30EE13
:101E9000600A80ED740A2EE02DE05648007830B9D3
:101EA000032010F09DF901205249087008E05148C4
:101EB0000078012804D110F093F900204D490870F2
:101EC00019E04A48807802280BD14848007A022855
:101ED00007D1032010F0A4F8B7EE000A424880EDC5
:101EE000020A08E005E003E001E003E003E002E0AD
:101EF00001E000E000BF00BF3C48B0F8250000EA68
:101F00000405B5F5807F30D012DC102D29D008DC17
:101F1000012D3ED0022D3BD0042D38D0082D39D1D3
:101F200034E0202D1ED0402D1DD0802D32D11BE05D
:101F3000B5F5805F1DD009DCB5F5007F16D0B5F58D
:101F4000806F14D0B5F5006F24D111E0B5F5005FB6
:101F500010D0B5F5804F03D0B5F5004F1AD11AE077
:101F600019E018E017E016E015E014E013E012E0C5
:101F700011E010E01D488078022806D110F050F8DA
:101F80009FED160A184880ED020A04E003E002E023
:101F900001E000E000BF00BF4FF6FF7000EA44041C
:101FA000002C3FF7C7AE104880ED008AC0ED018AD3
:101FB0000E480079012807D00C480079022803D088
:101FC0000A480079032871D10B4817E06C050020FE
:101FD0006005002014B400209EB80020000000001E
:101FE00008B800203A050020D8B8002072C20020AE
:101FF000A0C2002068050020F8BC002090EDD50AA2
:102000005F48B0F9110000EE900AF8EEE00A9FED8B
:102010005D1A00EEC10A5C4880EDD50A5849B1F955
:10202000130011F0ABFD41EC1C0B9FED580B53EC72
:10203000102B11F0F7FD41EC1A0B564890EDFA0AFF
:1020400010EE101A084612F017F841EC1B0B53EC77
:102050001A2B11F087FB41EC190B11F051FB4D4984
:10206000C1F8E8034649B1F9150011F087FD41ECCC
:102070001C0B9FED490B53EC102B11F0D3FD41ECE1
:102080001A0B444890EDFA0A10EE101A084611F0A7
:10209000F3FF41EC1B0B53EC1A2B11F063FB41ECEB
:1020A000190B11F02DFB3B49C1F8E8033448C07D02
:1020B00001903348407E9DF8041048409DF804107C
:1020C00001402F48C176407E9DF8041048402C49BD
:1020D000497E01402A4801779DF8041041769DF819
:1020E000040020B101202E4981F8A00103E0002066
:1020F0002B4981F8A0012248C07E18B10120204957
:1021000081F829001E48007E00901D48807E9DF8C1
:10211000001048409DF80010014019484177807E2A
:102120009DF8001048401649897E01401448817787
:102130009DF800108176407F80B10120104981F820
:102140002A0008460079032802D109F00BFD15E0AA
:10215000FEF78AFE022010F043F80FE00848807F67
:1021600060B10020064981F82A0001F05BFB0448B9
:102170000079022802D1012010F032F800BF3BE5BF
:1021800072C200200AD7A33BF8BC0020FCA9F1D200
:102190004D62703FF8B80020FCA9F1D24D62503F6B
:1021A00088C4002010B504460D4890F82800022885
:1021B00006D1D4ED040AB0EE600A00F05FFC0DE039
:1021C000074890F84000022806D1D4ED040AB0EE8A
:1021D000600A0DF099FB01E00FF010FF10BD000048
:1021E00014B4002010B5024802F068FC10BD0000D5
:1021F0001C10002010B5024802F060FC10BD000069
:10220000940D002010B5024802F058FC10BD0000EB
:102210007C10002010B5024802F050FC10BD0000F8
:10222000BC0F002010B5024802F048FC10BD0000B1
:10223000F40D00200146087810381823B0FBF3F2A3
:102240000848805CC865032A05D908686FF309004F
:10225000001D886503E008686FF309008865886DD4
:10226000704700005C420108014600208A6A8B69C1
:10227000CBB932B1012A0DD0022A03D0032A10D1E2
:102280000EE000BFCB6A03F08073B3F1807F00D112
:10229000012007E0CB6AB3F1C07F00D1012001E04B
:1022A00000E000BF34E08B69B3F5005F1AD132B1B2
:1022B000012A07D0022A03D0032A11D10AE000BF65
:1022C00001200EE0CB6A03F08073B3F1807F00D170
:1022D000012006E0CB6AB3F1C07F00D1012000E00D
:1022E00000BF15E032B1012A05D0022A04D0032A2A
:1022F0000CD103E000BF00BF012008E0CB6A03F06F
:102300008073B3F1807F00D1012000E000BF00BFE7
:102310007047000010B590F839300D2B05D19D4B5A
:102320001C680C605B684B6010BD12B190F82630E1
:1023300043B9994B1C680C605B684B60012380F8C3
:10234000263024E1012A05D1944B1C680C605B689F
:102350004B601CE1036800EE103AD0F81E3000EE2E
:10236000903AF1EE600AB4EEE00AF1EE10FA06D807
:10237000D0F81E3000EE103AB1EE400A13E00368C8
:1023800000EE103AD0F81E3000EE903AB4EEE00ABB
:10239000F1EE10FA04DBD0F81E3000EE103A02E045
:1023A000036800EE103A10EE103A0360436800EE46
:1023B000103AD0F8223000EE903AF1EE600AB4EE16
:1023C000E00AF1EE10FA06D8D0F8223000EE103A0A
:1023D000B1EE400A13E0436800EE103AD0F8223024
:1023E00000EE903AB4EEE00AF1EE10FA04DBD0F819
:1023F000223000EE103A02E0436800EE103A10EE90
:10240000103A4360C36800EE103AD0F81A3000EE7C
:10241000903AB1EE601ADFED621ADFED620A41EE2A
:10242000210AB4EEE00AF1EE10FA0CD8D0F81A3016
:1024300000EE103AF1EE400A9FED591A9FED590A4D
:1024400000EE810A1FE0C36800EE103AD0F81A309F
:1024500000EE903ADFED521A9FED521A10EEA11ADB
:10246000B4EEC10AF1EE10FA0ADBD0F81A3000EE31
:10247000903A9FED4B1A9FED4B0A10EE810A02E055
:10248000C36800EE103A10EE103AC3604389002B87
:1024900001DC002305E04389052B01DB052300E077
:1024A000438943810389002B01DC002307E0038972
:1024B000B3F5FA7F02DB4FF4FA7300E0038903817E
:1024C000036800EE103AD0F81E3000EE903A80EE2D
:1024D000201ADFED350A9FED340A01EE200ABCEE2A
:1024E000C00A10EE103A0382436800EE103AD0F8AA
:1024F000223000EE903A80EE201ADFED2C0A9FED9C
:102500002B0A01EE200ABCEEC00A10EE103A4382FC
:10251000C36800EE103ADFED220A80EE201AD0F8F0
:102520001A3000EE103AC1EE000A9FED201A9FED1E
:102530001F0A00EE810ABCEEC00A10EE103A0383B7
:10254000038983824389C382038A1B0A5BB20B70AF
:10255000037C5BB24B70438A1B095BB28B70037CBC
:102560001B01848A43EA14235BB2CB70037D5BB208
:102570000B71C38A1B095BB24B71837D1B02048BF9
:1025800043EA14235BB28B71037E5BB2CB7100BF55
:10259000CAE6000032050020220500202A0500209E
:1025A00000007A440000C8420000004700000045D7
:1025B00000211A30017310EE101A416010EE901ACB
:1025C000016011EE101A81601A38704730B58478B6
:1025D000457844EA0522C4782401057944EA2514A3
:1025E00000EE104A4479057905F00F0544EA052408
:1025F000344D2C8084791D314C77C4798C77F8EE7A
:10260000400A9FED311A70EEC10ADFED2F1A80EEFD
:10261000A11AD1F8054000EE904A61EE200A10EEB2
:10262000904ACC604A8100EE902AF8EE600A9FED55
:10263000271A70EEC10ADFED251A80EEA11ADFED30
:10264000241ADFED230A41EE210A10EE904A4C6174
:1026500000EE902AF8EE600A9FED1C1A70EEC10A97
:10266000DFED1A1A80EEA11ADFED1A1ADFED190A52
:1026700041EE210A10EE904A8C612C46248800EE2F
:10268000904AF8EE600A9FED101A70EEC10ADFED75
:102690000E1A80EEA11A51F8034C00EE904A61EE3A
:1026A000200A9FED0D1A60EE810A10EE904A0C612F
:1026B00003781C110C770C7F1D3914B9002481F8A4
:1026C000264030BD200500200000004500000047E6
:1026D00000003443DB0F494000007A443149498807
:1026E000A1F58060002801DB014600E0414232296B
:1026F00012DD01202C4908702A484088A0F580602E
:1027000000EE100AB8EEC00ADFED280A80EE201AAB
:10271000274880ED001A0BE023480078012804D1F7
:102720009FED240A224880ED000A00201E4908700F
:102730001C490988A1F58060002801DB014600E002
:102740004142322912DD01201B49087015480088DA
:10275000A0F5806000EE100AB8EEC00ADFED130AA3
:1027600080EE201A124880ED011A0BE01248007822
:10277000012804D19FED0F0A0D4880ED010A0020C9
:102780000D4908700D488079032805D1B7EE000A7D
:10279000074880ED020A04E09FED060A044880ED38
:1027A000020A70479EB80020B905002000002544A9
:1027B000D8B8002000000000B805002072C2002038
:1027C00070B504460D462078617840EA0120C0F3D8
:1027D0000A0028806078C010A17840EA4110C0F358
:1027E0000A006880A0788011E17840EA81002179B0
:1027F00040EA8120C0F30A00A88020794010617966
:1028000040EAC110C0F30A00E8806079C0F301100B
:102810002881607981096981A079E17940EA012004
:1028200000B26882207A617A40EA012000B2A88270
:10283000A07AE17A40EA012000B2E882207B287683
:10284000607B6876E0896883207C617C40EA0120B7
:10285000A881002605E005EB46001E2108F09CFF3C
:10286000761C042EF7DB9FED030A034807F0C0FC3B
:1028700070BD00000AD7A33C2CB400203048007A79
:1028800001281BD12F498988A1F58060002801DB30
:10289000014600E04142322910DD2A488088A0F537
:1028A000806000EE900AF8EEE00AF1EE600A9FED1B
:1028B000261AC0EE811A2548C0ED021A21498988DE
:1028C000A1F58060002801DB014600E04142322989
:1028D00014DD1C488088A0F58060B42148434FF483
:1028E000257190FBF1F000EE900AB8EEE01A18485E
:1028F000D0EDD50A41EE400AC0EDD50A1149C9888C
:10290000A1F58060002801DB014600E04142322948
:1029100015DD0C48C088A0F5806000EB8000000148
:102920004FF4257190FBF1F000EE900AB8EEE01A3A
:102930000848D0EDFA0A41EE000AC0EDFA0A7047E5
:1029400072C200209EB8002000002544D8B80020A4
:10295000F8BC0020F8B8002008B5414800680068BD
:1029600000F0200060B100BF002000903C480068EB
:10297000006800903A4800684068009000BF6EE030
:102980003848006800F01000002868D000BF002020
:102990000090334800680068009031480068406843
:1029A000009000BF00BF30480068006800F40020BD
:1029B00058BB2D480068006820F001002A490968CA
:1029C0000860294800684068C0F124002749088051
:1029D000242025490968486023480068006840F4BD
:1029E00000202149096808601F480068006840F01D
:1029F00001001D49096808601C48008812282ED172
:102A00001B491C48FFF7DCFE29E0174800680068F6
:102A100020F0010014490968086013480068406804
:102A2000C0F124001149088024200F49096848603A
:102A30001148806A20F400200F4988620A48006823
:102A4000006840F0010008490968086007480088EC
:102A5000122804D1064907482430FFF7B1FE08BD0B
:102A60002C0F0020004800401C1000201E050020F4
:102A70009EB8002056B800200060024010B52DED31
:102A8000028BB0EE408A0024A548008AA449098937
:102A9000884204D1A248C1894089814200D00124E2
:102AA000A04890F8280002280BD09D4840899C49F6
:102AB000C8810846008908820FF0A0FABDEC028B9D
:102AC00010BD9748008901286DD0022802D0032844
:102AD00072D164E092484089012838D0022802D09F
:102AE000032857D102E00FF089FA56E08CB101209B
:102AF0000FF082FB00200FF093FA02200FF070FB22
:102B000001200FF089FB00200FF08CFB02200FF05A
:102B10006DFB844890F83001022803D0B0EE480ADB
:102B2000FFF7ACFE7E490988A1F58060002801DB33
:102B3000014600E04142962904DD01207A4981F8EE
:102B4000A00103E00020784981F8A00125E074B1DC
:102B500001200FF051FB00200FF05EFB01200FF071
:102B60003FFB00200FF05EFB01200FF03FFB6F48A2
:102B7000C07828B901F00EF900200FF051FA04E0F6
:102B800002200FF04DFAFFF7A9FDB0EE480AFFF75B
:102B900075FE02E00FF032FA00BF00BFB6E0012080
:102BA0000EF077FAB2E05E48408901287AD0022818
:102BB00003D003286FD11AE0A5E08CB101200FF0FB
:102BC0001BFB02200FF02CFA00200FF025FB012048
:102BD0000FF006FB00200FF025FB02200FF006FB94
:102BE000B0EE480AFFF74AFEFFF778FD89E08CB1A6
:102BF00001200FF001FB03200FF012FA00200FF06C
:102C00000BFB01200FF0ECFA00200FF00BFB022071
:102C10000FF0ECFAB0EE480AFFF730FEFFF75EFD6A
:102C200043488079032837D13D48C089032805D01F
:102C30004048C08A401C00B23E49C8823D49B1F9B3
:102C4000160000EBD0714910A0EB4101012928D1F9
:102C5000384890ED020AFFEE000A20EE200A80EDCF
:102C6000020A90ED020AB5EEC00AF1EE10FA04D2A3
:102C700090ED020A80ED020A13E02E4890ED020A60
:102C8000B5EEC00AF1EE10FA0BDD90ED020A80ED10
:102C9000020A06E006E031E09FED270A254880EDB4
:102CA000020A2EE08CB101200FF0A6FA00200FF0EE
:102CB000B7F901200FF0B0FA01200FF091FA0020CF
:102CC0000FF0B0FA02200FF091FAB0EE480AFFF7C9
:102CD000D5FD13490988A1F58060002801DB014674
:102CE00000E04142962904DD01200F4981F8A0014E
:102CF00003E000200C4981F8A00102E00FF07EF90A
:102D000000BF00BF02E00FF079F900BF00BF044828
:102D100040890349C88108460089088200BFCDE682
:102D20009EB8002014B4002088C4002088C600206B
:102D300072C20020D8B800200000000008B5084882
:102D400040680090074900980968884204D2064804
:102D50000068401C0449086002490098086008BDEA
:102D6000001000E0F0040020EC0400200C4948684A
:102D7000F0EE400A00BF0A494968091A01EE101A2C
:102D8000F8EE411A074991ED001AB8EE411A20EE0B
:102D9000811AF4EEC11AF1EE10FAECD3704700007C
:102DA000001000E0E004002010B52DED028B82B091
:102DB00004460E484068019020680199081A00EE08
:102DC000100AF8EE400A0A4890ED000AB8EE400AF0
:102DD00080EE801AB0EE418A01982060FFF7AEFFC6
:102DE000B0EE480A02B0BDEC028B10BD001000E04E
:102DF000E004002010B52DED028B00F05DF81148C5
:102E0000D0E90221104611F062F900EE100A0D48D7
:102E1000D0ED000AF8EE608ADFED0B0A40EE208A62
:102E2000D0E90421104611F052F900EE100ADFED4E
:102E3000070A40EE208AB0EE688AB0EE480ABDEC80
:102E4000028B10BDF0B700206F12833ABD37863574
:102E50001249096841F08071104A11600021104A3E
:102E600051601146096841F0010111600D4941436B
:102E70000D4A1160114609684FF47A72B1FBF2F104
:102E80000A4A116008490968064AB1FBF2F1084A8A
:102E900011600021074A116070470000FCED00E05E
:102EA000001000E040420F00E0040020E404002095
:102EB000E8040020EC04002038B52D48406800905C
:102EC000FFF73CFF2B4800684FF0FF31A0FB0130BB
:102ED0000099591840F10000274AC2E9001027481C
:102EE00000232549026803C9FDF73EFA244A03C2BC
:102EF000234806C8214800680024A1FB003502FBD6
:102F0000005001FB04011C48D0E90020D21A60EBFC
:102F100001001C49C1E90020194800681A490860ED
:102F20001A4800231749026803C9FDF71DFA164A1B
:102F3000C2E902011046D0E9021314480068A1FB5F
:102F4000002503FB005001FB04010E48D0E90030CE
:102F50009A1A60EB01000E49C1E900200D480023D8
:102F6000026803C9FDF700FA074AC2E9040138BD47
:102F7000001000E0EC040020F8040020E004002031
:102F80000005002008050020F0B70020E404002020
:102F900010050020E804002070B505460E461446D2
:102FA000764885420CD130680D2809D174492046F5
:102FB000FFF70CFB9FED730A734807F019F9DCE08B
:102FC000724885420ED130680B280BD16C493C39D0
:102FD0002046FFF7FBFA9FED6B0A6B48183007F0AD
:102FE00007F9CAE06548854228D140F207213068D8
:102FF000884223D16078217840EA012000B26449F8
:10300000A1F87001E078A17840EA012001B260489F
:10301000A0F872116079217940EA012001B25C4880
:10302000A0F87411A07941B2594880F876119FED4B
:10303000590A5548303007F0DBF89EE04F4885428A
:1030400027D13068B0F5027F23D16078217840EA3B
:10305000012001B24E48A0F87811E078A17840EA4A
:10306000012001B24A48A0F87A116079217940EA3A
:10307000012001B24648A0F87C11A07941B2444831
:1030800080F87E119FED430A3F48483007F0B0F8C2
:1030900073E03E48854223D140F2062130688842E1
:1030A0001ED16078217840EA012000B23A49A1F8A7
:1030B0007001E078A17840EA012001B23648A0F81A
:1030C00072116079217940EA012001B23248A0F8FA
:1030D00074119FED320A2C48603007F089F84CE0FB
:1030E0002A48854223D140F20521306888421ED10A
:1030F0006078217840EA012000B22949A1F88001D6
:10310000E078A17840EA012001B22548A0F88211B8
:103110006079217940EA012001B22148A0F88411A8
:103120009FED1E0A1848783007F062F825E017482E
:1031300085420FD13068B0F5B07F0BD119482168B6
:103140000160616841609FED180A0F48A83007F0E0
:103150004FF812E00D4885420FD140F261113068FE
:1031600088420AD1114821680160616841609FED81
:103170000E0A0548C03007F03BF870BD140D002062
:1031800034B900200AD7233B5CB40020EC0C0020AB
:10319000A0C200208FC2F53B88C400204260653B7E
:1031A00088C600203A0500205839B43B420500206B
:1031B0007047D2ED020A92ED021AB6EE000A00EE56
:1031C000C10AD2ED030A92ED031A00EEC10AD0ED56
:1031D000000A20EE200AD2ED010A92ED021A60EEFA
:1031E000810A92ED001AD2ED031A41EE210A90ED08
:1031F000011A00EE810AD2ED010A92ED031A60EE87
:10320000810A92ED001AD2ED021A41EE610A90EDA8
:10321000021A00EE810AF0EE000A20EE200A81ED8B
:10322000000A92ED010AD2ED020A20EE200AD2ED48
:10323000000A92ED031A00EEC10AD0ED000A60EE1A
:10324000200A92ED011AD2ED011AB6EE000A01EE43
:10325000610AD2ED031A92ED032AB0EE401A01EE94
:10326000C21AD0ED011AB0EE600A01EE210AD2EDC9
:10327000020A92ED031A60EE810A92ED001AD2ED75
:10328000011A41EE210A90ED021A00EE810AF0EED9
:10329000000A20EE200A81ED010A92ED010AD2ED2A
:1032A000030A20EE200AD2ED000A92ED021A00EE87
:1032B000810AD0ED000A20EE200AD2ED020A92ED3A
:1032C000031A60EE810A92ED001AD2ED011A41EE66
:1032D000610A90ED011A00EE810A92ED011AD2ED19
:1032E000011AF6EE000A41EE610A92ED021AD2EDE1
:1032F000021A41EE610A90ED021A00EE810AF0EE28
:10330000000A20EE200A81ED020A704772B600BF63
:10331000FEE710B52DED028B0446B0EE408A04F1B5
:103320001800FFF741FD84ED070A94ED080AD4ED7B
:10333000070A70EE200A94ED070A20EE081A81EEC3
:10334000200AD4ED030A94ED081A60EE810A94ED88
:10335000081AD4ED071A31EE211AC0EE811A30EEA8
:10336000210A84ED030A208E02280EDD94ED031A53
:10337000F0EE410A94ED071AB0EE410A04F1340070
:1033800007F0FAFB84ED090A0BE094ED030AD4ED93
:10339000040A30EE600AD4ED070A80EE201A84EDAC
:1033A000091AB4F8600002280EDD94ED091AF0EE57
:1033B000410A94ED071AB0EE410A04F1640007F0E7
:1033C000DBFB84ED0A0A0BE094ED090AD4ED0B0A4D
:1033D00030EE600AD4ED070A80EE201A84ED0A1A56
:1033E00094ED000AD4ED030A20EE200AD4ED010A80
:1033F00094ED091A00EE810AD4ED020A94ED0A1A3E
:1034000000EE810A84ED240A94ED240AD4ED250A05
:10341000F1EE600AB4EEE00AF1EE10FA00D800E036
:1034200000BF94ED030A84ED040A94ED090A84EDCB
:103430000B0A94ED240ABDEC028B10BD10B50446B6
:103440009FED0A0A84ED0A0A84ED090A84ED030A55
:103450009FED060A84ED0B0A84ED040A84ED240A2C
:1034600004F11800FFF7A0FC10BD000000000000F0
:103470002DE9F0412DED028B04460D46B0EE408A59
:10348000F0EE608A16461F4684ED258A6DB164B160
:1034900095ED000A84ED000A95ED010A84ED010A1C
:1034A00095ED020A84ED020A0FE09FED170A84ED04
:1034B000000A9FED150A84ED010A9FED130A84EDC1
:1034C000020A9FED110A84ED250AC4ED088A2686BA
:1034D000A4F86070022E04DD314604F1340007F0D8
:1034E00031FC022F04DD394604F1640007F02AFCA8
:1034F00004F11800FFF758FC9FED030A84ED240A3D
:10350000BDEC028BBDE8F0810000000010B5202268
:103510000121DFED1B4A9FED1A4ADFED1A3A9FEDBC
:10352000193ADFED192A9FED192AF0EE041A9FEDE2
:10353000141ADFED170A9FED170A174807F0C2FFAC
:1035400020220121DFED0E4A9FED0D4ADFED0D3AFD
:103550009FED0C3ADFED0C2A9FED0C2AF0EE041AD9
:103560009FED071ADFED0A0A9FED0A0A0A48B830F4
:1035700007F0A8FF9FED090A074880ED740A10BD07
:103580000000000000007A440AD7A33CCDCCCC3D1B
:1035900000C0DA4500401C46A0C20020713DBE417B
:1035A00010B52DED028BB0EE408A0D48D0ED660AC5
:1035B000B0EE600AF0EE480A07F0D0FD084880ED52
:1035C000700AD0ED6E0AB0EE600AF1EE480AB8302B
:1035D00007F0C4FD024880ED710ABDEC028B10BDFE
:1035E000A0C2002000B501200EF006FE01200EF062
:1035F000F7FD02200EF0FAFD02200EF011FD002072
:103600000EF010FE00BD000030B5034613B94FF6B2
:10361000FF7030BD09E013F8014B82EA0400C0B22C
:10362000054D35F8100080EA2222081EA1F10101A3
:10363000F1D11046EDE700007C42010870B50A4860
:103640000468001D0568001D0668344454B1082252
:103650000649204605F00CFE042204491031284694
:1036600005F006FE70BD0000107AFF1F4E0000201E
:1036700010B5294807F0FCFE2748B83807F0F8FED7
:10368000264807F0F5FE2448B830FFF7D7FE244857
:10369000FFF7D4FE2148783890EDF60A80EDFA0A5B
:1036A0009FED200A00F5806080EDEC0A9FED1D0A79
:1036B000A0F5806080EDF40A00F5AC6007F0D8FE5C
:1036C000194807F0D5FE1648B83007F0D1FE174864
:1036D000FFF7B4FE15489830FFF7B0FE1248A8383F
:1036E000D0EDD30AB0EE600A00F5567008F044FB46
:1036F0000D48A83890EDD30A80EDD50A90EDD30A95
:1037000000F52C7080ED030A9FED060AA0F52C70E1
:1037100080EDED0A10BD0000E0BA002070B9002075
:1037200030BC002000000000A0BD002010BF002021
:103730002DED0C8B82B000BF2C48FDF73FFC2B48D1
:1037400090ED000AF0EE408A90ED010AB0EE409A4A
:1037500090ED020AB0EE408A88EE880A10EE104A18
:10376000204610F089FC41EC1D0BB0EE4D0AF0EE46
:103770006D0A0CF075FBB0EE40CAF0EE60CA51EC79
:103780001C0B0FF0B1FF41EC1B0B0FF0B9FF09EE62
:10379000900A89EE080A10EE104A204610F06CFCE0
:1037A00041EC1C0BB0EE4C0AF0EE6C0A0CF058FB2E
:1037B000B0EE40BAF0EE60BA51EC1B0B0FF0A0FF78
:1037C0000AEE100AF0EE4A0AB0EE690A05F0A8FA0D
:1037D00064200EF035FF08E00FF02CFD019005F09D
:1037E0000DFB012101A80EF059FFF5E754C600209A
:1037F00010B5B3EE0E1AF2EE040A9FED080A08485F
:10380000FEF7D6FEB3EE0E1AF2EE040A9FED030A9F
:1038100003483C38FEF7CCFE10BD0000DC0F4940E9
:1038200034B9002010B500220121DFED324A9FEDAE
:10383000324ADFED313A9FED303ADFED2F2A9FED2E
:103840002E2AF2EE081A9FED2C1ADFED2B0A9FEDBF
:103850002B0A2B4807F0CBFD01221146DFED264A4B
:103860009FED284ADFED243A9FED233ADFED222A2F
:103870009FED252AF2EE041A9FED1F1ADFED230AB1
:103880009FED230A1E48B83807F0B1FD4022012100
:10389000DFED184A9FED184ADFED173A9FED163A13
:1038A000DFED1C2A9FED142AF3EE041A9FED121A85
:1038B000DFED110A9FED110A174807F098FD052268
:1038C0000121DFED0D4A9FED0F4ADFED0B3A9FED31
:1038D0000A3ADFED092A9FED082ADFED101A9FED65
:1038E000061ADFED0F0A9FED0F0A0B48B83807F0F4
:1038F0007EFD10BD0AD7A33C000000000000FA4383
:10390000E0BA0020FAEDEB3A0000C84300007A4527
:1039100000409C45CDCCCC3D58BE00200000B442B8
:103920000000C84400C0DA450EB500220121DFEDD9
:10393000414A9FED414ADFED403A9FED3F3ADFEDCE
:103940003E2A9FED3D2AF3EE041A9FED3B1ADFED70
:103950003A0A9FED3A0A3A4807F0B4FD01221146AF
:10396000DFED354A9FED374ADFED333A9FED323ACE
:10397000DFED312A9FED342ADFED341A9FED2E1A48
:10398000DFED330A9FED330A2D48B83807F09AFD72
:1039900040220121DFED274A9FED274ADFED263A3D
:1039A0009FED253ADFED242A9FED232AF2EE041A3B
:1039B0009FED211ADFED200A9FED200A264807F02F
:1039C00081FD05220121DFED1C4A9FED1E4ADFED3E
:1039D0001A3A9FED193ADFED182A9FED172ADFED0D
:1039E0001F1A9FED151ADFED1E0A9FED1E0A1A48D9
:1039F000B83807F067FDDFED1C0A9FED1A0A1B4877
:103A000008F0D0F9DFED180A9FED190A17482830A1
:103A100008F0C8F9174A07CA8DE8070001231A46BB
:103A2000DFED150A69469FED150A1048A838FFF723
:103A30001FFD0EBD0AD7A33C000000000000FA43A2
:103A4000E0BA0020FAEDEB3A0000C8420000204244
:103A500000007A4500409C4558BE00200000F0421E
:103A60000000C84400A00C460AD7233C50C00020E8
:103A700000C8AF4710460108CDCC4C3D00C0DA4528
:103A800010B50DF02DFB0948D0EDD50AB0EE600A57
:103A900000F060FA0648D0EDFA0AB0EE600A00F0D5
:103AA0004DF900200349C87410BD0000F8BC002087
:103AB000F8B800205AC2002010B52D48D0F80300F5
:103AC0002C49C1F8CC072A48D0F80700C1F8C8072C
:103AD00027484078C0B30846D0EDFA0A2448D0F809
:103AE000030000EE100A30EEC00AB0EEC00ADFEDAF
:103AF000220AB4EEE00AF1EE10FA25D201F5806058
:103B0000D0EDD50A1A48D0F8070000EE100A30EEC2
:103B1000C00AB0EEC00ADFED190AB4EEE00AF1EE19
:103B200010FA11D2164890F8300102280CD101F594
:103B3000F96090ED010A084680EDFA0A00F5806010
:103B400090EDF20A80EDD50A01200E49C8740DF0FF
:103B5000C7FA0D48D0EDD50AB0EE600A00F0FAF9C8
:103B60000448D0EDFA0AB0EE600A00F0E7F810BDA4
:103B70004DC20020F8B800200000704200008C42C6
:103B800014B400205AC20020F8BC002010B53548FB
:103B9000D0F803003449C1F8CC073248D0F8070008
:103BA000C1F8C8072F484078E8B30846D0EDFA0AB4
:103BB0002C48D0F8030000EE100A30EEC00AB0EE38
:103BC000C00ADFED2A0AB4EEE00AF1EE10FA2AD2BA
:103BD00001F58060D0EDD50A2248D0F8070000EE4C
:103BE000100A30EEC00AB0EEC00ADFED210AB4EED2
:103BF000E00AF1EE10FA16D21E4890F830010228C1
:103C000011D11D4890F82A0001280CD101F5F96066
:103C100090ED010A084680EDFA0A00F5806090ED0B
:103C2000F20A80EDD50A14480079032803D1022056
:103C30001249C87405E010480079042801D10F49E1
:103C4000C8740DF04DFA0E48D0EDD50AB0EE600AFA
:103C500000F080F90448D0EDFA0AB0EE600A00F0F6
:103C60006DF810BD4DC20020F8B800200000704271
:103C700000008C4214B4002072C200205AC20020FE
:103C8000F8BC002000B5B0EE401AF0EE601A71EEFC
:103C9000610AB0EE600A0DF08DFAB0EE402A71EEC6
:103CA000610A9FED0E3A70EE830AB0EE600A0DF0E5
:103CB00081FAF0EE402AB0EEC20AF0EEE20AB4EE6B
:103CC000E00AF1EE10FA04D20020054981F8D1078C
:103CD00003E00120024981F8D10700BD0000344310
:103CE000F8B8002010B50EF0C3FA9FED100A0122BB
:103CF0000F49A1F1080006F09DFA9FED0C0A012280
:103D00000C49A1F1080006F095FA00240BE00A4ADC
:103D100002EB4411103A02EBC4009FED040A0022AA
:103D200006F04EFB641C022CF1DB10BD6666663F9C
:103D300000C6002010C8002020C4002010B52DEDC2
:103D4000028BB0EE408A114890EDFA1AF0EE410A6B
:103D500090EDF61AB0EE410A00F5F47007F0FEF9A6
:103D60000A4890ED871AF0EE410A90EDF51AB0EE90
:103D7000410A00F5987007F0F1F9054880EDEC0A6A
:103D800090EDEC0ABDEC028B10BD0000F8B80020ED
:103D9000F8BC002010B52DED068B2A48D0F8310074
:103DA00000EE100ADFED280A30EE600AB0EE408A1D
:103DB00018EE100A10F060F941EC1A0BB0EE4A0A46
:103DC000F0EE6A0A0CF0E0FAB0EE409AF0EE609A7B
:103DD0009FED1E0B53EC102B51EC190B10F020F83B
:103DE0002CD29FED1C0AF0EE401AB0EE480A0DF0FE
:103DF000E1F9B0EE401ADFED180A78EE200AB0EED5
:103E0000600A0DF0D7F9F0EE401AB0EEC10AF0EEFC
:103E1000E10AB4EEE00AF1EE10FA07D20F4890ED95
:103E2000D30A30EE010A80EDD50A06E00B4890ED8A
:103E3000D30A30EE210A80EDD50A00BFBDEC068B17
:103E400010BD0000F8B800209A994142000000001F
:103E50000000E03F000000000000B443F8BC002078
:103E600008B500BFB7EE000A344880EDEE0A3448CA
:103E7000002101604160334801604160FFF746FB6B
:103E8000FFF7B6FCFFF750FD08F074FB05F0BAFF32
:103E900006F048FE4FF47A700EF0D2FB00244BE09F
:103EA0000FF0C8F90090FFF71DFF2748D0F8310048
:103EB00000EE100ADFED250AFFF7E4FE2448007942
:103EC000052813D2DFE800F00306090C0F00FFF706
:103ED000CFFB0EE0FFF7D4FD0BE0FFF7EDFD08E0B0
:103EE000FFF754FE05E0FFF751FE02E0FFF7C0FBCD
:103EF00000BF00BF1648407910B1012806D102E08A
:103F000007F0CEFD05E007F075FD02E007F0C8FD03
:103F100000BF00BF05F0E4FF204604EBD07149105C
:103F2000A4EB410119B907F001FD0CF0FDFC641C84
:103F3000012168460EF0B2FBB2E70000F8BC002099
:103F40003906002031060020F8B800209A99414235
:103F500072C2002010B52DED028BB0EE408A1748DA
:103F6000D0EDD30AB0EE600AF0EE480A00F5B0706A
:103F700007F0F4F8B0EE480A1148FFF7CAF9114803
:103F800090ED0D0A0E48D0ED240A30EE200A0B48C1
:103F900080ED2A0A90ED2A1AF0EE410A90EDD21A2D
:103FA000B0EE410AA83007F0D9F8044880EDED0AD8
:103FB00090EDED0ABDEC028B10BD0000F8BC0020B6
:103FC000A8BF002058BE002010B5024692F820304D
:103FD000012B01D0022B06D11068406908431468F8
:103FE0006061002010BD506A40F4802050620120C2
:103FF000F8E7F0B504460D461E4694F82070206898
:104000008368A86800B900E000BF012F01D0022F2B
:104010007DD103F0806030B903F0006018B903F07F
:10402000805000287ED0C3F30161012088403060B9
:10403000A86860B9B5F800C0E86840EA4C5C206840
:1040400000F5C07000EB0110C0F800C00FE0D5E92A
:1040500001C040EACC00D5F80CC040EA0C00D4F80E
:1040600000C00CF5C07C0CEB011CCCF80000D5F8AE
:1040700010C0206800F5C07000EB0110C0F804C04B
:10408000287D01280ED1206800F5C07000EB0110DA
:10409000406840F4807C206800F5C07000EB01109F
:1040A000C0F804C0D079000692F806C040EA0C407F
:1040B00092F805C040EA0C2092F804C040EA0C00D7
:1040C000D4F800C00CF5C07C0CEB011CCCF80C0043
:1040D000D078000692F802C040EA0C4092F801C085
:1040E00040EA0C2092F800C040EA0C00D4F800C06E
:1040F0000CF5C07C0CEB011CCCF80800206800F526
:10410000C07000EB0110006840F0010C01E00FE00E
:1041100008E0206800F5C07000EB0110C0F800C096
:104120000020F0BD606A40F4001060620120F8E7F2
:10413000606A40F4802060620120F2E7F0B5044636
:104140000A4694F82050012D01D0022D7ED142491B
:1041500001F50071086840F001000860086820F46B
:104160007C5008600868566A40EA06200860107DA6
:1041700000F01F06012000FA06F3C8699843C861E1
:10418000A1F50071D069C8B9D1F80C029843C1F803
:104190000C02908880B2968940EA064601F51070BC
:1041A000576940F83760108880B2168940EA0646A1
:1041B00001F51070576900EBC7004660D06901280F
:1041C00019D1D1F80C021843C1F80C02908880B2C2
:1041D000168840EA064601F51070576940F83760C6
:1041E000908980B2168940EA064601F51070576939
:1041F00000EBC7004660906928B9D1F804029843E3
:10420000C1F8040204E0D1F804021843C1F8040222
:10421000106928B9D1F814029843C1F8140204E0D7
:10422000D1F814021843C1F81402106A012804D10D
:10423000D1F81C021843C1F81C02D1F8000220F08A
:104240000100C1F800020020F0BDFFE7606A40F401
:10425000802060620120F7E700640040704770B57D
:10426000044694F82050012D01D0022D7DD151B982
:104270002068C06800F0030080B9606A40F4001054
:104280006062012070BD2068006900F0030028B959
:10429000606A40F4001060620120F3E7206800F5D6
:1042A000D87000EB0110006800F004009060906886
:1042B00040B9206800F5D87000EB01100068400D8F
:1042C000106007E0206800F5D87000EB011000686E
:1042D000C0085060206800F5D87000EB011000683D
:1042E00000F00200D060206800F5D87000EB0110EB
:1042F000406800F00F00082802D30820106108E091
:10430000206800F5D87000EB0110406800F00F0045
:104310001061206800F5D87000EB0110406800F4CF
:104320007F40000A9061206800F5D87000EB011012
:104330004068000C5061206800F5D87000EB011057
:1043400080681870206800F5D87000EB0110806854
:1043500000F47F40000A5870206800F5D87000EB28
:104360000110806800F47F0000E03CE0000C9870D1
:10437000206800F5D87000EB01108068000ED8703E
:10438000206800F5D87000EB0110C0681871206833
:1043900000F5D87000EB0110C06800F47F40000AFF
:1043A0005871206800F5D87000EB0110C06800F467
:1043B0007F00000C9871206800F5D87000EB0110A8
:1043C000C068000ED87131B92068C06840F0200084
:1043D0002668F06005E02068006940F0200026684B
:1043E000306100204EE7606A40F480206062012066
:1043F00048E72DE9F05F04460025206846692068FB
:10440000D0F80490206887682068D0F80CA0206855
:10441000D0F810B02068D0F8188006F0010000280D
:1044200055D007F00100C0B101202168886007F075
:10443000020018B1204600F0D0FA0EE007F00400A8
:1044400010B145F4006508E007F0080010B145F42C
:10445000805502E0204600F0BFFA07F48070C8B132
:104460004FF480702168886007F4007018B120460E
:1044700000F0B5FA0EE007F4806010B145F4005585
:1044800008E007F4006010B145F4804502E02046E2
:1044900000F0A4FA07F48030C8B14FF480302168EE
:1044A000886007F4003018B1204600F09AFA0EE058
:1044B00007F4802010B145F4004508E007F400201F
:1044C00010B145F4803502E0204600F089FA06F08C
:1044D000080038B10AF0100020B145F40075102032
:1044E0002168C86006F0040040B10AF0080028B155
:1044F00008202168C860204600F01CFA06F002007F
:1045000038B12068C06800F0030010B1204600F008
:1045100012FA06F0400038B10BF0100020B145F45B
:10452000806510202168086106F0200040B10BF082
:10453000080028B1082021680861204600F00BFA25
:1045400006F0100038B12068006900F0030010B1D7
:10455000204600F001FA06F4003040B109F01000E6
:1045600028B1102021684860204600F005FA06F4C2
:10457000803040B109F0080028B108202168486067
:10458000204600F02FFA06F4004088B309F004003A
:1045900078B306F4807020B108F0010008B145F04E
:1045A000010506F4007020B108F0020008B145F0E2
:1045B000020506F4806020B108F0040008B145F05F
:1045C000040506F40060A0B108F0700088B108F09E
:1045D0007000402817D006DC10280BD020280CD003
:1045E000302819D10CE0502810D0602814D110E0E8
:1045F0001DE019E045F008050FE045F010050CE05E
:1046000045F0200509E045F0400506E045F080054D
:1046100003E045F4807500E000BF00BF20688069BA
:1046200020F07000216888610420216848602DB165
:10463000606A284360622046FFF710FEBDE8F09FE5
:1046400070B504460CB9012070BD94F8200010B973
:10465000204600F0AFF82068006840F001002168B3
:10466000086000F0D5FC05460DE000F0D1FC401BD1
:104670000A2808D9606A40F400306062052084F896
:1046800020000120E0E72068406800F001000028D9
:10469000EBD02068006820F002002168086000F07C
:1046A000B7FC05460DE000F0B3FC401B0A2808D912
:1046B000606A40F400306062052084F82000012028
:1046C000C2E72068406800F002000028EBD1207E9D
:1046D000012806D12068006840F080002168086049
:1046E00005E02068006820F0800021680860607E96
:1046F000012806D12068006840F040002168086069
:1047000005E02068006820F0400021680860A07E75
:10471000012806D12068006840F020002168086068
:1047200005E02068006820F0200021680860E07E35
:10473000012806D12068006820F010002168086078
:1047400005E02068006840F0100021680860207FC4
:10475000012806D12068006840F008002168086040
:1047600005E02068006820F0080021680860607F8C
:10477000012806D12068006840F004002168086024
:1047800005E02068006820F0040021680860D4E992
:104790000201084321690843616908436168491EB1
:1047A00008432168C86100206062012084F820006D
:1047B000002049E710B586B00446142101A8FBF794
:1047C000EBFE56492068884249D155480068401C94
:1047D000534908600846006801280FD100BF002037
:1047E00000905048006840F000704E49086008464C
:1047F000006800F00070009000BF00BF00BF002004
:10480000009048481038006840F0080045491039C9
:1048100008600846006800F00800009000BF00BF74
:1048200003200190022002900020039003200490B6
:104830000920059001A93C4800F0EAFA0022052170
:10484000142000F0ADFC142000F096FC002205219D
:10485000152000F0A5FC152000F08EFC5CE033492B
:104860002068884258D100BF002000902D48006881
:1048700040F080602B4908600846006800F08060C6
:10488000009000BF00BF26480068401C2449086013
:104890000846006801280FD100BF00200090214881
:1048A000006840F000701F4908600846006800F08A
:1048B0000070009000BF00BF00BF002000901948AA
:1048C0001038006840F002001649103908600846A8
:1048D000006800F00200009000BF00BF602001905F
:1048E00002200290002003900320049009200590EC
:1048F00001A90F4800F08CFA00220521402000F0A9
:104900004FFC402000F038FC00220521412000F03F
:1049100047FC412000F030FC06B010BD00640040B0
:104920001400002040380240000C024000680040A3
:1049300000040240704710B58AB0044601AB03AAD8
:1049400000212046FFF78BFC01AA03A92046FEF7B1
:1049500023FB0AB010BD704710B58AB0044601AB06
:1049600003AA01212046FFF77AFC01AA03A92046E9
:10497000FEF712FB0AB010BD704770B5044694F8FC
:104980002000012822D1022084F82000206800683D
:1049900020F001002168086000F03AFB05460DE0B8
:1049A00000F036FB401B0A2808D9606A40F400304A
:1049B0006062052084F82000012070BD20684068F6
:1049C00000F001000028EBD16062F6E7606A40F475
:1049D000002060620120F0E7704770477047704721
:1049E00070477047704770B50446A56D00F010FB26
:1049F000064694F83500022808D08020606500BF84
:104A0000002084F8340000BF012070BD20680068D9
:104A100020F01600216808602068406920F08000BE
:104A200021684861206C08B9A06C28B12068006832
:104A300020F00800216808602068006820F001006C
:104A40002168086010E000F0E3FA801B05280BD90C
:104A500020206065032084F8350000BF002084F822
:104A6000340000BF0320D0E72068006800F0010098
:104A70000028E8D194F85C103F208840A86001200D
:104A800084F8350000BF002084F8340000BF00BF68
:104A9000BBE7014691F83500022803D08020486525
:104AA00001207047052081F835000868006820F073
:104AB00001000A6810600020F3E70000F8B5044622
:104AC000002000908C4800684FF41651B0FBF1F7BD
:104AD000A56D2E6894F85C1008208840304098B18D
:104AE0002068006800F0040070B12068006820F0C1
:104AF00004002168086094F85C1008208840A860D1
:104B0000606D40F00100606594F85C100120884001
:104B1000304068B12068406900F0800040B194F8EE
:104B20005C1001208840A860606D40F00200606564
:104B300094F85C1004208840304068B12068006818
:104B400000F0020040B194F85C1004208840A86096
:104B5000606D40F00400606594F85C10102088409F
:104B6000304078B32068006800F0080050B394F833
:104B70005C1010208840A8602068006800F4802045
:104B800080B12068006800F4002028B9206CC8B10A
:104B90002046216C884715E0A06C98B12046A16C96
:104BA00088470FE02068006800F4807028B920680A
:104BB000006820F0080021680860206C10B12046D1
:104BC000216C884794F85C102020884030400028F1
:104BD00065D02068006800F0100000285FD094F8CD
:104BE0005C1020208840A86094F83500052828D162
:104BF0002068006820F0160021680860206840697D
:104C000020F0800021684861206C08B9A06C28B1B0
:104C10002068006820F008002168086094F85C10A3
:104C20003F208840A860012084F8350000BF0020A4
:104C300084F8340000BF206D10B12046216D8847F4
:104C4000F8BD2068006800F4802080B1206800680A
:104C500000F4002028B9606C10B12046616C8847D0
:104C60001DE0E06BD8B12046E16B884717E0206873
:104C7000006800F4807068B92068006820F01000B7
:104C800021680860012084F8350000BF002084F806
:104C9000340000BFE06B10B12046E16B8847606DC7
:104CA00038B3606D00F00100F0B1052084F83500E4
:104CB0002068006820F001002168086000BF0098AB
:104CC000401C0090B84200D905E02068006800F060
:104CD00001000028F3D100BF012084F8350000BF97
:104CE000002084F8340000BFE06C10B12046E16C75
:104CF000884700BFA4E70000880000202DE9F041AC
:104D00000446002500F084F9074614B90120BDE8E7
:104D1000F081606A00B100BF022084F8350000BF56
:104D2000002084F8340000BF2068006820F00100F3
:104D3000216808600AE000F06BF9C01B052805D95E
:104D400020206065032084F83500E0E720680068D3
:104D500000F001000028EED12068056821480540D8
:104D6000D4E901010843E168084321690843616906
:104D70000843A1690843E1690843216A08430543E0
:104D8000606A042803D1D4E90B0108430543206875
:104D900005602068456925F00705606A0543606A7B
:104DA00004280DD1A06A0543E06A48B12046FDF70A
:104DB0005BFA28B140206065012084F83500A6E741
:104DC000206845612046FDF735FA064694F85C10E8
:104DD0003F208840B06000206065012084F83500E5
:104DE000002094E73F8010F070B5044600F010F901
:104DF00006462546681C10B104480078054400BFEB
:104E000000F006F9801BA842FAD370BD8400002090
:104E1000F8B502460B460025002400200021D6E00C
:104E2000012606FA01F51E6806EA0504AC4274D1B3
:104E30001E7906F00306012E04D01E7906F0030643
:104E4000022E13D190684F000326BE40B0434F009E
:104E5000DE68BE4030439060506801268E40B0430B
:104E60001E79C6F300168E40304350601E7906F05E
:104E70000306032E09D0D0684F000326BE40B0437E
:104E80004F009E68BE403043D0601E7906F0030696
:104E9000022E13D1CF0802F1200656F827004E0744
:104EA000F70E0F26BE40B0434F07FF0E1E69BE40EF
:104EB0003043CF0802F1200646F8270010684F0063
:104EC0000326BE40B0431E7906F003064F00BE40E5
:104ED000304310605E6806F44036002E76D000BF86
:104EE000002600963C4E366846F480463A4F3E60B7
:104EF0003E46366806F48046009600BF00BF374E37
:104F00008F0856F827008E07370F0F26BE40B04394
:104F1000334EB24202D1002624E057E0314EB24275
:104F200001D101261EE0304EB24201D1022619E025
:104F30002E4EB24201D1032614E02D4EB24201D1D1
:104F400004260FE02B4EB24201D105260AE02A4E7C
:104F5000B24201D1062605E0284EB24201D1072611
:104F600000E008268F073F0FBE4030431B4E8F08DE
:104F700046F82700224E3068A0435E6806F480168B
:104F800006B120431E4E3060361D3068A0435E6877
:104F900006F4001606B12043194E361D3060184E37
:104FA000361F3068A0435E6806F4003606B1204321
:104FB000134E361F3060361F3068A0435E6806F41B
:104FC000803606B120430E4E083E3060491C102941
:104FD000FFF426AFF8BD0000443802400838014015
:104FE000000002400004024000080240000C0240A1
:104FF000001002400014024000180240001C024051
:10500000083C01400AB1816101E00B0483617047F3
:1050100001480068704700007C00002003480068D9
:105020000349097808440149086070477C00002062
:105030008400002010B50D48006840F400700B4952
:1050400008600846006840F4806008600846006810
:1050500040F480700860032000F0E0F80F2000F0BA
:1050600007F800F05FF8002010BD0000003C02408F
:105070002DE9F04188B004460027B84600BF002063
:1050800001902448006840F0010022490860084669
:10509000006800F00100019000BF00BF02A903A852
:1050A00001F064F8069F1FB901F088F8054602E098
:1050B00001F084F845001848B5FBF0F0A0F10108B4
:1050C0004FF080401549086040F2E7311348C16055
:1050D000C0F80480002101618160816101F0C4FD9C
:1050E000064696B90D4801F02FFE06466EB91C2003
:1050F00000F042F8102C07D2002221461C2000F0BC
:105100004FF80748046000E00126304608B0BDE8CB
:10511000F08100004038024040420F00DC100020C7
:105120008000002008B500BF0020009011480068F2
:1051300040F480400F4908600846006800F4804051
:10514000009000BF00BF00BF00200090081F006853
:1051500040F08050091F08600846006800F0805049
:10516000009000BF00BF00220F21901E00F018F831
:1051700008BD0000443802400146084600280DDB07
:1051800000BF00BF00F01F0301229A4043099B00AB
:1051900003F1E023C3F8002100BF00BF00BF704748
:1051A0002DE9F05F80460D46164600270AF018FDEF
:1051B000074639462A46334601F00700C0F1070A80
:1051C000BAF1040F02D94FF0040A01E0C0F1070A56
:1051D000D14600F1040ABAF1070F02D24FF0000ADB
:1051E00001E0A0F1030AD4464FF0010A0AFA09FAD5
:1051F000AAF1010A0AEA020A0AFA0CFA4FF0010BB4
:105200000BFA0CFBABF1010B0BEA030B4AEA0B04A4
:10521000214640460AF0ECFCBDE8F09F00BF00F0DC
:105220000702064B19684FF6FF031940044B0B4366
:1052300043EA0221014B196000BF70470CED00E00A
:105240000000FA057047024610684162002070476E
:10525000F0B5034615461868446A21B944EA05408A
:105260001E68B06219E01868806A04EB10440022DE
:1052700008E0186800F5827050F8220004EB104432
:10528000501CC2B2481E9042F3D844EA0547186841
:1052900000F582704E1E40F826700020F0BD10B55B
:1052A0000446D4F8E00408F030FC10BD70B50446A4
:1052B0000D4605EBC50304F1140101EB8301CA6837
:1052C0002946D4F8E00408F013FB70BD70B504461D
:1052D0000D4605EBC50304F5157101EB8301CA68A2
:1052E0002946D4F8E00408F08BFB70BD10B50446E5
:1052F000D4F8E00408F00CFC10BD2DE9F0410446A0
:105300000D4605F08000802808D105F00F0000EB65
:10531000C00104F1140000EB810607E005F00F0066
:1053200000EBC00104F5157000EB810631462068E2
:1053300009F044FE07463846BDE8F08170B50446E2
:105340000E4606F0800080280AD106F00F0000EB20
:10535000C00104F1140000EB81050120687009E030
:1053600006F00F0000EBC00104F5157000EB81059D
:105370000020687006F00F00287000BF94F89404B5
:10538000012801D1022070BD012084F8940400BFDF
:105390002946206809F0A0F900BF002084F8940491
:1053A00000BF00BFEFE770B504460E4606F00F00E1
:1053B0002179884201D9012070BD06F08000802843
:1053C0000AD106F00F0000EBC00104F1140000EB5D
:1053D00081050120687009E006F00F0000EBC001B4
:1053E00004F5157000EB8105002068700020A8709E
:1053F00006F00F00287000BF94F89404012801D132
:105400000220D9E7012084F8940400BF29462068CF
:1054100009F060FB00BF002084F8940400BF00BFC7
:10542000CAE7024601F00F0000EBC00302F5157059
:1054300000EB8300406970472DE9F04705460E46B2
:1054400090461F464FF0000906F0800080280AD1E0
:1054500006F00F0000EBC00105F1140000EB810421
:105460000120607009E006F00F0000EBC00105F5B7
:10547000157000EB81040020607006F00F002070B2
:10548000C8F30A00A0602771607808B120786083B3
:10549000022F01D10020607100BF95F8940401280B
:1054A00002D10220BDE8F087012085F8940400BFF6
:1054B0002146286809F01CF800BF002085F89404F4
:1054C00000BF4846EEE72DE9F04105460E46174677
:1054D000984606F00F0000EBC00105F5157000EBD3
:1054E0008104E760C4F8108000206061607006F0FD
:1054F0000F002070A879012800D1E761AA79214620
:10550000286809F07BFB0020BDE8F08170B50446F7
:105510000D4605F00F002179884201D9012070BDA8
:1055200005F0800080280AD105F00F0000EBC001D3
:1055300004F1140000EB81060120707007E005EB18
:10554000C50104F5157000EB810600207070012084
:10555000B07005F00F00307000BF94F8940401287B
:1055600001D10220DBE7012084F8940400BF31461A
:10557000206809F0F6FA05F00F0028B9A17904F2C5
:105580009C42206809F06EFA00BF002084F8940461
:1055900000BF00BFC3E72DE9F04105460E461746A0
:1055A000984606F00F0000EBC00105F1140000EB77
:1055B0008104E760C4F81080002060610120607001
:1055C00006F00F002070A879012800D1E761AA79C0
:1055D0002146286809F012FB0020BDE8F0812DE982
:1055E000FE4F0446D4F800B05E46206809F0C8FDBE
:1055F000002874D1206809F002FE08B9BDE8FE8FCA
:1056000040F608008059C0F30D20C4F8D404206887
:1056100009F0F5FD00F00200022805D1206840697C
:1056200000F0020021684861206809F0E8FD00F000
:105630001000102845D12068806920F010002168F2
:105640008861DBF8209009F00F0000EBC00104F541
:10565000157000EB810AC9F3434002281AD147F6BE
:10566000F07009EA000030B3C9F30A125846DAF8BC
:105670000C1009F0C9FDC9F30A11DAF80C0008444E
:10568000CAF80C00C9F30A11DAF814000844CAF881
:10569000140010E0C9F3434006280CD1082204F29C
:1056A0009C41584609F0B0FDC9F30A11DAF814001C
:1056B0000844CAF814002068806940F0100021688E
:1056C0008861206809F09BFD00F40020B0F5002FF0
:1056D0007BD10025206809F062FD029072E0E1E2D2
:1056E000029800F00100002868D0E9B2206809F0B3
:1056F00079FD804608F0010048B1012106F53060CF
:1057000000EB451081602946204605F0E9FB08F0D2
:105710000800082809D1082106F5306000EB451083
:1057200081602946204605F0A9FB08F010001028EA
:1057300005D1102106F5306000EB4510816008F0BE
:105740000200022824D1DBF8140000F08000802839
:1057500007D140F60400805940F4806140F604000F
:10576000815105EBC50104F5157000EB810A9AF82B
:105770000300012806D100208AF80300E9B2204680
:1057800000F09BFA022106F5306000EB45108160C5
:1057900008F02000202805D1202106F5306000EB1C
:1057A0004510816008F40050B0F5005F06D14FF459
:1057B000005106F5306000EB451081606D1C0298C9
:1057C00040080290029800288AD1206809F017FD4D
:1057D00000F48020B0F5802F7DD1206809F0D5FC41
:1057E000029000259AE0029800F00100002873D092
:1057F000E9B2206809F0DDFC804608F00100F0B352
:1058000005F00F0101208840019040F634008159D5
:10581000019821EA000040F634018851012106F583
:10582000106000EB45108160A079012824D105EBC0
:10583000C50104F1140000EB810005EBC502C1684D
:1058400004F1140000EB82008068014405EBC502FE
:1058500004F1140000EB8200C1606DB905EBC501D5
:1058600004F1140000EB8100006928B904F29C42A5
:105870000121206809F0F6F8E9B2204600E001E0D5
:10588000FFF714FD08F00800082805D1082106F5E7
:10589000106000EB4510816008F01000102805D161
:1058A000102106F5106000EB4510816008F0400003
:1058B000402805D1402106F5106000EB45108160BD
:1058C00008F0020002281DD12946584609F01BFCA9
:1058D00005EBC50101E025E01CE004F1140000EB3C
:1058E000810A9AF80300012806D100208AF80300F3
:1058F000E9B2204600F0D8F9022106F5106000EB6D
:105900004510816008F08000802803D12946204698
:1059100005F088FB6D1C0298400802900298002850
:105920007FF461AF206809F06AFC00F00040B0F13C
:10593000004F1CD140F60400805920F0010140F6D0
:105940000400815194F8CC04012807D1002084F888
:10595000CC0400212046FFF775FC02E0204600F051
:10596000D1FA2068406900F0004021684861206851
:1059700009F045FC00F40060B0F5006F0ED140F670
:105980000800805900F0010010B1204600F012FB21
:105990002068406900F4006021684861206809F0CF
:1059A0002EFC00F48050B0F5805F7ED140F60400FC
:1059B000805920F0010140F6040081511021206837
:1059C00009F0A1FB002732E04FF67F3106F51060A9
:1059D00000EB4710816006F5106000EB471000688F
:1059E00020F4001106F5106000EB471001604FF63F
:1059F0007F3106F5306000EB4710816006F53060BE
:105A000000EB4710006820F4001106F5306000EB51
:105A10004710016006F5306000EB4710006840F069
:105A2000006106F5306000EB471001607F1C2079B3
:105A3000B842C9D840F61C00805940F0011140F628
:105A40001C008151E07B70B1D6F8840840F00B0156
:105A5000C6F8841840F64400805940F00B0140F627
:105A6000440081510FE040F61400805942F22B01AE
:105A7000084340F614018851081F805940F00B017B
:105A80004FF401608151D6F8000820F4FE60C6F89A
:105A90000008A17904F29C42206808F0E3FF206826
:105AA000406900F48050216800E000E0486120680F
:105AB00009F0A5FB00F40050B0F5005F17D1206895
:105AC00008F07EFD206809F048FBE07100F070FBF3
:105AD0000090E2792068009909F018FC204600F057
