:020000040800F2
:1000000028CF002029030008DDA900084975000851
:10001000D9A900089F14000839F200080000000068
:10002000000000000000000000000000690200085D
:10003000552B000800000000C5020008EDBA0008BA
:100040004303000843030008430300084303000878
:100050004303000843030008430300084303000868
:100060004303000843030008430300084303000858
:10007000F91B00084303000843030008430300087A
:100080004303000843030008430300084303000838
:10009000A5140008B5140008430300084303000832
:1000A000430300084DBC0008430300084303000855
:1000B0005DBC000843030008430300084303000835
:1000C00043030008430300084303000843030008F8
:1000D0004303000841C900084303000855C900084C
:1000E00043030008430300084303000843030008D8
:1000F00043030008430300084303000843030008C8
:1001000043030008430300084303000843030008B7
:1001100043030008430300084303000843030008A7
:10012000091C0008191C0008291C0008391C0008BB
:100130004303000843030008430300084303000887
:10014000C5140008D514000843030008F9AB0008E3
:1001500043030008430300084303000869C900087B
:100160004303000843030008430300084303000857
:100170004303000843030008430300080000000095
:10018000430300084303000800F002F800F05CF8A5
:100190000AA090E8000C82448344AAF10107DA45E2
:1001A00001D100F051F8AFF2090EBAE80F0013F0D8
:1001B000010F18BFFB1A43F001031847404D01001F
:1001C000604D01000A444FF0000C10F8013B13F0A1
:1001D000070408BF10F8014B1D1108BF10F8015BA0
:1001E000641E05D010F8016B641E01F8016BF9D193
:1001F00013F0080F1EBF10F8014BAD1C0C1B09D1EA
:100200006D1E58BF01F801CBFAD505E014F8016B5B
:1002100001F8016B6D1EF9D59142D6D370470000ED
:100220000023002400250026103A28BF78C1FBD8FF
:10023000520728BF30C148BF0B6070471FB513F08D
:100240009EFE1FBD10B510BD00F0E5F91146FFF789
:10025000F5FF10F0D7FE00F003FA03B4FFF7F2FF4A
:1002600003BC00F007FA00002C4B19680868B0E8DE
:10027000F04F80F30988BFF36F8F4FF0000080F3D9
:10028000118870470000000008480068006880F38B
:1002900008884FF0000080F3148862B661B6BFF39F
:1002A0004F8FBFF36F8F00DF00BF00BF08ED00E08E
:1002B000DFF80C00016841F470010160704700BF75
:1002C00088ED00E0EFF30980BFF36F8F134B1A68DE
:1002D0001EF0100F08BF20ED108A20E9F04F1060CB
:1002E00009B44FF0500080F31188BFF34F8FBFF374
:1002F0006F8F12F0E9F94FF0000080F3118809BC0C
:1003000019680868B0E8F04F1EF0100F08BFB0EC95
:10031000108A80F30988BFF36F8F70478C0000202C
:10032000EFF30580704700000948804709480047FF
:10033000FEE7FEE7FEE7FEE7FEE7FEE7FEE7FEE795
:10034000FEE7FEE704480549054A064B70470000F2
:10035000D5BB00088901000828C9002028CF00204B
:1003600028CB002028CB002053EA020C00F0698043
:100370002DE9F04B4FF00006002B1FBFB3FA83F5B9
:1003800003FA05F424FA05F65E4012BF1643B2FAEA
:1003900082F502FA05F4C5F120051EBF22FA05FC1C
:1003A00044EA0C04203556EA044C4FEA144418BFC2
:1003B000641C4FF000084FF00009904271EB030CF1
:1003C00039D3002919BFB1FA81F701FA07F6B0FA5B
:1003D00080F700FA07F6C7F120071EBF20FA07FCD6
:1003E00046EA0C062037B6FBF4FCA7EB0507103FE6
:1003F00007F01F0BCBF120060CFA0BFB2CFA06F6CC
:1004000044BFB3460026202FA4BF5E464FF0000B2A
:100410005BEA060C08BF4FF0010B19EB0B09ABFBB5
:10042000027C48EB0608C01B06FB02CC0BFB03CC8E
:1004300071EB0C01C1E70B46024641464846BDE858
:10044000F08B13B54FF000004FF00001AFF30080C8
:10045000BDE81C407047032A40F2308010F0030CC6
:1004600000F0158011F8013BBCF1020F624498BF07
:1004700011F801CB00F8013B38BF11F8013BA2F1A4
:10048000040298BF00F801CB38BF00F8013B11F01F
:10049000030300F02580083AC0F0088051F8043BBF
:1004A000083A51F804CBA0E80810F5E7121D5CBF2C
:1004B00051F8043B40F8043BAFF30080D20724BF5F
:1004C00011F8013B11F801CB48BF11F8012B24BFF3
:1004D00000F8013B00F801CB48BF00F8012B704742
:1004E00010B5203AC0F00B80B1E81850203AA0E8CF
:1004F0001850B1E81850A0E81850BFF4F5AF5FEA03
:10050000027C24BFB1E81850A0E8185044BF18C9B5
:1005100018C0BDE810405FEA827C24BF51F8043B5C
:1005200040F8043B08BF7047D20728BF31F8023BB0
:1005300048BF11F8012B28BF20F8023B48BF00F844
:10054000012B704702F0FF0343EA032242EA024212
:1005500000F002B84FF000020429C0F0128010F041
:10056000030C00F01B80CCF1040CBCF1020F18BF8F
:1005700000F8012BA8BF20F8022BA1EB0C0100F022
:100580000DB85FEAC17C24BF00F8012B00F8012BF5
:1005900048BF00F8012B70474FF0000200B513462A
:1005A00094469646203922BFA0E80C50A0E80C5093
:1005B000B1F12001BFF4F7AF090728BFA0E80C5044
:1005C00048BF0CC05DF804EB890028BF40F8042B3D
:1005D00008BF704748BF20F8022B11F0804F18BFAA
:1005E00000F8012B704770477047704710B500F056
:1005F0000DF8006810BD10B5044600F007F804605F
:1006000010BD000000487047C8C80020004870476F
:10061000C8C8002070477546FFF7F4FFAE460500D6
:100620006946534620F00700854618B020B5FFF70D
:1006300089FEBDE820404FF000064FF000074FF064
:1006400000084FF0000B21F00701AC46ACE8C009F0
:10065000ACE8C009ACE8C009ACE8C0098D467047F9
:1006600010B50446AFF300802046BDE81040FFF708
:10067000F4BD000001491820ABBEFEE726000200D1
:100680009FED221A9FED222A20EE010AB5EE001AF4
:1006900030EE010ABDEEC01A11EE100AB5EE400AA6
:1006A000F1EE10FAB8BF013801EE100AB8EEC11A27
:1006B00030EE410A20EE020ABDEEC01A9FED152A67
:1006C00011EE100A002130EE021AB1EB502F44F265
:1006D000F8611CBF0020B0EE410AC0F6010101EE36
:1006E000100A01EB8001B8EE411A30EE410A91ED9B
:1006F000001A91ED012AB7EE003A33EE403A23EEAC
:10070000011A20EE020A31EE000A704783F9223EF8
:1007100000000044000000C4B0B5B0F800C00B8871
:100720009C4553D145884B889D424FD113889C45A9
:100730004CD153889D4249D143684968506805FBB4
:100740000CFC0022B2EB9C0F30D04FEA9C0200BFA1
:1007500093ED000A91ED001A03F1100E30EE010A3C
:1007600080ED000A93ED010A91ED011A01F11004E8
:1007700030EE010A80ED010A93ED020A91ED021AB2
:1007800000F1100530EE010A80ED020A93ED030A34
:1007900091ED031A013A30EE010A80ED030A734627
:1007A00028462146D4D12146284673461CF0030230
:1007B0000AD000BFB3EC010AB1EC011A013A30EEE5
:1007C000010AA0EC010AF5D1002000E0FD2040B2B2
:1007D000B0BD018042804360704700002DE9F04FBA
:1007E00081B02DED028B8EB0B0F800C0B0F802A041
:1007F000D44540F03A810B88FD229C4540F036817B
:100800004F88BB4240F0328140689FEDB08ABCF116
:10081000000F009000F031814C686FF0030000EB96
:100820008C09002700266546CDF828C0204609948B
:100830000A98401B08D0B1002046FFF7ADFE3846AD
:10084000013004F10404FBD304F1040BB5F10108F9
:100850004FF07E50206012D0A9EB86015846FFF77A
:100860009BFE01205C4600BF0130854204F1040478
:10087000FAD10136013FB8F1000F4546D8D1DDF875
:1008800028C0BCF1000F00F0F8804FEACA00043025
:1008900002900998009900EB8A00C0F10009042039
:1008A00000EB8A00ACF1010801EB8A054FEA8A03EC
:1008B000019001F1040B4FF0000E0F465646002048
:1008C0000A460490039300BF0EFB0AF002EB80017E
:1008D00091ED000A0C910999B5EE400AF1EE10FA7B
:1008E00001EB80000D90CDF82080CDE906950B92AC
:1008F0002ED10EF1010060450DD20020414600BF0F
:100900002A1892ED000AB5EE400AF1EE10FA06D16F
:1009100001391844F4D10498012817D0D4E0A0EB91
:100920000900002157F82130146842F8043B47F8C9
:10093000214001318E42F5D10D9A51461368046869
:1009400040F8043B013942F8044BF7D101200490F0
:100950000C99AAEB0E0991ED008AB9F1010F4FF045
:100960007E5008600DD00120594600BF91ED000A6D
:10097000013080EE080A864281ED000A01F104018F
:10098000F4D10D995046CDF814B000BF91ED000A96
:10099000013880EE080AA1EC010AF7D1DDF82C80BD
:1009A0000998A9F1010B0022654600BF724505D1E7
:1009B00008EB890300EB8A0036E000BF0C9998ED44
:1009C000008A91ED000ABBF1000F28EE000A38EE14
:1009D000400A88ED000A17D00123042107EB010C1F
:1009E00008EB01049CED000A94ED001A28EE000AC1
:1009F000013331EE400A9E4201F1040184ED000A08
:100A0000ECD108EB010301E008F104030D9C514611
:100A1000B4EC011A90ED000A28EE011A30EE410AFA
:100A2000A0EC010A0139F3D103EB8E08013D02F17C
:100A30000102BBD1079D02980B9ADDF82080054486
:100A4000039BDDF818900198DDF814B0DDF828C09C
:100A50000432013E0EF1010EA8F10108A9EB0309D1
:100A6000074483447FF430AF09E0FD2250B20EB05A
:100A7000BDEC028B01B0BDE8F08F00200490B5EE14
:100A8000408AF1EE10FA4FF00002EFD104980128ED
:100A9000ECD00AFB0CF14FF000004FF0000271B1F6
:100AA000009B00BF93ED000AB5EE400AF1EE10FA8C
:100AB00005D10132914203F10403F3D10A468A427F
:100AC00008BF6FF00400D2E7FB22CFE70000000070
:100AD0002DE9F04F85B047880B889F4240F0848015
:100AE000B0F800B013889B4540F07E80B1F802E07A
:100AF00053889E4578D1D0F80480506849680190A9
:100B0000BC0827F0030008EB800604FB0EF09FED05
:100B1000390A07F0030C029101EB00104FEA8E0234
:100B200000210090CDE903E70198DDF808A0009BC3
:100B300000EB8109B0EE401A5746404674B3554663
:100B400027464046B0EE401A95ED002A90ED003A57
:100B5000154490ED014A23EE022A95ED003A154422
:100B600090ED025A31EE021A24EE032A95ED003A76
:100B7000154490ED036A31EE021A25EE032A95ED35
:100B8000003A31EE021A26EE032A31EE021A013F34
:100B900000F110001544D7D11F463046BCF1000FBC
:100BA0000CD0654690ED002A97ED003A043022EE15
:100BB000032A31EE021A013D1744F3D1A9EC011AC0
:100BC000BEF1010E0AF1040A03F10403B2D1DDF80B
:100BD0000CE0049F714408EB8708BBF1010B06EBA6
:100BE0008706A1D1002000E0FD2040B205B0BDE89D
:100BF000F08F00BF00000000B0B5B0F800C00B8857
:100C00009C4553D145884B889D424FD113889C45C4
:100C10004CD153889D4249D143684968506805FBCF
:100C20000CFC0022B2EB9C0F30D04FEA9C0200BFBC
:100C300093ED000A91ED001A03F1100E30EE410A17
:100C400080ED000A93ED010A91ED011A01F1100403
:100C500030EE410A80ED010A93ED020A91ED021A8D
:100C600000F1100530EE410A80ED020A93ED030A0F
:100C700091ED031A013A30EE410A80ED030A734602
:100C800028462146D4D12146284673461CF003024B
:100C90000AD000BFB3EC010AB1EC011A013A30EE00
:100CA000410AA0EC010AF5D1002000E0FD2040B28D
:100CB000B0BD00002DE9F04FB0F800A04A88924581
:100CC00045D142880B889A4241D1D1F804C0466888
:100CD0004FEA920802F003094FEA0A1E4FEA8A011E
:100CE0004FF0000B624600BFB8F1000F1AD0154656
:100CF000474600BF336828462B6073680D44435055
:100D0000B3686C186B50F56806F1100366186550EF
:100D1000013F06EB01051E46ECD100EB0E071E4617
:100D200002E000BF0CEB8B07B9F1000F06D048467C
:100D300056F8043B01383B600F44F9D10BF1010B2D
:100D4000BAF1010A02F10402CED1002000E0FD2038
:100D500040B2BDE8F08F00009FED201A9FED202AE1
:100D600020EE010ABDEEC01A11EE100AB5EE400ADF
:100D7000F1EE10FAB8BF013801EE100AB8EEC11A50
:100D800030EE410A20EE020ABDEEC01A9FED152A90
:100D900011EE100A002130EE021AB1EB502F44F28E
:100DA000F8611CBF0020B0EE410AC0F6010101EE5F
:100DB000100A01EB8001B8EE411A30EE410A91EDC4
:100DC000001A91ED012AB7EE003A33EE403A23EED5
:100DD000011A20EE020A31EE000A704783F9223E22
:100DE00000000044000000C408B500BF642011F0FA
:100DF00021FB0E4801F0AAFC012011F01BFB13E0BF
:100E000012F012F90090094801F0A0FC07480C38D4
:100E100080ED040A0AF08EFB04480C3810F00EF83E
:100E20000421684611F034FBEAE70000B8C800204E
:100E300070B505460C4600260DB1022C00D870BDD9
:100E4000A11E06480288284602F0B0F80646A01EF9
:100E50002E54310A601E295400BFF0E7A001002083
:100E600010B500220121DFED324A9FED324ADFED5D
:100E7000313A9FED303ADFED2F2A9FED2E2AF2EE28
:100E8000081A9FED2C1ADFED2B0A9FED2B0A2B4839
:100E90000AF0E3F901221146DFED264A9FED284AC8
:100EA000DFED243A9FED233ADFED222A9FED252A3C
:100EB000F2EE041A9FED1F1ADFED230A9FED230ABD
:100EC0001E48B8380AF0C9F940220121DFED184A5E
:100ED0009FED184ADFED173A9FED163ADFED1C2A19
:100EE0009FED142AF3EE041A9FED121ADFED110A9A
:100EF0009FED110A17480AF0B0F905220121DFED34
:100F00000D4A9FED0F4ADFED0B3A9FED0A3ADFEDF8
:100F1000092A9FED082ADFED101A9FED061ADFED72
:100F20000F0A9FED0F0A0B48B8380AF096F910BD6A
:100F30000AD7A33C000000000000FA43A0BA00203A
:100F4000FAEDEB3A0000C84300007A4500409C45AA
:100F5000CDCCCC3D18BE00200000B4420000C844F7
:100F600000C0DA4510B501221021024803F004FD4B
:100F700010BD00000000024010B500221021024800
:100F800003F0FAFC10BD00000000024010B5012281
:100F90001146024803F0F0FC10BD000000040240BE
:100FA00010B500220121024803F0E6FC10BD00004C
:100FB0000004024010B50446FFF7DEFF922000F067
:100FC000A5F906229549122000F080F9FFF7CAFF23
:100FD00092484078000200B290490978084390494D
:100FE00008800846B0F9000000EE100AB8EEC00A0A
:100FF0008C48D0ED000A20EE200AD4ED080A20EE3D
:10100000200A84ED000A8548C078000200B28349B6
:1010100089780843824908800846B0F9000000EE4C
:10102000100AB8EEC00A7F48D0ED000A20EE200A70
:10103000D4ED080A20EE200A84ED010A77484079B1
:10104000000200B2754909790843754908800846CD
:10105000B0F9000000EE100AB8EEC00A7148D0EDF9
:10106000000A20EE200AD4ED080A20EE200A84EDC2
:10107000020AFFF795FF08226849002000F026F9D0
:10108000FFF784FF654800780F284FD16648007845
:10109000F0B36248C078000200B260498978084322
:1010A0005F49088094ED090A0846B0F9000000EE97
:1010B000900AF8EEE00A5D4890ED001A10EE810A01
:1010C00084ED030A55484079000200B2534909797A
:1010D00008435349088094ED0A0A0846B0F9000015
:1010E00000EE900AF8EEE00A504890ED001A10EE7B
:1010F000810A84ED040A4948C079000200B24749D8
:10110000897908434649088094ED0B0A084600E0B7
:101110000DE0B0F9000000EE900AF8EEE00A434856
:1011200090ED001A10EE810A84ED050A44E03B4878
:10113000C078000200B239498978084338490880EC
:101140000846B0F9000000EE100AB8EEC00A3748B1
:10115000D0ED000A20EE200A84ED030A2F484079E2
:10116000000200B22D49097908432D49088008463C
:10117000B0F9000000EE100AB8EEC00A2B48D0ED1E
:10118000000A20EE200A84ED040A2448C0790002F7
:1011900000B2224989790843214908800846B0F9FC
:1011A000000000EE100AB8EEC00A2048D0ED000A98
:1011B00020EE200A84ED050AFFF7DEFEA22000F0F3
:1011C000A5F802221549222000F080F8FFF7CAFE98
:1011D00012480078C0001149497840EA611010496E
:1011E00008800846B0F90000B0F5806F05DB0846BE
:1011F0000088A0F5006000B208800948B0F900003E
:1012000000EE100AF8EEC00AB4EE001AB3EE070AB8
:1012100000EE810A84ED070A10BD0000E6050020FB
:10122000EE050020A8050020B8050020AC05002030
:1012300070B504460D461C48046000201B49087028
:101240000FF078F8194909780843184908700FF029
:1012500027F9164909780843144908701DB1144844
:1012600000F0B0F91CE09FED130A114880ED090A67
:101270009FED110A80ED0A0A9FED100A80ED0B0A1E
:101280009FED0F0A80ED0C0A90ED0C0ADFED0D0AC0
:1012900080EE801A80ED081A9FED0B0A80ED060A99
:1012A0000248007870BD0000A4050020B2050020AF
:1012B000A4C60020CB27383B77A49EBBD0A4E03A3D
:1012C00024631E41C3F51C410000204270B5064650
:1012D0000C46154646F0800000F018F806E0552050
:1012E00000F014F82070641C681EC5B2002DF6D101
:1012F00070BD70B504460D4644F0800000F006F85D
:10130000552000F003F8287070BD000001B582B0D0
:101310004FF47A70012301AA02A9009003480068E3
:1013200004F0DCFF9DF804000EBD0000A4050020C1
:1013300070B505460C462846FFF7E8FF2046FFF744
:10134000E5FF70BDD2ED020A92ED021AB6EE000A78
:1013500000EEC10AD2ED030A92ED031A00EEC10AB3
:10136000D0ED000A20EE200AD2ED010A92ED021A19
:1013700060EE810A92ED001AD2ED031A41EE610A85
:1013800090ED011A00EE810AD2ED010A92ED031AE6
:1013900060EE810A92ED001AD2ED021A41EE210AA6
:1013A00090ED021A00EE810AF0EE000A20EE200A0B
:1013B00081ED000A92ED010AD2ED020A20EE200A28
:1013C000D2ED000A92ED031A00EE810AD0ED000A78
:1013D00060EE200A92ED011AD2ED011AB6EE000A73
:1013E00001EE610AD2ED031A92ED032AB0EE401A23
:1013F00001EEC21AD0ED011AB0EE600A01EE210A28
:10140000D2ED020A92ED031A60EE810A92ED001A03
:10141000D2ED011A41EE610A90ED021A00EE810A46
:10142000F0EE000A20EE200A81ED010A92ED010A99
:10143000D2ED030A20EE200AD2ED000A92ED021A44
:1014400000EEC10AD0ED000A20EE200AD2ED020A19
:1014500092ED031A60EE810A92ED001AD2ED011AA4
:1014600041EE210A90ED011A00EE810A92ED011A77
:10147000D2ED011AF6EE000A41EE610A92ED021A6F
:10148000D2ED021A41EE610A90ED021A00EE810AD5
:10149000F0EE000A20EE200A81ED020A704700BF3C
:1014A000FEE7000010B5024802F05DFC10BD000030
:1014B000D40C002010B5024802F055FC10BD00000D
:1014C000D40C002010B5024802F04DFC10BD000005
:1014D000FC0C002010B5024802F045FC10BD0000D5
:1014E000FC0C00200346042B15D007DC7BB1012B3C
:1014F0000ED0022B0DD0032B12D10BE0202B0BD0E2
:10150000212B0AD0222B09D0232B09D107E008E098
:1015100007E006E005E004E003E002E001E000E0AF
:1015200000BF00BF002070470020704710B50022A8
:10153000044905480BF0BBFC044903480BF0A8FC28
:10154000002010BDE81D00200C110020E81500202F
:1015500070B504460D46214607482A68FEF77BFF12
:10156000054809F0F1FC214604480BF091FC0348C2
:101570000BF05AFC002070BD78C200200C11002036
:1015800010B503460C460021084610BD2DE9F04178
:1015900004460D4600260A48D0F8BC72D7F814025B
:1015A00010B10120BDE8F0812A46214604480BF025
:1015B0007EFC03480BF02EFD06463046F2E70000A5
:1015C0000C11002070B52DED048B88B0044600206E
:1015D0000690079001F0E0F8FE4880ED000A00BF99
:1015E00001F0DAF8FB48D0ED000A30EE600AF2EEC6
:1015F000040AB4EEE00AF1EE10FA14DD9FEDF60AEB
:1016000084ED090A9FEDF50A84ED0A0A9FEDF40ABC
:1016100084ED0B0A9FEDF30A84ED0C0A9FEDF20AAC
:1016200084ED060A57E29FEDF10A01F071F89FED93
:10163000F00A84ED0C0A9FEDEE0A84ED090A9FED95
:10164000EC0A84ED0A0A9FEDEA0A84ED0B0A0026F3
:1016500073E1FFF791FC9220FFF758FE062206A9DE
:101660001220FFF733FEFFF77DFC9DF81900000202
:1016700000B29DF8181040EA010500EE105AB8EECD
:10168000C00ADC48D0ED000A20EE200A84ED000AF2
:101690009DF81B00000200B29DF81A1040EA0105F7
:1016A00000EE105AB8EEC00AD248D0ED000A20EE83
:1016B000200A84ED010A9DF81D00000200B29DF889
:1016C0001C1040EA010500EE105AB8EEC00AC948E5
:1016D000D0ED000A20EE200A84ED020AD4ED000AC3
:1016E00060EEA00A94ED011AD4ED011A41EE210A30
:1016F00094ED021AD4ED021A41EE210AB0EE600A0E
:101700000EF04CFDB0EE408A94ED0C0A30EE080A63
:1017100084ED0C0AFFF744FC082206A90020FFF71D
:10172000D5FDFFF733FC9DF818000F2850D19DF828
:101730001B00000200B29DF81A1040EA010500EEFD
:10174000105AB8EEC00AAC48D0ED000A20EE200ACC
:1017500084ED030A94ED090AD4ED030A30EE200A61
:1017600084ED090A9DF81D00000200B29DF81C10CE
:1017700040EA010500EE105AB8EEC00A9E48D0EDCE
:10178000000A20EE200A84ED040A94ED0A0AD4ED42
:10179000040A30EE200A84ED0A0A9DF81F000002B8
:1017A00000B29DF81E1040EA010500EE105AB8EE96
:1017B000C00A9148D0ED000A20EE200A84ED050A07
:1017C00094ED0B0AD4ED050A30EE200A84ED0B0AE5
:1017D00006BBF0EE488AB0EE489A002017E004F10C
:1017E0000C0101EB800191ED000A03A901EB8001DE
:1017F00081ED000A04F10C0101EB800191ED000A7A
:10180000694601EB800181ED000A411CC8B2032842
:10181000E5DB49E0B4EEE88AF1EE10FA01DDF0EE26
:10182000488AB4EEC98AF1EE10FA01D2B0EE489AB5
:10183000002037E004F10C0101EB800191ED000A7A
:1018400003A901EB8001D1ED000AB4EEE00AF1EE4C
:1018500010FA0ADD04F10C0101EB800191ED000AA0
:1018600003A901EB800181ED000A04F10C0101EBF9
:10187000800191ED000A694601EB8001D1ED000A7B
:10188000B4EEE00AF1EE10FA0AD204F10C0101EB19
:10189000800191ED000A694601EB800181ED000AAB
:1018A000411CC8B20328C5DB38EEC90A534880ED95
:1018B000000A002012E003A901EB800191ED000A6B
:1018C000694601EB8001D1ED000A30EE600A4C4917
:1018D00001EB800181ED000A411CC8B20328EADB5C
:1018E000464890ED000AF6EE000AB4EEE00AF1EE8A
:1018F00010FA1BDC424890ED000ADFED420AB4EE1C
:10190000E00AF1EE10FA11DC90ED010ADFED3D0A7C
:10191000B4EEE00AF1EE10FA08DC90ED020ADFED19
:10192000390AB4EEE00AF1EE10FA00DD0AE09FEDAC
:10193000360A00F0EDFE701C86B2344800888642FC
:10194000FFF687AE00BFD4ED0C0A3048008800EEE9
:10195000100AB8EE400A80EE801A84ED0C1A0020BE
:1019600015E004F1240101EB8001D1ED000A2749C3
:10197000098800EE101AB8EE400A80EE801A04F1D1
:10198000240101EB800181ED001A411CC8B203283B
:10199000E7DBFFF7F1FAA220FFF7B8FC022206A965
:1019A0002220FFF793FCFFF7DDFA9DF81800C00036
:1019B0009DF8191040EA6115B5F5806F02DBA5F5B9
:1019C000006005B200EE105AF8EEC00AB4EE001A3C
:1019D0001EE00000E0050020CB27383B77A49EBB2B
:1019E000D0A4E03A24631E41000020420AD7A33B62
:1019F00000000000A8050020AC050020B405002070
:101A000098C600209A99193E6F12033AE405002007
:101A1000B3EE070A00EE810A84ED060A3448008816
:101A2000401C00B232490880324890ED000AF6EEC0
:101A3000000AB4EEE00AF1EE10FA3FF7D1AD94EDF2
:101A40000C0ADFED2D0A30EE600AB0EEC00AF6EEA9
:101A5000000AB4EEE00AF1EE10FAEEDC274890ED51
:101A6000000A5FED180AB4EEE00AF1EE10FAE4DCC9
:101A700090ED010A5FED1D0AB4EEE00AF1EE10FAF6
:101A8000DBDC90ED020A5FED210AB4EEE00AF1EE34
:101A900010FAD2DC94ED090AB0EEC00ADFED180AA4
:101AA000B4EEE00AF1EE10FAC7DC94ED0A0AB0EEEB
:101AB000C00ADFED130AB4EEE00AF1EE10FABCDC66
:101AC00094ED0B0AB0EEC00ADFED0D0AB4EEE00AA9
:101AD000F1EE10FAB1DC00BF94ED0C0ADFED090A5B
:101AE00080EE801A84ED081A08B0BDEC048B70BD3E
:101AF000BA050020B4050020CDCC1C4198C60020BA
:101B00000AD7233CC3F51C4170B58AB006460C4683
:101B1000154604950020069007900820089020683C
:101B200002906068039001AB02AA04A9304601F05C
:101B30001AFF0AB070BD000008B500BF002440F2D3
:101B4000DC5010F077FC2CE011F06EFA0090E117F9
:101B500004EB91718910A4EB810101291BD109F0DB
:101B60003BFC104810490A680260496841604FF424
:101B7000A87201460D48FFF7C7FF09F02BFC0C487F
:101B80000C490A6802604968416040F251120146FE
:101B90000648FFF7B9FF601C84B20121684610F0C7
:101BA00077FCD1E7090600204B050020D40C00206B
:101BB000110600205305002010B504460D4890F88A
:101BC0002800022806D1D4ED040AB0EE600A00F025
:101BD00049FC0DE0074890F84000022806D1D4EDFA
:101BE000040AB0EE600A0DF08FFD01E010F0FEF87F
:101BF00010BD0000FCB3002010B5024802F018FC34
:101C000010BD00000410002010B5024802F010FCC6
:101C100010BD00007C0D002010B5024802F008FC49
:101C200010BD00006410002010B5024802F000FC56
:101C300010BD0000A40F002010B5024802F0F8FB10
:101C400010BD0000DC0D0020014608781038182374
:101C5000B0FBF3F20848805CC865032A05D9086820
:101C60006FF30900001D886503E008686FF3090041
:101C70008865886D704700002040010801460020FB
:101C80008A6A8B69CBB932B1012A0DD0022A03D0FE
:101C9000032A10D10EE000BFCB6A03F08073B3F1CA
:101CA000807F00D1012007E0CB6AB3F1C07F00D173
:101CB000012001E000E000BF34E08B69B3F5005F74
:101CC0001AD132B1012A07D0022A03D0032A11D136
:101CD0000AE000BF01200EE0CB6A03F08073B3F18D
:101CE000807F00D1012006E0CB6AB3F1C07F00D134
:101CF000012000E000BF15E032B1012A05D0022A20
:101D000004D0032A0CD103E000BF00BF012008E08B
:101D1000CB6A03F08073B3F1807F00D1012000E033
:101D200000BF00BF7047000010B590F83930012B9C
:101D300005DD9D4B1C680C605B684B6010BD12B1EB
:101D400090F8263043B9994B1C680C605B684B6077
:101D5000012380F8263024E1012A05D1944B1C6828
:101D60000C605B684B601CE1036800EE103AD0F831
:101D70001E3000EE903AF1EE600AB4EEE00AF1EEA9
:101D800010FA06D8D0F81E3000EE103AB1EE400A34
:101D900013E0036800EE103AD0F81E3000EE903ADF
:101DA000B4EEE00AF1EE10FA04DBD0F81E3000EEDB
:101DB000103A02E0036800EE103A10EE103A0360A9
:101DC000436800EE103AD0F8223000EE903AF1EE7F
:101DD000600AB4EEE00AF1EE10FA06D8D0F822302C
:101DE00000EE103AB1EE400A13E0436800EE103AFC
:101DF000D0F8223000EE903AB4EEE00AF1EE10FA9C
:101E000004DBD0F8223000EE103A02E0436800EE26
:101E1000103A10EE103A4360C36800EE103AD0F862
:101E20001A3000EE903AB1EE601ADFED621ADFED83
:101E3000620A41EE210AB4EEE00AF1EE10FA0CD883
:101E4000D0F81A3000EE103AF1EE400A9FED591A20
:101E50009FED590A00EE810A1FE0C36800EE103AB8
:101E6000D0F81A3000EE903ADFED521A9FED521A78
:101E700010EEA11AB4EEC10AF1EE10FA0ADBD0F8A6
:101E80001A3000EE903A9FED4B1A9FED4B0A10EE80
:101E9000810A02E0C36800EE103A10EE103AC36007
:101EA0004389002B01DC002305E04389052B01DB7E
:101EB000052300E0438943810389002B01DC0023D3
:101EC00007E00389B3F5FA7F02DB4FF4FA7300E011
:101ED00003890381036800EE103AD0F81E3000EE4B
:101EE000903A80EE201ADFED350A9FED340A01EEBC
:101EF000200ABCEEC00A10EE103A0382436800EEDE
:101F0000103AD0F8223000EE903A80EE201ADFED41
:101F10002C0A9FED2B0A01EE200ABCEEC00A10EE3F
:101F2000103A4382C36800EE103ADFED220A80EED9
:101F3000201AD0F81A3000EE103AC1EE000A9FEDD8
:101F4000201A9FED1F0A00EE810ABCEEC00A10EEB7
:101F5000103A0383038983824389C382038A1B0A5D
:101F60005BB20B70037C5BB24B70438A1B095BB2A4
:101F70008B70037C1B01848A43EA14235BB2CB7011
:101F8000037D5BB20B71C38A1B095BB24B71837D0E
:101F90001B02048B43EA14235BB28B71037E5BB29A
:101FA000CB7100BFCAE600003205002022050020E8
:101FB0002A05002000007A440000C84200000047C3
:101FC0000000004500211A30017310EE101A416024
:101FD00010EE901A016011EE101A81601A387047E5
:101FE00030B58478457844EA0522C478240105791F
:101FF00044EA251400EE104A4479057905F00F05EE
:1020000044EA0524344D2C8084791D314C77C47901
:102010008C77F8EE400A9FED311A70EEC10ADFEDC1
:102020002F1A80EEA11AD1F8054000EE904A61EE19
:10203000200A10EE904ACC604A8100EE902AF8EE19
:10204000600A9FED271A70EEC10ADFED251A80EEB7
:10205000A11ADFED241ADFED230A41EE210A10EE6A
:10206000904A4C6100EE902AF8EE600A9FED1C1A2F
:1020700070EEC10ADFED1A1A80EEA11ADFED1A1A0E
:10208000DFED190A41EE210A10EE904A8C612C46D0
:10209000248800EE904AF8EE600A9FED101A70EE68
:1020A000C10ADFED0E1A80EEA11A51F8034C00EEC2
:1020B000904A61EE200A9FED0D1A60EE810A10EE43
:1020C000904A0C6103781C110C770C7F1D3914B9F0
:1020D000002481F8264030BD200500200000004586
:1020E0000000004700003443DB0F494000007A4401
:1020F0003B494988A1F58060002801DB014600E0EA
:10210000414232290FDD36484088A0F5806000EE5C
:10211000100AB8EEC00ADFED330A80EE201A32480A
:1021200080ED001A04E09FED310A2F4880ED000A8F
:102130002B490988A1F58060002801DB014600E0F9
:10214000414232290FDD26480088A0F5806000EE6C
:10215000100AB8EEC00ADFED230A80EE201A2248EA
:1021600080ED011A04E09FED210A1F4880ED010A6D
:102170001F48407A012822D119498988A1F5806039
:10218000002801DB014600E04142322911DD1448FC
:102190008088A0F5806000EE100AB8EEC00AB1EEAB
:1021A000400ADFED100A80EE201A0F4880ED021A77
:1021B00014E09FED0E0A0C4880ED020A0EE00C4878
:1021C0008079032805D1B7EE000A074880ED020A9E
:1021D00004E09FED060A044880ED020A7047000003
:1021E00086B8002000002544ACC800200000000094
:1021F000C2C2002070B504460D462078617840EADE
:102200000120C0F30A0028806078C010A17840EA5D
:102210004110C0F30A006880A0788011E17840EA9C
:102220008100217940EA8120C0F30A00A88020794A
:102230004010617940EAC110C0F30A00E88060797B
:10224000C0F301102881607981096981A079E17961
:1022500040EA012000B26882207A617A40EA0120D7
:1022600000B2A882A07AE17A40EA012000B2E882B6
:10227000207B2876607B6876E0896883207C617C9F
:1022800040EA0120A881002605E005EB46001E215A
:1022900009F0BEF9761C042EF7DB9FED030A034814
:1022A00007F0DAFE70BD00000AD7A33C14B400208A
:1022B00020498988A1F58060002801DB014600E003
:1022C0004142322914DD1B488088A0F58060B4218A
:1022D00048434FF4257190FBF1F000EE900AB8EE00
:1022E000E01A1548D0EDD90A41EE400AC0EDD90AEE
:1022F0001049C988A1F58060002801DB014600E093
:102300004142322915DD0B48C088A0F5806000EB02
:10231000800000014FF4257190FBF1F000EE900A6F
:10232000B8EEE01A0548D0EDFE0A41EE000AC0ED15
:10233000FE0A704786B80020A8BC0020A8B800207C
:1023400008B541480068006800F0200060B100BF97
:10235000002000903C480068006800903A480068FF
:102360004068009000BF6EE03848006800F0100040
:10237000002868D000BF0020009033480068006843
:102380000090314800684068009000BF00BF3048AE
:102390000068006800F4002058BB2D480068006801
:1023A00020F001002A49096808602948006840684F
:1023B000C0F1240027490880242025490968486085
:1023C00023480068006840F400202149096808603B
:1023D0001F480068006840F001001D490968086056
:1023E0001C48008812282ED11B491C48FFF702FF09
:1023F00029E017480068006820F0010014490968C6
:102400000860134800684068C0F124001149088042
:1024100024200F49096848601148806A20F4002090
:102420000F4988620A480068006840F001000849C6
:102430000968086007480088122804D1064907483F
:102440002430FFF7D7FE08BD140F002000480040DD
:10245000041000201E05002086B800203EB8002091
:102460000060024010B52DED028BB0EE408A0024D2
:102470009548008A94490989884204D19248C189C3
:102480004089814200D00124904890F82800022819
:102490000BD08D4840898C49C88108460089088244
:1024A0000FF0A4FCBDEC028B10BD87480089012809
:1024B00064D0022802D003287DD15BE082484089A5
:1024C000012838D0022802D003284ED102E00FF0B4
:1024D0008DFC4DE08CB101200FF088FD00200FF045
:1024E00097FC02200FF076FD01200FF08FFD0020F9
:1024F0000FF092FD02200FF073FD744890F8300148
:10250000022803D0B0EE480AFFF7D2FE6E490988D0
:10251000A1F58060002801DB014600E041429629D8
:1025200004DD01206A4981F8A00103E00020684928
:1025300081F8A0011CE08CB101200FF057FD0220B2
:102540000FF066FC00200FF061FD01200FF042FD4E
:1025500000200FF061FD01200FF042FDB0EE480AAF
:10256000FFF7A6FEFFF7C4FD02E00FF03FFC00BF3F
:1025700000BF9EE001200EF084FC9AE052484089A2
:10258000012861D0022802D003287CD11BE08CB145
:1025900001200FF02BFD02200FF03AFC00200FF07D
:1025A00035FD01200FF016FD00200FF035FD022053
:1025B0000FF016FD00E079E0B0EE480AFFF778FE74
:1025C000FFF796FD70E08CB101200FF00FFD0320A6
:1025D0000FF01EFC00200FF019FD01200FF0FAFC97
:1025E00000200FF019FD02200FF0FAFCB0EE480AAF
:1025F000FFF75EFEFFF77CFD3648807903281DD18A
:102600003148C089032805D03348C08A401C00B235
:102610003149C8823049B1F9160000EBD071491038
:10262000A0EB410101290ED12B4890ED020AFFEEEB
:10263000000A20EE200A80ED020A04E09FED270A3E
:10264000254880ED020A2FE074B101200FF0CEFC86
:1026500001200FF0DBFC01200FF0BCFC00200FF08C
:10266000DBFC02200FF0BCFC00200FF0D1FBB0EE31
:10267000480AFFF71DFE14490988A1F5806000286B
:1026800002DB014601E00CE04142962904DD012015
:102690000F4981F8A00103E000200D4981F8A00155
:1026A00002E00FF0A3FB00BF00BF02E00FF09EFBB3
:1026B00000BF00BF044840890349C881084600891B
:1026C000088200BFEEE6000086B80020FCB30020C0
:1026D000D8C40020C2C20020ACC800200000000006
:1026E00008B5084840680090074900980968884282
:1026F00004D206480068401C04490860024900985A
:10270000086008BD001000E0F0040020EC04002088
:102710000C494868F0EE400A00BF0A494968091AA6
:1027200001EE101AF8EE411A074991ED001AB8EEC1
:10273000411A20EE811AF4EEC11AF1EE10FAECD330
:1027400070470000001000E0E004002010B52DEDFF
:10275000028B82B004460E484068019020680199BF
:10276000081A00EE100AF8EE400A0A4890ED000A36
:10277000B8EE400A80EE801AB0EE418A01982060DF
:10278000FFF7AEFFB0EE480A02B0BDEC028B10BD01
:10279000001000E0E004002010B52DED028B00F0E9
:1027A0005DF81148D0E90221104611F072FB00EEED
:1027B000100A0D48D0ED000AF8EE608ADFED0B0A32
:1027C00040EE208AD0E90421104611F062FB00EEB1
:1027D000100ADFED070A40EE208AB0EE688AB0EEFC
:1027E000480ABDEC028B10BDD8B700206F12833AA7
:1027F000BD3786351249096841F08071104A116071
:102800000021104A51601146096841F00101116030
:102810000D4941430D4A1160114609684FF47A721F
:10282000B1FBF2F10A4A116008490968064AB1FB96
:10283000F2F1084A11600021074A11607047000058
:10284000FCED00E0001000E040420F00E00400203A
:10285000E4040020E8040020EC04002038B52D48F2
:1028600040680090FFF73CFF2B4800684FF0FF31B5
:10287000A0FB01300099591840F10000274AC2E935
:102880000010274800232549026803C9FDF76CFDA5
:10289000244A03C2234806C8214800680024A1FB3B
:1028A000003502FB005001FB04011C48D0E9002068
:1028B000D21A60EB01001C49C1E9002019480068E8
:1028C0001A4908601A4800231749026803C9FDF72E
:1028D0004BFD164AC2E902011046D0E90213144822
:1028E0000068A1FB002503FB005001FB04010E481A
:1028F000D0E900309A1A60EB01000E49C1E90020CE
:102900000D480023026803C9FDF72EFD074AC2E9FE
:10291000040138BD001000E0EC040020F8040020A1
:10292000E00400200005002008050020D8B70020A2
:10293000E404002010050020E804002070B50546DE
:102940000E461446764885420CD130680D2809D1D0
:1029500074492046FFF744FB9FED730A734807F064
:102960007BFBDCE0724885420ED130680B280BD12E
:102970006C493C392046FFF733FB9FED6B0A6B48EF
:10298000183007F069FBCAE06548854228D140F25B
:1029900007213068884223D16078217840EA0120FD
:1029A00000B26449A1F87001E078A17840EA012002
:1029B00001B26048A0F872116079217940EA0120E3
:1029C00001B25C48A0F87411A07941B2594880F86E
:1029D00076119FED590A5548303007F03DFB9EE0D7
:1029E0004F48854227D13068B0F5027F23D1607807
:1029F000217840EA012001B24E48A0F87811E07831
:102A0000A17840EA012001B24A48A0F87A11607921
:102A1000217940EA012001B24648A0F87C11A07952
:102A200041B2444880F87E119FED430A3F48483048
:102A300007F012FB73E03E48854223D140F20621A5
:102A4000306888421ED16078217840EA012000B2C7
:102A50003A49A1F87001E078A17840EA012001B27A
:102A60003648A0F872116079217940EA012001B25C
:102A70003248A0F874119FED320A2C48603007F0FC
:102A8000EBFA4CE02A48854223D140F20521306818
:102A900088421ED16078217840EA012000B229499D
:102AA000A1F88001E078A17840EA012001B2254830
:102AB000A0F882116079217940EA012001B2214811
:102AC000A0F884119FED1E0A1848783007F0C4FA68
:102AD00025E0174885420FD13068B0F5B07F0BD1A3
:102AE000194821680160616841609FED180A0F482C
:102AF000A83007F0B1FA12E00D4885420FD140F23C
:102B00006111306888420AD111482168016061680A
:102B100041609FED0E0A0548C03007F09DFA70BD78
:102B2000FC0C0020E4B800200AD7233B44B400206A
:102B3000D40C0020F0C200208FC2F53BD8C4002086
:102B40004260653BD8C600203A0500205839B43BA6
:102B5000420500207047D2ED020A92ED021AB6EE4D
:102B6000000A00EEC10AD2ED030A92ED031A00EE4C
:102B7000C10AD0ED000A20EE200AD2ED010A92ED42
:102B8000021A60EE810A92ED001AD2ED031A41EEAC
:102B9000210A90ED011A00EE810AD2ED010A92EDB0
:102BA000031A60EE810A92ED001AD2ED021A41EE8C
:102BB000610A90ED021A00EE810AF0EE000A20EEA2
:102BC000200A81ED000A92ED010AD2ED020A20EE00
:102BD000200AD2ED000A92ED031A00EEC10AD0EDF0
:102BE000000A60EE200A92ED011AD2ED011AB6EE4B
:102BF000000A01EE610AD2ED031A92ED032AB0EE4B
:102C0000401A01EEC21AD0ED011AB0EE600A01EED0
:102C1000210AD2ED020A92ED031A60EE810A92EDCA
:102C2000001AD2ED011A41EE210A90ED021A00EECF
:102C3000810AF0EE000A20EE200A81ED010A92EDF1
:102C4000010AD2ED030A20EE200AD2ED000A92ED2D
:102C5000021A00EE810AD0ED000A20EE200AD2ED21
:102C6000020A92ED031A60EE810A92ED001AD2ED8B
:102C7000011A41EE610A90ED011A00EE810A92ED0F
:102C8000011AD2ED011AF6EE000A41EE610A92ED48
:102C9000021AD2ED021A41EE610A90ED021A00EE1C
:102CA000810AF0EE000A20EE200A81ED020A704748
:102CB00072B600BFFEE710B52DED028B0446B0EEF4
:102CC000408A04F11800FFF741FD84ED070A94EDF6
:102CD000080AD4ED070A70EE200A94ED070A20EEE8
:102CE000081A81EE200AD4ED030A94ED081A60EE6A
:102CF000810A94ED081AD4ED071A31EE211AC0EEBC
:102D0000811A30EE210A84ED030A208E02280EDD9E
:102D100094ED031AF0EE410A94ED071AB0EE410A61
:102D200004F1340007F05CFE84ED090A0BE094ED39
:102D3000030AD4ED040A30EE600AD4ED070A80EEEF
:102D4000201A84ED091AB4F8600002280EDD94ED13
:102D5000091AF0EE410A94ED071AB0EE410A04F1A7
:102D6000640007F03DFE84ED0A0A0BE094ED090AC9
:102D7000D4ED0B0A30EE600AD4ED070A80EE201A7B
:102D800084ED0A1A94ED000AD4ED030A20EE200A1D
:102D9000D4ED010A94ED091A00EE810AD4ED020A7D
:102DA00094ED0A1A00EE810A84ED240A94ED240AB7
:102DB000D4ED250AF1EE600AB4EEE00AF1EE10FA65
:102DC00000D800E000BF94ED030A84ED040A94EDFE
:102DD000090A84ED0B0A94ED240ABDEC028B10BDA8
:102DE00010B504469FED0A0A84ED0A0A84ED090A2B
:102DF00084ED030A9FED060A84ED0B0A84ED040AB4
:102E000084ED240A04F11800FFF7A0FC10BD0000B7
:102E1000000000002DE9F0412DED028B04460D4627
:102E2000B0EE408AF0EE608A16461F4684ED258A91
:102E30006DB164B195ED000A84ED000A95ED010ACB
:102E400084ED010A95ED020A84ED020A0FE09FED80
:102E5000170A84ED000A9FED150A84ED010A9FED23
:102E6000130A84ED020A9FED110A84ED250AC4EDD0
:102E7000088A2686A4F86070022E04DD314604F12B
:102E8000340007F093FE022F04DD394604F164009C
:102E900007F08CFE04F11800FFF758FC9FED030AC1
:102EA00084ED240ABDEC028BBDE8F0810000000037
:102EB00010B520220121DFED1B4A9FED1A4ADFEDFC
:102EC0001A3A9FED193ADFED192A9FED192AF0EE13
:102ED000041A9FED141ADFED170A9FED170A174821
:102EE00008F026FA20220121DFED0E4A9FED0D4A5F
:102EF000DFED0D3A9FED0C3ADFED0C2A9FED0C2A29
:102F0000F0EE041A9FED071ADFED0A0A9FED0A0A98
:102F10000A48B83008F00CFA9FED090A074880ED1E
:102F2000740A10BD0000000000007A440AD7A33CD8
:102F3000CDCCCC3D00C0DA4500401C46F0C200209C
:102F4000713DBE4110B52DED028BB0EE408A0D48AB
:102F5000D0ED660AB0EE600AF0EE480A08F034F8E8
:102F6000084880ED700AD0ED6E0AB0EE600AF1EE0E
:102F7000480AB83008F028F8024880ED710ABDEC24
:102F8000028B10BDF0C2002000B501200FF02EF81A
:102F900001200FF01FF802200FF022F802200EF09F
:102FA00037FF00200FF038F800BD000030B50346B1
:102FB00013B94FF6FF7030BD09E013F8014B82EAF8
:102FC0000400C0B2054D35F8100080EA2222081E28
:102FD000A1F10101F1D11046EDE7000040400108E8
:102FE00070B50A480468001D0568001D0668344471
:102FF00054B108220649204605F0B6FD04220449D2
:103000001031284605F0B0FD70BD0000107AFF1F9A
:103010004E00002010B5294808F060F92748B8385C
:1030200008F05CF9264808F059F92448B830FFF751
:10303000D7FE2448FFF7D4FE2148883890EDFA0ADD
:1030400080EDFE0A9FED200A00F5806080EDF00A19
:103050009FED1D0AA0F5806080EDF80A00F5AE60D6
:1030600008F03CF9194808F039F91648B83008F06A
:1030700035F91748FFF7B4FE15489830FFF7B0FE52
:103080001048B830D0EDD70AB0EE600A00F55A709B
:1030900008F0AAFD0B48B83090EDD70A80EDD90AA8
:1030A00090EDD70A00F5307080ED030A9FED060A17
:1030B000A0F5307080EDF10A10BD0000A0BA00202C
:1030C00030B90020F0BB00200000000060BD0020EF
:1030D000D0BE00202DED0C8B82B000BF2C48FDF738
:1030E00069FF2B4890ED000AF0EE408A90ED010A4E
:1030F000B0EE409A90ED020AB0EE408A88EE880A5F
:1031000010EE104A204610F099FE41EC1D0BB0EE77
:103110004D0AF0EE6D0A0CF0A3FDB0EE40CAF0EEE1
:1031200060CA51EC1C0B10F0D9F941EC1B0B10F0EC
:10313000E1F909EE900A89EE080A10EE104A2046DD
:1031400010F07CFE41EC1C0BB0EE4C0AF0EE6C0A69
:103150000CF086FDB0EE40BAF0EE60BA51EC1B0BFD
:1031600010F0C8F90AEE100AF0EE4A0AB0EE690A49
:1031700005F090FA64200FF05DF908E00FF054FFBD
:10318000019005F0F5FA012101A80FF081F9F5E7AA
:10319000A4C6002010B5B3EE0E1AF2EE040A9FED9D
:1031A000080A0848FEF70EFFB3EE0E1AF2EE040A04
:1031B0009FED030A03483C38FEF704FF10BD0000F2
:1031C000DC0F4940E4B8002010B500220121DFEDFA
:1031D000324A9FED324ADFED313A9FED303ADFED72
:1031E0002F2A9FED2E2AF2EE081A9FED2C1ADFED02
:1031F0002B0A9FED2B0A2B4808F02FF801221146CD
:10320000DFED264A9FED284ADFED243A9FED233A71
:10321000DFED222A9FED252AF2EE041A9FED1F1AF8
:10322000DFED230A9FED230A1E48B83808F015F891
:1032300040220121DFED184A9FED184ADFED173AD1
:103240009FED163ADFED1C2A9FED142AF3EE041AC7
:103250009FED121ADFED110A9FED110A174807F0D2
:10326000FCFF05220121DFED0D4A9FED0F4ADFED46
:103270000B3A9FED0A3ADFED092A9FED082ADFEDB0
:10328000101A9FED061ADFED0F0A9FED0F0A0B488B
:10329000B83807F0E2FF10BD0AD7A33C00000000D9
:1032A0000000FA43A0BA0020FAEDEB3A0000C84350
:1032B00000007A4500409C45CDCCCC3D18BE002096
:1032C0000000B4420000C84400C0DA4500B587B031
:1032D00000220121DFED494A9FED494ADFED483ADE
:1032E0009FED473ADFED462A9FED452AF3EE041A9B
:1032F0009FED431ADFED420A9FED420A424808F073
:1033000017F801221146DFED3E4A9FED404ADFEDFE
:103310003C3A9FED3B3ADFED3A2A9FED3D2ADFED47
:103320003D1A9FED371ADFED3C0A9FED3C0A364807
:10333000B83807F0FDFF40220121DFED304A9FED54
:10334000304ADFED2F3A9FED2E3ADFED2D2A9FED2B
:103350002C2AF2EE041A9FED2A1ADFED290A9FEDBE
:10336000290A2F4807F0E4FF05220121DFED244A56
:103370009FED264ADFED223A9FED213ADFED202A2C
:103380009FED1F2ADFED271A9FED1D1ADFED260A9C
:103390009FED260A2248B83807F0CAFFDFED240A5D
:1033A0009FED220A234808F035FCDFED210A9FED4E
:1033B000220A2048283008F02DFC204A07CA04AB16
:1033C00007C301231A46DFED1E0A04A99FED1D0A5B
:1033D0001848A838FFF71EFD184A0C3207CA01AB7F
:1033E00007C301231A46DFED160A01A9B7EE000A4A
:1033F00010486030FFF70EFD07B000BD0AD7A33CB0
:10340000000000000000FA43A0BA0020FAEDEB3AF9
:103410000000C8420000204200007A4500409C4560
:1034200018BE00200000F0420000C84400A00C4676
:103430000AD7233C10C0002000C8AF47D44301087E
:10344000CDCC4C3D00C0DA4510B50DF041FD0B4927
:103450000B4800F09BF90B48D0EDD90AB0EE600A9A
:1034600000F032FA0648D0EDFE0AB0EE600A00F035
:1034700061F900200449C87410BD0000C2C20020D8
:10348000A8B80020A8BC0020AAC2002010B52E4871
:10349000D0F803002D49C1F870082B48D0F8070078
:1034A000C1F86C0828484078D0B30846D0EDFE0A31
:1034B0002548D0F8030000EE100A30EEC00AB0EE46
:1034C000C00ADFED230AB4EEE00AF1EE10FA27D2CB
:1034D00001F58060D0EDD90A1B48D0F8070000EE56
:1034E000100A30EEC00AB0EEC00ADFED1A0AB4EEE0
:1034F000E00AF1EE10FA13D2174890F830010228D2
:103500000ED101F66C0090ED010A084680EDFE0A2E
:1035100000F5006090ED1B0AA0F5806080EDD90AEF
:1035200001200E49C8740DF0D3FC0D48D0EDD90A26
:10353000B0EE600A00F0C8F90448D0EDFE0AB0EE23
:10354000600A00F0F7F810BD9DC20020A8B8002066
:103550000000704200008C42FCB30020AAC2002090
:10356000A8BC002010B53748D0F803003649C1F890
:1035700070083448D0F80700C1F86C08314840782A
:10358000F0B30846D0EDFE0A2E48D0F8030000EE56
:10359000100A30EEC00AB0EEC00ADFED2C0AB4EE1D
:1035A000E00AF1EE10FA2ED201F58060D0EDD90AD2
:1035B0002448D0F8070000EE100A30EEC00AB0EE42
:1035C000C00ADFED230AB4EEE00AF1EE10FA1AD2D7
:1035D000204890F83001022815D11F4890F82B00A0
:1035E000012810D101F66C0090ED010A084680ED2B
:1035F000FE0A00F5006090ED1B0AA0F5806000E077
:1036000001E080EDD90A14480079032803D1022093
:103610001249C87405E010480079042801D10F4907
:10362000C8740DF055FC0E48D0EDD90AB0EE600A12
:1036300000F04AF90448D0EDFE0AB0EE600A00F04E
:1036400079F810BD9DC20020A8B80020000070428B
:1036500000008C42FCB30020C2C20020AAC200209D
:10366000A8BC002000B51A48D0F8310000EE900A3E
:103670009FED181A70EEC10AB0EE600A0DF092FCD0
:10368000134880ED1E0AD0ED1E0A9FED131A70EE4E
:10369000810AB0EE600A0DF085FC0D4880ED1F0A2E
:1036A00090ED1E0AB0EEC00AD0ED1F0AF0EEE00A5F
:1036B000B4EEE00AF1EE10FA04D20020044981F8D9
:1036C000740803E00120024981F8740800BD00007D
:1036D000A8B80020805018410000344310B50EF007
:1036E000C1FC9FED100A01220F49A1F1080006F06C
:1036F000D5FC9FED0C0A01220C49A1F1080006F04F
:10370000CDFC00240BE00A4A02EB4411103A02EB14
:10371000C4009FED040A002206F086FD641C022C02
:10372000F1DB10BD6666663F50C6002060C8002011
:1037300070C4002010B52DED028BB0EE408A114808
:1037400090EDFE1AF0EE410A90EDFA1AB0EE410A41
:1037500000F5FC7007F038FC0A4890ED8B1AF0EE8B
:10376000410A90EDF91AB0EE410A00F5A07007F099
:103770002BFC054880EDF00A90EDF00ABDEC028BC1
:1037800010BD0000A8B80020A8BC002070B50446F9
:103790000D4694F8800038B394F88000012804D1D5
:1037A000A879E871022084F8800004F5806090ED2B
:1037B000D70AD4ED1E0A30EE200A80EDD90A94ED26
:1037C0001E0AB0EEC00AF6EE000AB4EEE00AF1EE10
:1037D00010FA06D2002084F88000E8790EF018FB79
:1037E00070BD00200EF014FB00BFF9E708B500BF64
:1037F000B7EE000A304880ED180A30480021016019
:1038000041602F4801604160FFF752FBFFF7C2FCA7
:10381000FFF75CFD08F0F0FD06F018FA07F0B6F8C7
:103820004FF47A700EF006FE002444E00FF0FCFB2B
:103830000090FFF753FFFFF715FF22480079052896
:1038400013D2DFE800F00306090C0F00FFF7E2FBDC
:103850000EE0FFF7F9FD0BE0FFF718FE08E0FFF7B9
:1038600081FE05E0FFF77EFE02E0FFF7D3FB00BF1D
:1038700000BF1448407910B1012806D102E008F0D9
:103880004BF805E007F0F2FF02E008F045F800BF52
:1038900000BF06F049FA204604EBD0714910A4EBB2
:1038A000410119B907F07EFF0CF03EFF641C0121B5
:1038B00068460EF0EDFDB9E7A8C000202106002003
:1038C00019060020C2C2002010B52DED028BB0EE0B
:1038D000408A1748D0EDD70AB0EE600AF0EE480AE9
:1038E00000F5B87007F070FBB0EE480A1148FFF71A
:1038F000E2F9114890ED0D0A0E48D0ED240A30EEA1
:10390000200A0B4880ED2E0A90ED2E1AF0EE410AA7
:1039100090EDD61AB0EE410AB83007F055FB0448D6
:1039200080EDF10A90EDF10ABDEC028B10BD0000B4
:10393000A8BC002068BF002018BE002010B50246B9
:1039400092F82030012B01D0022B06D1106840697B
:10395000084314686061002010BD506A40F4802064
:1039600050620120F8E7F0B504460D461E4694F873
:10397000207020688368A86800B900E000BF012FAC
:1039800001D0022F7DD103F0806030B903F00060D8
:1039900018B903F0805000287ED0C3F301610120E4
:1039A00088403060A86860B9B5F800C0E86840EAAF
:1039B0004C5C206800F5C07000EB0110C0F800C03E
:1039C0000FE0D5E901C040EACC00D5F80CC040EAD0
:1039D0000C00D4F800C00CF5C07C0CEB011CCCF83A
:1039E0000000D5F810C0206800F5C07000EB011091
:1039F000C0F804C0287D01280ED1206800F5C070F1
:103A000000EB0110406840F4807C206800F5C07035
:103A100000EB0110C0F804C0D079000692F806C08F
:103A200040EA0C4092F805C040EA0C2092F804C02D
:103A300040EA0C00D4F800C00CF5C07C0CEB011C73
:103A4000CCF80C00D078000692F802C040EA0C4096
:103A500092F801C040EA0C2092F800C040EA0C0045
:103A6000D4F800C00CF5C07C0CEB011CCCF80800AD
:103A7000206800F5C07000EB0110006840F0010CF8
:103A800001E00FE008E0206800F5C07000EB0110D5
:103A9000C0F800C00020F0BD606A40F40010606211
:103AA0000120F8E7606A40F4802060620120F2E7BC
:103AB000F0B504460A4694F82050012D01D0022D9D
:103AC0007ED1424901F50071086840F001000860AC
:103AD000086820F47C5008600868566A40EA0620AE
:103AE0000860107D00F01F06012000FA06F3C86987
:103AF0009843C861A1F50071D069C8B9D1F80C022A
:103B00009843C1F80C02908880B2968940EA064634
:103B100001F51070576940F83760108880B2168937
:103B200040EA064601F51070576900EBC700466091
:103B3000D069012819D1D1F80C021843C1F80C0240
:103B4000908880B2168840EA064601F510705769E1
:103B500040F83760908980B2168940EA064601F540
:103B60001070576900EBC7004660906928B9D1F81A
:103B700004029843C1F8040204E0D1F80402184397
:103B8000C1F80402106928B9D1F814029843C1F8A9
:103B9000140204E0D1F814021843C1F81402106AA8
:103BA000012804D1D1F81C021843C1F81C02D1F835
:103BB000000220F00100C1F800020020F0BDFFE784
:103BC000606A40F4802060620120F7E700640040F2
:103BD000704770B5044694F82050012D01D0022D95
:103BE0007DD151B92068C06800F0030080B9606AD7
:103BF00040F400106062012070BD2068006900F090
:103C0000030028B9606A40F4001060620120F3E705
:103C1000206800F5D87000EB0110006800F0040087
:103C20009060906840B9206800F5D87000EB0110F2
:103C30000068400D106007E0206800F5D87000EBC8
:103C400001100068C0085060206800F5D87000EBD3
:103C50000110006800F00200D060206800F5D87004
:103C600000EB0110406800F00F00082802D3082084
:103C7000106108E0206800F5D87000EB0110406882
:103C800000F00F001061206800F5D87000EB011003
:103C9000406800F47F40000A9061206800F5D87009
:103CA00000EB01104068000C5061206800F5D870EE
:103CB00000EB011080681870206800F5D87000EBE8
:103CC0000110806800F47F40000A5870206800F5F9
:103CD000D87000EB0110806800F47F0000E03CE049
:103CE000000C9870206800F5D87000EB0110806817
:103CF000000ED870206800F5D87000EB0110C06885
:103D00001871206800F5D87000EB0110C06800F44D
:103D10007F40000A5871206800F5D87000EB011050
:103D2000C06800F47F00000C9871206800F5D8701E
:103D300000EB0110C068000ED87131B92068C0686E
:103D400040F020002668F06005E02068006940F03F
:103D500020002668306100204EE7606A40F4802031
:103D60006062012048E72DE9F05F044600252068E5
:103D700046692068D0F80490206887682068D0F8E9
:103D80000CA02068D0F810B02068D0F8188006F099
:103D90000100002855D007F00100C0B101202168C2
:103DA000886007F0020018B1204600F0D0FA0EE05B
:103DB00007F0040010B145F4006508E007F00800C2
:103DC00010B145F4805502E0204600F0BFFA07F438
:103DD0008070C8B14FF480702168886007F400706B
:103DE00018B1204600F0B5FA0EE007F4806010B17B
:103DF00045F4005508E007F4006010B145F4804533
:103E000002E0204600F0A4FA07F48030C8B14FF475
:103E100080302168886007F4003018B1204600F037
:103E20009AFA0EE007F4802010B145F4004508E04E
:103E300007F4002010B145F4803502E0204600F080
:103E400089FA06F0080038B10AF0100020B145F4F4
:103E5000007510202168C86006F0040040B10AF027
:103E6000080028B108202168C860204600F01CFA2C
:103E700006F0020038B12068C06800F0030010B1FD
:103E8000204600F012FA06F0400038B10BF01000A6
:103E900020B145F4806510202168086106F02000FB
:103EA00040B10BF0080028B10820216808612046C5
:103EB00000F00BFA06F0100038B12068006900F03D
:103EC000030010B1204600F001FA06F4003040B1C2
:103ED00009F0100028B1102021684860204600F049
:103EE00005FA06F4803040B109F0080028B1082036
:103EF00021684860204600F02FFA06F4004088B39D
:103F000009F0040078B306F4807020B108F00100D5
:103F100008B145F0010506F4007020B108F0020078
:103F200008B145F0020506F4806020B108F00400F5
:103F300008B145F0040506F40060A0B108F0700077
:103F400088B108F07000402817D006DC10280BD08C
:103F500020280CD0302819D10CE0502810D060282F
:103F600014D110E01DE019E045F008050FE045F020
:103F700010050CE045F0200509E045F0400506E09D
:103F800045F0800503E045F4807500E000BF00BF08
:103F90002068806920F07000216888610420216811
:103FA00048602DB1606A284360622046FFF710FE2A
:103FB000BDE8F09F70B504460CB9012070BD94F8BF
:103FC000200010B9204600F0AFF82068006840F0EB
:103FD00001002168086000F0D5FC05460DE000F006
:103FE000D1FC401B0A2808D9606A40F400306062A6
:103FF000052084F820000120E0E72068406800F0F8
:1040000001000028EBD02068006820F00200216841
:10401000086000F0B7FC05460DE000F0B3FC401B63
:104020000A2808D9606A40F400306062052084F8EC
:1040300020000120C2E72068406800F0020000284C
:10404000EBD1207E012806D12068006840F0800076
:104050002168086005E02068006820F08000216881
:104060000860607E012806D12068006840F04000AA
:104070002168086005E02068006820F040002168A1
:104080000860A07E012806D12068006840F020006A
:104090002168086005E02068006820F020002168A1
:1040A0000860E07E012806D12068006820F010003A
:1040B0002168086005E02068006840F01000216871
:1040C0000860207F012806D12068006840F00800C1
:1040D0002168086005E02068006820F00800216879
:1040E0000860607F012806D12068006840F0040065
:1040F0002168086005E02068006820F0040021685D
:104100000860D4E902010843216908436169084352
:104110006168491E08432168C8610020606201206F
:1041200084F82000002049E710B586B00446142129
:1041300001A8FCF731FA56492068884249D1554810
:104140000068401C534908600846006801280FD1E8
:1041500000BF002000905048006840F000704E49B9
:1041600008600846006800F00070009000BF00BFC3
:1041700000BF0020009048481038006840F0080058
:104180004549103908600846006800F008000090B2
:1041900000BF00BF03200190022002900020039086
:1041A000032004900920059001A93C4800F0EAFA98
:1041B00000220521142000F0ADFC142000F096FC34
:1041C00000220521152000F0A5FC152000F08EFC32
:1041D0005CE033492068884258D100BF002000903D
:1041E0002D48006840F080602B4908600846006850
:1041F00000F08060009000BF00BF26480068401CAF
:10420000244908600846006801280FD100BF00203B
:1042100000902148006840F000701F49086008467F
:10422000006800F00070009000BF00BF00BF0020D9
:10423000009019481038006840F002001649103903
:1042400008600846006800F00200009000BF00BF50
:10425000602001900220029000200390032004902F
:104260000920059001A90F4800F08CFA00220521D1
:10427000402000F04FFC402000F038FC00220521D7
:10428000412000F047FC412000F030FC06B010BD9A
:10429000006400401400002040380240000C02403E
:1042A0000068004000040240704710B58AB0044620
:1042B00001AB03AA00212046FFF78BFC01AA03A94A
:1042C0002046FEF73BFB0AB010BD704710B58AB020
:1042D000044601AB03AA01212046FFF77AFC01AA9C
:1042E00003A92046FEF72AFB0AB010BD704770B53F
:1042F000044694F82000012822D1022084F82000EE
:104300002068006820F001002168086000F03AFB96
:1043100005460DE000F036FB401B0A2808D9606A0C
:1043200040F400306062052084F82000012070BD58
:104330002068406800F001000028EBD16062F6E7D9
:10434000606A40F4002060620120F0E77047704727
:104350007047704770477047704770B50446A56D49
:1043600000F010FB064694F83500022808D08020A3
:10437000606500BF002084F8340000BF012070BDDC
:104380002068006820F016002168086020684069F5
:1043900020F0800021684861206C08B9A06C28B129
:1043A0002068006820F00800216808602068006824
:1043B00020F001002168086010E000F0E3FA801BA3
:1043C00005280BD920206065032084F8350000BF44
:1043D000002084F8340000BF0320D0E72068006884
:1043E00000F001000028E8D194F85C103F208840DC
:1043F000A860012084F8350000BF002084F8340054
:1044000000BF00BFBBE7014691F83500022803D08A
:104410008020486501207047052081F83500086834
:10442000006820F001000A6810600020F3E7000037
:10443000F8B50446002000908C4800684FF41651EF
:10444000B0FBF1F7A56D2E6894F85C100820884049
:10445000304098B12068006800F0040070B1206816
:10446000006820F004002168086094F85C100820BF
:104470008840A860606D40F00100606594F85C10B1
:1044800001208840304068B12068406900F0800019
:1044900040B194F85C1001208840A860606D40F045
:1044A0000200606594F85C1004208840304068B1D8
:1044B0002068006800F0020040B194F85C1004200D
:1044C0008840A860606D40F00400606594F85C105E
:1044D00010208840304078B32068006800F0080061
:1044E00050B394F85C1010208840A86020680068E1
:1044F00000F4802080B12068006800F4002028B912
:10450000206CC8B12046216C884715E0A06C98B19A
:104510002046A16C88470FE02068006800F4807096
:1045200028B92068006820F0080021680860206C25
:1045300010B12046216C884794F85C1020208840F8
:104540003040002865D02068006800F01000002886
:104550005FD094F85C1020208840A86094F8350063
:10456000052828D12068006820F01600216808601E
:104570002068406920F0800021684861206C08B9FB
:10458000A06C28B12068006820F00800216808604D
:1045900094F85C103F208840A860012084F8350022
:1045A00000BF002084F8340000BF206D10B1204609
:1045B000216D8847F8BD2068006800F4802080B134
:1045C0002068006800F4002028B9606C10B1204613
:1045D000616C88471DE0E06BD8B12046E16B8847ED
:1045E00017E02068006800F4807068B920680068EF
:1045F00020F0100021680860012084F8350000BF19
:10460000002084F8340000BFE06B10B12046E16B5D
:104610008847606D38B3606D00F00100F0B105208F
:1046200084F835002068006820F0010021680860E7
:1046300000BF0098401C0090B84200D905E02068F7
:10464000006800F001000028F3D100BF012084F8C9
:10465000350000BF002084F8340000BFE06C10B1CA
:104660002046E16C884700BFA4E7000088000020D6
:104670002DE9F0410446002500F084F9074614B9FD
:104680000120BDE8F081606A00B100BF022084F81B
:10469000350000BF002084F8340000BF20680068A7
:1046A00020F00100216808600AE000F06BF9C01BEF
:1046B000052805D920206065032084F83500E0E74F
:1046C0002068006800F001000028EED1206805682D
:1046D00021480540D4E901010843E1680843216904
:1046E000084361690843A1690843E1690843216AF5
:1046F00008430543606A042803D1D4E90B01084349
:104700000543206805602068456925F00705606A53
:104710000543606A04280DD1A06A0543E06A48B1E8
:104720002046FDF7ABFA28B140206065012084F8EF
:104730003500A6E7206845612046FDF785FA064664
:1047400094F85C103F208840B06000206065012034
:1047500084F83500002094E73F8010F070B50446DF
:1047600000F010F906462546681C10B10448007890
:10477000054400BF00F006F9801BA842FAD370BDC3
:1047800084000020F8B502460B46002500240020D6
:104790000021D6E0012606FA01F51E6806EA0504A6
:1047A000AC4274D11E7906F00306012E04D01E79A6
:1047B00006F00306022E13D190684F000326BE4078
:1047C000B0434F00DE68BE40304390605068012621
:1047D0008E40B0431E79C6F300168E4030435060C1
:1047E0001E7906F00306032E09D0D0684F00032679
:1047F000BE40B0434F009E68BE403043D0601E793B
:1048000006F00306022E13D1CF0802F1200656F857
:1048100027004E07F70E0F26BE40B0434F07FF0E8E
:104820001E69BE403043CF0802F1200646F827003B
:1048300010684F000326BE40B0431E7906F0030601
:104840004F00BE40304310605E6806F44036002ED4
:1048500076D000BF002600963C4E366846F480466F
:104860003A4F3E603E46366806F48046009600BFEA
:1048700000BF374E8F0856F827008E07370F0F26D8
:10488000BE40B043334EB24202D1002624E057E08E
:10489000314EB24201D101261EE0304EB24201D16A
:1048A000022619E02E4EB24201D1032614E02D4E0D
:1048B000B24201D104260FE02B4EB24201D10526AF
:1048C0000AE02A4EB24201D1062605E0284EB24245
:1048D00001D1072600E008268F073F0FBE40304376
:1048E0001B4E8F0846F82700224E3068A0435E68B2
:1048F00006F4801606B120431E4E3060361D306827
:10490000A0435E6806F4001606B12043194E361D1A
:104910003060184E361F3068A0435E6806F40036DB
:1049200006B12043134E361F3060361F3068A04357
:104930005E6806F4803606B120430E4E083E3060B5
:10494000491C1029FFF426AFF8BD0000443802408E
:104950000838014000000240000402400008024004
:10496000000C0240001002400014024000180240F7
:10497000001C0240083C01400AB1816101E00B04C7
:104980008361704701480068704700007C00002088
:1049900003480068034909780844014908607047E2
:1049A0007C0000208400002010B50D48006840F411
:1049B00000700B4908600846006840F48060086099
:1049C0000846006840F480700860032000F0E0F8BA
:1049D0000F2000F007F800F05FF8002010BD000085
:1049E000003C02402DE9F04188B004460027B8465B
:1049F00000BF002001902448006840F001002249D7
:104A000008600846006800F00100019000BF00BF88
:104A100002A903A801F064F8069F1FB901F088F805
:104A2000054602E001F084F845001848B5FBF0F0B7
:104A3000A0F101084FF080401549086040F2E731CD
:104A40001348C160C0F80480002101618160816168
:104A500001F0C4FD064696B90D4801F02FFE06464A
:104A60006EB91C2000F042F8102C07D2002221461B
:104A70001C2000F04FF80748046000E00126304693
:104A800008B0BDE8F08100004038024040420F000D
:104A9000C41000208000002008B500BF0020009056
:104AA0001148006840F480400F49086008460068DB
:104AB00000F48040009000BF00BF00BF00200090C5
:104AC000081F006840F08050091F08600846006811
:104AD00000F08050009000BF00BF00220F21901E08
:104AE00000F018F808BD00004438024001460846AE
:104AF00000280DDB00BF00BF00F01F0301229A4019
:104B000043099B0003F1E023C3F8002100BF00BF6D
:104B100000BF70472DE9F05F80460D46164600271E
:104B20000AF05EFF074639462A46334601F0070081
:104B3000C0F1070ABAF1040F02D94FF0040A01E0EC
:104B4000C0F1070AD14600F1040ABAF1070F02D2F8
:104B50004FF0000A01E0A0F1030AD4464FF0010A29
:104B60000AFA09FAAAF1010A0AEA020A0AFA0CFA8E
:104B70004FF0010B0BFA0CFBABF1010B0BEA030B33
:104B80004AEA0B04214640460AF032FFBDE8F09F96
:104B900000BF00F00702064B19684FF6FF031940EB
:104BA000044B0B4343EA0221014B196000BF7047DD
:104BB0000CED00E00000FA05704702461068416203
:104BC00000207047F0B5034615461868446A21B9BD
:104BD00044EA05401E68B06219E01868806A04EB78
:104BE0001044002208E0186800F5827050F8220096
:104BF00004EB1044501CC2B2481E9042F3D844EA61
:104C00000547186800F582704E1E40F82670002097
:104C1000F0BD10B50446D4F8E00408F076FE10BDEF
:104C200070B504460D4605EBC50304F1140101EB14
:104C30008301CA682946D4F8E00408F059FD70BD24
:104C400070B504460D4605EBC50304F5157101EB7F
:104C50008301CA682946D4F8E00408F0D1FD70BD8C
:104C600010B50446D4F8E00408F052FE10BD2DE95A
:104C7000F04104460D4605F08000802808D105F07B
:104C80000F0000EBC00104F1140000EB810607E007
:104C900005F00F0000EBC00104F5157000EB810674
:104CA000314620680AF08AF807463846BDE8F081A8
:104CB00070B504460E4606F0800080280AD106F042
:104CC0000F0000EBC00104F1140000EB810501208E
:104CD000687009E006F00F0000EBC00104F51570E4
:104CE00000EB81050020687006F00F00287000BFFF
:104CF00094F89404012801D1022070BD012084F8A9
:104D0000940400BF2946206809F0E6FB00BF00209C
:104D100084F8940400BF00BFEFE770B504460E4668
:104D200006F00F002179884201D9012070BD06F0FC
:104D3000800080280AD106F00F0000EBC00104F1CA
:104D4000140000EB81050120687009E006F00F00F7
:104D500000EBC00104F5157000EB810500206870C0
:104D60000020A87006F00F00287000BF94F894048B
:104D7000012801D10220D9E7012084F8940400BF62
:104D80002946206809F0A6FD00BF002084F894049D
:104D900000BF00BFCAE7024601F00F0000EBC003EE
:104DA00002F5157000EB8300406970472DE9F0476C
:104DB00005460E4690461F464FF0000906F080005B
:104DC00080280AD106F00F0000EBC00105F11400A5
:104DD00000EB81040120607009E006F00F0000EB99
:104DE000C00105F5157000EB81040020607006F02D
:104DF0000F002070C8F30A00A0602771607808B126
:104E000020786083022F01D10020607100BF95F8E7
:104E10009404012802D10220BDE8F087012085F822
:104E2000940400BF2146286809F062FA00BF002000
:104E300085F8940400BF4846EEE72DE9F0410546A9
:104E40000E461746984606F00F0000EBC00105F528
:104E5000157000EB8104E760C4F8108000206061E9
:104E6000607006F00F002070A879012800D1E7617A
:104E7000AA792146286809F0C1FD0020BDE8F0812B
:104E800070B504460D4605F00F002179884201D91E
:104E9000012070BD05F0800080280AD105F00F00C8
:104EA00000EBC00104F1140000EB810601207070DA
:104EB00007E005EBC50104F5157000EB8106002045
:104EC00070700120B07005F00F00307000BF94F8D2
:104ED0009404012801D10220DBE7012084F8940426
:104EE00000BF3146206809F03CFD05F00F0028B9ED
:104EF000A17904F29C42206809F0B4FC00BF0020B4
:104F000084F8940400BF00BFC3E72DE9F0410546D3
:104F10000E461746984606F00F0000EBC00105F15B
:104F2000140000EB8104E760C4F810800020606189
:104F30000120607006F00F002070A879012800D1D0
:104F4000E761AA792146286809F058FD0020BDE8EC
:104F5000F0812DE9FE4F0446D4F800B05E4620688B
:104F60000AF00EF8002874D120680AF048F808B951
:104F7000BDE8FE8F40F608008059C0F30D20C4F84C
:104F8000D40420680AF03BF800F00200022805D1A2
:104F90002068406900F002002168486120680AF03A
:104FA0002EF800F01000102845D12068806920F00C
:104FB000100021688861DBF8209009F00F0000EBF9
:104FC000C00104F5157000EB810AC9F343400228C3
:104FD0001AD147F6F07009EA000030B3C9F30A129B
:104FE0005846DAF80C100AF00FF8C9F30A11DAF88B
:104FF0000C000844CAF80C00C9F30A11DAF81400CE
:105000000844CAF8140010E0C9F3434006280CD144
:10501000082204F29C41584609F0F6FFC9F30A1130
:10502000DAF814000844CAF814002068806940F0D7
:10503000100021688861206809F0E1FF00F4002079
:10504000B0F5002F7BD10025206809F0A8FF029061
:1050500072E0E1E2029800F00100002868D0E9B2B5
:10506000206809F0BFFF804608F0010048B1012127
:1050700006F5306000EB451081602946204605F0BA
:1050800065FE08F00800082809D1082106F53060FF
:1050900000EB451081602946204605F025FE08F00A
:1050A0001000102805D1102106F5306000EB4510E6
:1050B000816008F00200022824D1DBF8140000F01F
:1050C0008000802807D140F60400805940F48061B8
:1050D00040F60400815105EBC50104F5157000EBA5
:1050E000810A9AF80300012806D100208AF80300FB
:1050F000E9B2204600F09BFA022106F5306000EB91
:105100004510816008F02000202805D1202106F5F7
:10511000306000EB4510816008F40050B0F5005F8E
:1051200006D14FF4005106F5306000EB4510816068
:105130006D1C029840080290029800288AD12068CD
:1051400009F05DFF00F48020B0F5802F7DD120684C
:1051500009F01BFF029000259AE0029800F0010080
:10516000002873D0E9B2206809F023FF804608F0D8
:105170000100F0B305F00F0101208840019040F6D6
:1051800034008159019821EA000040F63401885129
:10519000012106F5106000EB45108160A07901281F
:1051A00024D105EBC50104F1140000EB810005EBEF
:1051B000C502C16804F1140000EB8200806801445C
:1051C00005EBC50204F1140000EB8200C1606DB96B
:1051D00005EBC50104F1140000EB8100006928B95A
:1051E00004F29C420121206809F03CFBE9B2204610
:1051F00000E001E0FFF714FD08F00800082805D1E1
:10520000082106F5106000EB4510816008F01000E1
:10521000102805D1102106F5106000EB45108160C3
:1052200008F04000402805D1402106F5106000EB51
:105230004510816008F0020002281DD12946584619
:1052400009F061FE05EBC50101E025E01CE004F179
:10525000140000EB810A9AF80300012806D100200F
:105260008AF80300E9B2204600F0D8F9022106F5D9
:10527000106000EB4510816008F08000802803D1A9
:105280002946204605F004FE6D1C02984008029055
:10529000029800287FF461AF206809F0B0FE00F0AA
:1052A0000040B0F1004F1CD140F60400805920F0BE
:1052B000010140F60400815194F8CC04012807D183
:1052C000002084F8CC0400212046FFF775FC02E0A2
:1052D000204600F0D1FA2068406900F000402168C3
:1052E0004861206809F08BFE00F40060B0F5006FA3
:1052F0000ED140F60800805900F0010010B12046A0
:1053000000F012FB2068406900F4006021684861E9
:10531000206809F074FE00F48050B0F5805F7ED103
:1053200040F60400805920F0010140F6040081514C
:105330001021206809F0E7FD002732E04FF67F31A9
:1053400006F5106000EB4710816006F5106000EB79
:105350004710006820F4001106F5106000EB4710BC
:1053600001604FF67F3106F5306000EB4710816039
:1053700006F5306000EB4710006820F4001106F5D8
:10538000306000EB4710016006F5306000EB47101D
:10539000006840F0006106F5306000EB47100160E6
:1053A0007F1C2079B842C9D840F61C00805940F0D3
:1053B000011140F61C008151E07B70B1D6F88408E1
:1053C00040F00B01C6F8841840F64400805940F0C4
:1053D0000B0140F6440081510FE040F61400805963
:1053E00042F22B01084340F614018851081F8059EE
:1053F00040F00B014FF401608151D6F8000820F411
:10540000FE60C6F80008A17904F29C42206809F009
:1054100029FA2068406900F48050216800E000E02B
:105420004861206809F0EBFD00F40050B0F5005F22
:1054300017D1206808F0C4FF206809F08EFDE071E4
:1054400000F070FB0090E2792068009909F05EFEA0
:10545000204600F0F9F92068406900F40050216806
:105460004861206809F0CBFD00F00800082808D149
:10547000204600F008FA2068406900F00800216822
:105480004861206809F0BBFD00F08000802818D139
:10549000DBF8180020F08000CBF8180001250DE0A3
:1054A00005EBC50104F5157000EB8100C0780128FB
:1054B00003D1E9B22046FFF7DAFB6D1C2079A84240
:1054C000EED8206809F09BFD00F48010B0F5801F35
:1054D0002DD1012522E006F5106000EB4510D0F833
:1054E000009005EBC50104F1140000EB8100007988
:1054F000012812D109F00040B0F1004F0DD1012177
:1055000005EBC50204F1140000EB8200C170E8B2A3
:1055100040F080012046FFF7AAFB6D1C2079A842CD
:10552000D9D82068406900F480102168486120685B
:1055300009F065FD00F40010B0F5001F44D101250D
:1055400038E006F5306000EB4510D0F8009005EB30
:10555000C50104F5157000EB81000079012828D100
:1055600009F00040B0F1004F23D194F8D40400F0CA
:105570000100C9F3004188421BD1012105EBC5029E
:1055800004F5157000EB8200C170DBF8180040F0E4
:105590008000CBF81800DBF8140000F0800040B960
:1055A00040F60400805940F4007140F60400815137
:1055B00003E06D1C2079A842C3D800BF2068406971
:1055C00000F4001021684861206809F018FD00F01F
:1055D0008040B0F1804F08D12046FFF71AFB2068C9
:1055E000406900F0804021684861206809F007FDAB
:1055F00000F0040004280FD12068D0F8049009F0CE
:105600000400042802D12046FFF72AFB20684068E6
:1056100040EA09002168486000BFA9E470B504466B
:105620000D462946D4F8E00408F0DEF970BD70B5E7
:1056300004460D462946D4F8E00408F0F9F970BD97
:10564000F8B504460CB90120F8BD266894F8950415
:1056500028B9002084F89404204600F0A1F8032023
:1056600084F89504B6F1A04F01D10021A171206802
:1056700009F0F0F8207C8DF8000094E80F0008F0A5
:10568000B3FE20B1022084F895040120DCE700215C
:10569000206809F0E9FC20B1022084F8950401207B
:1056A000D2E7002531E0012105EBC50204F1140029
:1056B00000EB8200417005EBC50104F1140000F815
:1056C000215005EBC50100EB81004583002105EB6E
:1056D000C50204F1140000EB8200017105EBC50264
:1056E00004F1140000EB8200816005EBC50204F1B7
:1056F000140000EB8200C16005EBC50204F1140048
:1057000000EB82000161681CC5B22079A842CADCA6
:1057100000252AE0002105EBC50204F5157000EB19
:105720008200417005EBC50104F5157000F82150A9
:10573000002105EBC50200EB8200017105EBC502FB
:1057400004F5157000EB8200816005EBC50204F5DD
:10575000157000EB8200C16005EBC50204F5157001
:1057600000EB82000161681CC5B22079A842D1DC3F
:10577000207C8DF8000094E80F0008F077FF20B13E
:10578000022084F8950401205EE700206074012067
:1057900084F89504206808F057FF002054E70000C3
:1057A00010B586B00446142101A8FAF7F5FE20686A
:1057B000B0F1A04F42D100BF002000902048006807
:1057C00040F001001E4908600846006800F0010032
:1057D000009000BF00BF4FF4C05001900220029023
:1057E00000200390032004900A20059001A9154889
:1057F000FEF7C8FF00BF1248001D006840F080009F
:105800000F49091D086000BF002000900C481430AB
:10581000006840F480400A49143108600846006876
:1058200000F48040009000BF00BF00BF00220521AF
:105830004320FFF76FF94320FFF758F906B010BD7A
:10584000303802400000024070B504460125E0797E
:1058500008B9002506E0E079022801D1012501E020
:10586000FDF726FA2946D4F8E00408F08BF9D4F8BD
:10587000E00408F031F970BD10B50446D4F8E00436
:1058800008F061F910BD10B50446D4F8E00408F042
:1058900065F910BD70B504460D4600BF94F8940438
:1058A000012801D1022070BD012084F8940400BFBA
:1058B00065742946206809F00BFC00BF002084F8BD
:1058C000940400BF00BFEEE710B5044604F29C410B
:1058D000D4F8E00408F06DF910BD70B504462568F1
:1058E00000BF94F89404012801D1022070BD01206A
:1058F00084F8940400BFE86800F0400030B1607B99
:10590000012803D1A86B40F48030A863206809F017
:10591000CBFA206808F086FE00BF002084F89404CB
:1059200000BF00BFE2E7000010B50446D4F8E00471
:1059300008F09CF92068D0F8000E40F001002168C2
:10594000C1F8000EE07A28B10348006840F0060074
:105950000149086010BD000010ED00E070B504467C
:105960000D460CB9012070BD5848006800F00700D2
:10597000A84209D255490D700846006800F007009A
:10598000A84201D00120EEE7207800F002000228B2
:105990001DD1207800F00400042805D14C4800688F
:1059A00040F4E0504A490860207800F008000828D8
:1059B00005D14748006840F46040454908604448C4
:1059C000006820F0F000A168084341490860207891
:1059D00000F00100A8B36068012807D13C480838EE
:1059E0000068C0F34040B8B90120BCE760680228F5
:1059F00002D06068032807D1354808380068C0F332
:105A0000406048B90120AEE7314808380068C0F36B
:105A1000400008B90120A6E72D48006820F00300E7
:105A2000616808432A490860FEF7ACFF064609E0B2
:105A3000FEF7A8FF801B41F28831884202D903207B
:105A400091E707E02248006800F00C006168B0EBC5
:105A5000810FEDD11D48006800F00700A84209D968
:105A60001A490D700846006800F00700A84201D0EE
:105A7000012078E7207800F00400042807D11448BA
:105A8000006820F4E050E16808431149086020787C
:105A900000F00800082808D10D48006820F4604094
:105AA000216940EAC1000A49086000F061F808492C
:105AB0000968C1F30311074A515CC84006490860F0
:105AC00006480068FEF78EFF00204CE7003C0240CD
:105AD000083802402840010888000020800000208B
